{
  "contractName": "RealEstate",
  "abi": [
    {
      "inputs": [],
      "stateMutability": "nonpayable",
      "type": "constructor"
    },
    {
      "anonymous": false,
      "inputs": [
        {
          "indexed": true,
          "internalType": "address",
          "name": "owner",
          "type": "address"
        },
        {
          "indexed": true,
          "internalType": "address",
          "name": "approved",
          "type": "address"
        },
        {
          "indexed": true,
          "internalType": "uint256",
          "name": "tokenId",
          "type": "uint256"
        }
      ],
      "name": "Approval",
      "type": "event"
    },
    {
      "anonymous": false,
      "inputs": [
        {
          "indexed": true,
          "internalType": "address",
          "name": "owner",
          "type": "address"
        },
        {
          "indexed": true,
          "internalType": "address",
          "name": "operator",
          "type": "address"
        },
        {
          "indexed": false,
          "internalType": "bool",
          "name": "approved",
          "type": "bool"
        }
      ],
      "name": "ApprovalForAll",
      "type": "event"
    },
    {
      "anonymous": false,
      "inputs": [
        {
          "indexed": true,
          "internalType": "address",
          "name": "from",
          "type": "address"
        },
        {
          "indexed": true,
          "internalType": "address",
          "name": "to",
          "type": "address"
        },
        {
          "indexed": true,
          "internalType": "uint256",
          "name": "tokenId",
          "type": "uint256"
        }
      ],
      "name": "Transfer",
      "type": "event"
    },
    {
      "anonymous": false,
      "inputs": [
        {
          "indexed": false,
          "internalType": "address",
          "name": "onwer",
          "type": "address"
        },
        {
          "indexed": false,
          "internalType": "uint256",
          "name": "assetID",
          "type": "uint256"
        }
      ],
      "name": "assetRegistered",
      "type": "event"
    },
    {
      "stateMutability": "payable",
      "type": "fallback",
      "payable": true
    },
    {
      "inputs": [
        {
          "internalType": "address",
          "name": "to",
          "type": "address"
        },
        {
          "internalType": "uint256",
          "name": "tokenId",
          "type": "uint256"
        }
      ],
      "name": "approve",
      "outputs": [],
      "stateMutability": "nonpayable",
      "type": "function"
    },
    {
      "inputs": [
        {
          "internalType": "uint256",
          "name": "",
          "type": "uint256"
        }
      ],
      "name": "assetApprovedToSellTo",
      "outputs": [
        {
          "internalType": "address",
          "name": "",
          "type": "address"
        }
      ],
      "stateMutability": "view",
      "type": "function",
      "constant": true
    },
    {
      "inputs": [
        {
          "internalType": "uint256",
          "name": "",
          "type": "uint256"
        }
      ],
      "name": "assets",
      "outputs": [
        {
          "internalType": "uint256",
          "name": "assetID",
          "type": "uint256"
        },
        {
          "internalType": "string",
          "name": "_type",
          "type": "string"
        },
        {
          "internalType": "bool",
          "name": "avlToBuy",
          "type": "bool"
        },
        {
          "internalType": "address",
          "name": "owner",
          "type": "address"
        },
        {
          "internalType": "uint256",
          "name": "price",
          "type": "uint256"
        }
      ],
      "stateMutability": "view",
      "type": "function",
      "constant": true
    },
    {
      "inputs": [
        {
          "internalType": "address",
          "name": "owner",
          "type": "address"
        }
      ],
      "name": "balanceOf",
      "outputs": [
        {
          "internalType": "uint256",
          "name": "",
          "type": "uint256"
        }
      ],
      "stateMutability": "view",
      "type": "function",
      "constant": true
    },
    {
      "inputs": [],
      "name": "cityMayor",
      "outputs": [
        {
          "internalType": "address",
          "name": "",
          "type": "address"
        }
      ],
      "stateMutability": "view",
      "type": "function",
      "constant": true
    },
    {
      "inputs": [
        {
          "internalType": "uint256",
          "name": "tokenId",
          "type": "uint256"
        }
      ],
      "name": "getApproved",
      "outputs": [
        {
          "internalType": "address",
          "name": "",
          "type": "address"
        }
      ],
      "stateMutability": "view",
      "type": "function",
      "constant": true
    },
    {
      "inputs": [
        {
          "internalType": "address",
          "name": "owner",
          "type": "address"
        },
        {
          "internalType": "address",
          "name": "operator",
          "type": "address"
        }
      ],
      "name": "isApprovedForAll",
      "outputs": [
        {
          "internalType": "bool",
          "name": "",
          "type": "bool"
        }
      ],
      "stateMutability": "view",
      "type": "function",
      "constant": true
    },
    {
      "inputs": [],
      "name": "name",
      "outputs": [
        {
          "internalType": "string",
          "name": "",
          "type": "string"
        }
      ],
      "stateMutability": "view",
      "type": "function",
      "constant": true
    },
    {
      "inputs": [
        {
          "internalType": "uint256",
          "name": "tokenId",
          "type": "uint256"
        }
      ],
      "name": "ownerOf",
      "outputs": [
        {
          "internalType": "address",
          "name": "",
          "type": "address"
        }
      ],
      "stateMutability": "view",
      "type": "function",
      "constant": true
    },
    {
      "inputs": [
        {
          "internalType": "address",
          "name": "from",
          "type": "address"
        },
        {
          "internalType": "address",
          "name": "to",
          "type": "address"
        },
        {
          "internalType": "uint256",
          "name": "tokenId",
          "type": "uint256"
        }
      ],
      "name": "safeTransferFrom",
      "outputs": [],
      "stateMutability": "nonpayable",
      "type": "function"
    },
    {
      "inputs": [
        {
          "internalType": "address",
          "name": "from",
          "type": "address"
        },
        {
          "internalType": "address",
          "name": "to",
          "type": "address"
        },
        {
          "internalType": "uint256",
          "name": "tokenId",
          "type": "uint256"
        },
        {
          "internalType": "bytes",
          "name": "_data",
          "type": "bytes"
        }
      ],
      "name": "safeTransferFrom",
      "outputs": [],
      "stateMutability": "nonpayable",
      "type": "function"
    },
    {
      "inputs": [
        {
          "internalType": "address",
          "name": "operator",
          "type": "address"
        },
        {
          "internalType": "bool",
          "name": "approved",
          "type": "bool"
        }
      ],
      "name": "setApprovalForAll",
      "outputs": [],
      "stateMutability": "nonpayable",
      "type": "function"
    },
    {
      "inputs": [
        {
          "internalType": "bytes4",
          "name": "interfaceId",
          "type": "bytes4"
        }
      ],
      "name": "supportsInterface",
      "outputs": [
        {
          "internalType": "bool",
          "name": "",
          "type": "bool"
        }
      ],
      "stateMutability": "view",
      "type": "function",
      "constant": true
    },
    {
      "inputs": [],
      "name": "symbol",
      "outputs": [
        {
          "internalType": "string",
          "name": "",
          "type": "string"
        }
      ],
      "stateMutability": "view",
      "type": "function",
      "constant": true
    },
    {
      "inputs": [
        {
          "internalType": "uint256",
          "name": "tokenId",
          "type": "uint256"
        }
      ],
      "name": "tokenURI",
      "outputs": [
        {
          "internalType": "string",
          "name": "",
          "type": "string"
        }
      ],
      "stateMutability": "view",
      "type": "function",
      "constant": true
    },
    {
      "inputs": [
        {
          "internalType": "address",
          "name": "from",
          "type": "address"
        },
        {
          "internalType": "address",
          "name": "to",
          "type": "address"
        },
        {
          "internalType": "uint256",
          "name": "tokenId",
          "type": "uint256"
        }
      ],
      "name": "transferFrom",
      "outputs": [],
      "stateMutability": "nonpayable",
      "type": "function"
    },
    {
      "stateMutability": "payable",
      "type": "receive",
      "payable": true
    },
    {
      "inputs": [
        {
          "internalType": "address",
          "name": "owner",
          "type": "address"
        },
        {
          "internalType": "string",
          "name": "_type",
          "type": "string"
        }
      ],
      "name": "registerAsset",
      "outputs": [],
      "stateMutability": "nonpayable",
      "type": "function"
    },
    {
      "inputs": [
        {
          "internalType": "uint256",
          "name": "id",
          "type": "uint256"
        }
      ],
      "name": "getAssetDetails",
      "outputs": [
        {
          "internalType": "address",
          "name": "owner",
          "type": "address"
        },
        {
          "internalType": "bool",
          "name": "canBuy",
          "type": "bool"
        },
        {
          "internalType": "string",
          "name": "_type",
          "type": "string"
        }
      ],
      "stateMutability": "view",
      "type": "function",
      "constant": true
    },
    {
      "inputs": [],
      "name": "fetchMyAssets",
      "outputs": [
        {
          "components": [
            {
              "internalType": "uint256",
              "name": "assetID",
              "type": "uint256"
            },
            {
              "internalType": "string",
              "name": "_type",
              "type": "string"
            },
            {
              "internalType": "bool",
              "name": "avlToBuy",
              "type": "bool"
            },
            {
              "internalType": "address",
              "name": "owner",
              "type": "address"
            },
            {
              "internalType": "uint256",
              "name": "price",
              "type": "uint256"
            }
          ],
          "internalType": "struct RealEstate.Asset[]",
          "name": "",
          "type": "tuple[]"
        }
      ],
      "stateMutability": "view",
      "type": "function",
      "constant": true
    },
    {
      "inputs": [],
      "name": "fetchAllAssetsForSale",
      "outputs": [
        {
          "components": [
            {
              "internalType": "uint256",
              "name": "assetID",
              "type": "uint256"
            },
            {
              "internalType": "string",
              "name": "_type",
              "type": "string"
            },
            {
              "internalType": "bool",
              "name": "avlToBuy",
              "type": "bool"
            },
            {
              "internalType": "address",
              "name": "owner",
              "type": "address"
            },
            {
              "internalType": "uint256",
              "name": "price",
              "type": "uint256"
            }
          ],
          "internalType": "struct RealEstate.Asset[]",
          "name": "",
          "type": "tuple[]"
        }
      ],
      "stateMutability": "view",
      "type": "function",
      "constant": true
    },
    {
      "inputs": [
        {
          "internalType": "uint256",
          "name": "assetID",
          "type": "uint256"
        },
        {
          "internalType": "uint128",
          "name": "price",
          "type": "uint128"
        }
      ],
      "name": "setForSale",
      "outputs": [],
      "stateMutability": "nonpayable",
      "type": "function"
    },
    {
      "inputs": [
        {
          "internalType": "uint256",
          "name": "assetId",
          "type": "uint256"
        },
        {
          "internalType": "uint256",
          "name": "value",
          "type": "uint256"
        }
      ],
      "name": "renuvate",
      "outputs": [],
      "stateMutability": "nonpayable",
      "type": "function"
    },
    {
      "inputs": [
        {
          "internalType": "uint256",
          "name": "assetId",
          "type": "uint256"
        },
        {
          "internalType": "uint128",
          "name": "value",
          "type": "uint128"
        }
      ],
      "name": "appreciate",
      "outputs": [],
      "stateMutability": "nonpayable",
      "type": "function"
    },
    {
      "inputs": [
        {
          "internalType": "uint256",
          "name": "assetId",
          "type": "uint256"
        },
        {
          "internalType": "uint128",
          "name": "value",
          "type": "uint128"
        }
      ],
      "name": "depreciate",
      "outputs": [],
      "stateMutability": "nonpayable",
      "type": "function"
    },
    {
      "inputs": [
        {
          "internalType": "uint256",
          "name": "assetId",
          "type": "uint256"
        },
        {
          "internalType": "address",
          "name": "buyer",
          "type": "address"
        }
      ],
      "name": "approveBuyer",
      "outputs": [],
      "stateMutability": "nonpayable",
      "type": "function"
    },
    {
      "inputs": [
        {
          "internalType": "uint256",
          "name": "assetId",
          "type": "uint256"
        },
        {
          "internalType": "address",
          "name": "approved",
          "type": "address"
        }
      ],
      "name": "clearBuyerApproval",
      "outputs": [],
      "stateMutability": "nonpayable",
      "type": "function"
    },
    {
      "inputs": [
        {
          "internalType": "address payable",
          "name": "from",
          "type": "address"
        },
        {
          "internalType": "uint256",
          "name": "assetId",
          "type": "uint256"
        }
      ],
      "name": "buy",
      "outputs": [],
      "stateMutability": "payable",
      "type": "function",
      "payable": true
    }
  ],
  "bytecode": "0x60806040523480156200001157600080fd5b506040518060400160405280601881526020017f5265616c2045737461746520546f6b656e73696174696f6e00000000000000008152506040518060400160405280600481526020017f504553540000000000000000000000000000000000000000000000000000000081525081600090805190602001906200009692919062000101565b508060019080519060200190620000af92919062000101565b505050600160068190555033600b60006101000a81548173ffffffffffffffffffffffffffffffffffffffff021916908373ffffffffffffffffffffffffffffffffffffffff16021790555062000216565b8280546200010f90620001b1565b90600052602060002090601f0160209004810192826200013357600085556200017f565b82601f106200014e57805160ff19168380011785556200017f565b828001600101855582156200017f579182015b828111156200017e57825182559160200191906001019062000161565b5b5090506200018e919062000192565b5090565b5b80821115620001ad57600081600090555060010162000193565b5090565b60006002820490506001821680620001ca57607f821691505b60208210811415620001e157620001e0620001e7565b5b50919050565b7f4e487b7100000000000000000000000000000000000000000000000000000000600052602260045260246000fd5b61490280620002266000396000f3fe6080604052600436106101a05760003560e01c806395d89b41116100ec578063bbf998861161008a578063cce7ec1311610064578063cce7ec13146105f0578063cf35bdd01461060c578063e450fbc21461064d578063e985e9c514610676576101a7565b8063bbf998861461055d578063c120ac2d14610588578063c87b56dd146105b3576101a7565b8063a22cb465116100c6578063a22cb465146104b9578063b4a5a983146104e2578063b7007ca91461050b578063b88d4fde14610534576101a7565b806395d89b41146104265780639d8ede9714610451578063a1f24b3d1461047a576101a7565b80634440bb5c116101595780636352211e116101335780636352211e1461034457806370a08231146103815780638151880f146103be57806394f4b8bf146103fb576101a7565b80634440bb5c146102c957806344adbebe146102f257806357291d421461031b576101a7565b806301ffc9a7146101a957806306fdde03146101e6578063081812fc14610211578063095ea7b31461024e57806323b872dd1461027757806342842e0e146102a0576101a7565b366101a757005b005b3480156101b557600080fd5b506101d060048036038101906101cb9190613263565b6106b3565b6040516101dd9190613a46565b60405180910390f35b3480156101f257600080fd5b506101fb610795565b6040516102089190613a61565b60405180910390f35b34801561021d57600080fd5b50610238600480360381019061023391906132b5565b610827565b6040516102459190613956565b60405180910390f35b34801561025a57600080fd5b5061027560048036038101906102709190613227565b6108ac565b005b34801561028357600080fd5b5061029e600480360381019061029991906130cd565b6109c4565b005b3480156102ac57600080fd5b506102c760048036038101906102c291906130cd565b610a24565b005b3480156102d557600080fd5b506102f060048036038101906102eb919061331a565b610a44565b005b3480156102fe57600080fd5b506103196004803603810190610314919061331a565b610b84565b005b34801561032757600080fd5b50610342600480360381019061033d9190613356565b610c64565b005b34801561035057600080fd5b5061036b600480360381019061036691906132b5565b610d1a565b6040516103789190613956565b60405180910390f35b34801561038d57600080fd5b506103a860048036038101906103a3919061302c565b610dcc565b6040516103b59190613da3565b60405180910390f35b3480156103ca57600080fd5b506103e560048036038101906103e091906132b5565b610e84565b6040516103f29190613956565b60405180910390f35b34801561040757600080fd5b50610410610eb7565b60405161041d9190613956565b60405180910390f35b34801561043257600080fd5b5061043b610edd565b6040516104489190613a61565b60405180910390f35b34801561045d57600080fd5b50610478600480360381019061047391906132de565b610f6f565b005b34801561048657600080fd5b506104a1600480360381019061049c91906132b5565b61100f565b6040516104b0939291906139bd565b60405180910390f35b3480156104c557600080fd5b506104e060048036038101906104db9190613197565b6110ed565b005b3480156104ee57600080fd5b50610509600480360381019061050491906131d3565b611103565b005b34801561051757600080fd5b50610532600480360381019061052d91906132de565b611354565b005b34801561054057600080fd5b5061055b6004803603810190610556919061311c565b611413565b005b34801561056957600080fd5b50610572611475565b60405161057f9190613a24565b60405180910390f35b34801561059457600080fd5b5061059d6116f7565b6040516105aa9190613a24565b60405180910390f35b3480156105bf57600080fd5b506105da60048036038101906105d591906132b5565b61196d565b6040516105e79190613a61565b60405180910390f35b61060a60048036038101906106059190613055565b611a14565b005b34801561061857600080fd5b50610633600480360381019061062e91906132b5565b611ecd565b604051610644959493929190613dbe565b60405180910390f35b34801561065957600080fd5b50610674600480360381019061066f919061331a565b611fb8565b005b34801561068257600080fd5b5061069d60048036038101906106989190613091565b612098565b6040516106aa9190613a46565b60405180910390f35b60007f80ac58cd000000000000000000000000000000000000000000000000000000007bffffffffffffffffffffffffffffffffffffffffffffffffffffffff1916827bffffffffffffffffffffffffffffffffffffffffffffffffffffffff1916148061077e57507f5b5e139f000000000000000000000000000000000000000000000000000000007bffffffffffffffffffffffffffffffffffffffffffffffffffffffff1916827bffffffffffffffffffffffffffffffffffffffffffffffffffffffff1916145b8061078e575061078d8261212c565b5b9050919050565b6060600080546107a4906140f5565b80601f01602080910402602001604051908101604052809291908181526020018280546107d0906140f5565b801561081d5780601f106107f25761010080835404028352916020019161081d565b820191906000526020600020905b81548152906001019060200180831161080057829003601f168201915b5050505050905090565b600061083282612196565b610871576040517f08c379a000000000000000000000000000000000000000000000000000000000815260040161086890613c83565b60405180910390fd5b6004600083815260200190815260200160002060009054906101000a900473ffffffffffffffffffffffffffffffffffffffff169050919050565b60006108b782610d1a565b90508073ffffffffffffffffffffffffffffffffffffffff168373ffffffffffffffffffffffffffffffffffffffff161415610928576040517f08c379a000000000000000000000000000000000000000000000000000000000815260040161091f90613ce3565b60405180910390fd5b8073ffffffffffffffffffffffffffffffffffffffff16610947612202565b73ffffffffffffffffffffffffffffffffffffffff161480610976575061097581610970612202565b612098565b5b6109b5576040517f08c379a00000000000000000000000000000000000000000000000000000000081526004016109ac90613ba3565b60405180910390fd5b6109bf838361220a565b505050565b6109d56109cf612202565b826122c3565b610a14576040517f08c379a0000000000000000000000000000000000000000000000000000000008152600401610a0b90613d23565b60405180910390fd5b610a1f8383836123a1565b505050565b610a3f83838360405180602001604052806000815250611413565b505050565b3373ffffffffffffffffffffffffffffffffffffffff16610a6483610d1a565b73ffffffffffffffffffffffffffffffffffffffff1614610aba576040517f08c379a0000000000000000000000000000000000000000000000000000000008152600401610ab190613ac3565b60405180910390fd5b600015156008600084815260200190815260200160002060020160009054906101000a900460ff16151514610b24576040517f08c379a0000000000000000000000000000000000000000000000000000000008152600401610b1b90613d63565b60405180910390fd5b60016008600084815260200190815260200160002060020160006101000a81548160ff021916908315150217905550806fffffffffffffffffffffffffffffffff1660086000848152602001908152602001600020600301819055505050565b600b60009054906101000a900473ffffffffffffffffffffffffffffffffffffffff1673ffffffffffffffffffffffffffffffffffffffff163373ffffffffffffffffffffffffffffffffffffffff1614610bde57600080fd5b600115156008600084815260200190815260200160002060020160009054906101000a900460ff16151514610c1257600080fd5b806fffffffffffffffffffffffffffffffff166008600084815260200190815260200160002060030154610c469190613f2c565b60086000848152602001908152602001600020600301819055505050565b610c6d82610d1a565b73ffffffffffffffffffffffffffffffffffffffff163373ffffffffffffffffffffffffffffffffffffffff1614610cda576040517f08c379a0000000000000000000000000000000000000000000000000000000008152600401610cd190613c43565b60405180910390fd5b806008600084815260200190815260200160002060030154610cfc9190613f2c565b60086000848152602001908152602001600020600301819055505050565b6000806002600084815260200190815260200160002060009054906101000a900473ffffffffffffffffffffffffffffffffffffffff169050600073ffffffffffffffffffffffffffffffffffffffff168173ffffffffffffffffffffffffffffffffffffffff161415610dc3576040517f08c379a0000000000000000000000000000000000000000000000000000000008152600401610dba90613c03565b60405180910390fd5b80915050919050565b60008073ffffffffffffffffffffffffffffffffffffffff168273ffffffffffffffffffffffffffffffffffffffff161415610e3d576040517f08c379a0000000000000000000000000000000000000000000000000000000008152600401610e3490613be3565b60405180910390fd5b600360008373ffffffffffffffffffffffffffffffffffffffff1673ffffffffffffffffffffffffffffffffffffffff168152602001908152602001600020549050919050565b60096020528060005260406000206000915054906101000a900473ffffffffffffffffffffffffffffffffffffffff1681565b600b60009054906101000a900473ffffffffffffffffffffffffffffffffffffffff1681565b606060018054610eec906140f5565b80601f0160208091040260200160405190810160405280929190818152602001828054610f18906140f5565b8015610f655780601f10610f3a57610100808354040283529160200191610f65565b820191906000526020600020905b815481529060010190602001808311610f4857829003601f168201915b5050505050905090565b610f7882610d1a565b73ffffffffffffffffffffffffffffffffffffffff163373ffffffffffffffffffffffffffffffffffffffff1614610faf57600080fd5b610fb981836108ac565b806009600084815260200190815260200160002060006101000a81548173ffffffffffffffffffffffffffffffffffffffff021916908373ffffffffffffffffffffffffffffffffffffffff1602179055505050565b600080606061101d84610d1a565b92506008600085815260200190815260200160002060020160009054906101000a900460ff169150600860008581526020019081526020016000206001018054611066906140f5565b80601f0160208091040260200160405190810160405280929190818152602001828054611092906140f5565b80156110df5780601f106110b4576101008083540402835291602001916110df565b820191906000526020600020905b8154815290600101906020018083116110c257829003601f168201915b505050505090509193909250565b6110ff6110f8612202565b83836125fd565b5050565b600b60009054906101000a900473ffffffffffffffffffffffffffffffffffffffff1673ffffffffffffffffffffffffffffffffffffffff163373ffffffffffffffffffffffffffffffffffffffff161461115d57600080fd5b6000611169600761276a565b9050806008600083815260200190815260200160002060000181905550816008600083815260200190815260200160002060010190805190602001906111b0929190612ddf565b5060006008600083815260200190815260200160002060020160006101000a81548160ff02191690831515021790555060006008600083815260200190815260200160002060030181905550826008600083815260200190815260200160002060020160016101000a81548173ffffffffffffffffffffffffffffffffffffffff021916908373ffffffffffffffffffffffffffffffffffffffff1602179055507fbe111e194ea43bdf40a48d96e7676fe1ad4f24207b119021b09114a8915202d883826040516112829291906139fb565b60405180910390a1808373ffffffffffffffffffffffffffffffffffffffff16600073ffffffffffffffffffffffffffffffffffffffff167fddf252ad1be2c89b69c2b068fc378daa952ba7f163c4a11628f55a4df523b3ef60405160405180910390a46112f08382612778565b600a60008473ffffffffffffffffffffffffffffffffffffffff1673ffffffffffffffffffffffffffffffffffffffff168152602001908152602001600020600081548092919061134090614158565b919050555061134f6007612946565b505050565b8073ffffffffffffffffffffffffffffffffffffffff166009600084815260200190815260200160002060009054906101000a900473ffffffffffffffffffffffffffffffffffffffff1673ffffffffffffffffffffffffffffffffffffffff16141561140f5760006009600084815260200190815260200160002060006101000a81548173ffffffffffffffffffffffffffffffffffffffff021916908373ffffffffffffffffffffffffffffffffffffffff1602179055505b5050565b61142461141e612202565b836122c3565b611463576040517f08c379a000000000000000000000000000000000000000000000000000000000815260040161145a90613d23565b60405180910390fd5b61146f8484848461295c565b50505050565b6060600080611484600761276a565b905060008167ffffffffffffffff8111156114c8577f4e487b7100000000000000000000000000000000000000000000000000000000600052604160045260246000fd5b60405190808252806020026020018201604052801561150157816020015b6114ee612e65565b8152602001906001900390816114e65790505b50905060005b828110156116ed573373ffffffffffffffffffffffffffffffffffffffff1661152f82610d1a565b73ffffffffffffffffffffffffffffffffffffffff1614156116da576000600860008381526020019081526020016000209050806040518060a001604052908160008201548152602001600182018054611588906140f5565b80601f01602080910402602001604051908101604052809291908181526020018280546115b4906140f5565b80156116015780601f106115d657610100808354040283529160200191611601565b820191906000526020600020905b8154815290600101906020018083116115e457829003601f168201915b505050505081526020016002820160009054906101000a900460ff161515151581526020016002820160019054906101000a900473ffffffffffffffffffffffffffffffffffffffff1673ffffffffffffffffffffffffffffffffffffffff1673ffffffffffffffffffffffffffffffffffffffff1681526020016003820154815250508386815181106116be577f4e487b7100000000000000000000000000000000000000000000000000000000600052603260045260246000fd5b60200260200101819052506001856116d69190613f2c565b9450505b80806116e590614158565b915050611507565b5080935050505090565b6060600080611706600761276a565b905060008167ffffffffffffffff81111561174a577f4e487b7100000000000000000000000000000000000000000000000000000000600052604160045260246000fd5b60405190808252806020026020018201604052801561178357816020015b611770612e65565b8152602001906001900390816117685790505b50905060005b8281101561196357600115156008600083815260200190815260200160002060020160009054906101000a900460ff1615151415611950576000600860008381526020019081526020016000209050806040518060a0016040529081600082015481526020016001820180546117fe906140f5565b80601f016020809104026020016040519081016040528092919081815260200182805461182a906140f5565b80156118775780601f1061184c57610100808354040283529160200191611877565b820191906000526020600020905b81548152906001019060200180831161185a57829003601f168201915b505050505081526020016002820160009054906101000a900460ff161515151581526020016002820160019054906101000a900473ffffffffffffffffffffffffffffffffffffffff1673ffffffffffffffffffffffffffffffffffffffff1673ffffffffffffffffffffffffffffffffffffffff168152602001600382015481525050838681518110611934577f4e487b7100000000000000000000000000000000000000000000000000000000600052603260045260246000fd5b602002602001018190525060018561194c9190613f2c565b9450505b808061195b90614158565b915050611789565b5080935050505090565b606061197882612196565b6119b7576040517f08c379a00000000000000000000000000000000000000000000000000000000081526004016119ae90613cc3565b60405180910390fd5b60006119c16129b8565b905060008151116119e15760405180602001604052806000815250611a0c565b806119eb846129cf565b6040516020016119fc929190613932565b6040516020818303038152906040525b915050919050565b60026006541415611a5a576040517f08c379a0000000000000000000000000000000000000000000000000000000008152600401611a5190613d43565b60405180910390fd5b6002600681905550611a6b81612196565b611aaa576040517f08c379a0000000000000000000000000000000000000000000000000000000008152600401611aa190613b23565b60405180910390fd5b3373ffffffffffffffffffffffffffffffffffffffff16611aca82610d1a565b73ffffffffffffffffffffffffffffffffffffffff161415611b21576040517f08c379a0000000000000000000000000000000000000000000000000000000008152600401611b1890613b03565b60405180910390fd5b600115156008600083815260200190815260200160002060020160009054906101000a900460ff16151514611b8b576040517f08c379a0000000000000000000000000000000000000000000000000000000008152600401611b8290613bc3565b60405180910390fd5b60086000828152602001908152602001600020600301543414611be3576040517f08c379a0000000000000000000000000000000000000000000000000000000008152600401611bda90613d03565b60405180910390fd5b611bed3382612b7c565b611c2c576040517f08c379a0000000000000000000000000000000000000000000000000000000008152600401611c2390613c23565b60405180910390fd5b8173ffffffffffffffffffffffffffffffffffffffff16611c4c82610d1a565b73ffffffffffffffffffffffffffffffffffffffff1614611ca2576040517f08c379a0000000000000000000000000000000000000000000000000000000008152600401611c9990613d83565b60405180910390fd5b611cb481611caf83610827565b611354565b600a60008373ffffffffffffffffffffffffffffffffffffffff1673ffffffffffffffffffffffffffffffffffffffff1681526020019081526020016000206000815480929190611d04906140cb565b9190505550600a60003373ffffffffffffffffffffffffffffffffffffffff1673ffffffffffffffffffffffffffffffffffffffff1681526020019081526020016000206000815480929190611d5990614158565b91905055508173ffffffffffffffffffffffffffffffffffffffff166108fc60086000848152602001908152602001600020600301549081150290604051600060405180830381858888f19350505050158015611dba573d6000803e3d6000fd5b5060006008600083815260200190815260200160002060020160006101000a81548160ff02191690831515021790555060006008600083815260200190815260200160002060030181905550611e118233836109c4565b336008600083815260200190815260200160002060020160016101000a81548173ffffffffffffffffffffffffffffffffffffffff021916908373ffffffffffffffffffffffffffffffffffffffff160217905550803373ffffffffffffffffffffffffffffffffffffffff168373ffffffffffffffffffffffffffffffffffffffff167fddf252ad1be2c89b69c2b068fc378daa952ba7f163c4a11628f55a4df523b3ef60405160405180910390a460016006819055505050565b6008602052806000526040600020600091509050806000015490806001018054611ef6906140f5565b80601f0160208091040260200160405190810160405280929190818152602001828054611f22906140f5565b8015611f6f5780601f10611f4457610100808354040283529160200191611f6f565b820191906000526020600020905b815481529060010190602001808311611f5257829003601f168201915b5050505050908060020160009054906101000a900460ff16908060020160019054906101000a900473ffffffffffffffffffffffffffffffffffffffff16908060030154905085565b600b60009054906101000a900473ffffffffffffffffffffffffffffffffffffffff1673ffffffffffffffffffffffffffffffffffffffff163373ffffffffffffffffffffffffffffffffffffffff161461201257600080fd5b600115156008600084815260200190815260200160002060020160009054906101000a900460ff1615151461204657600080fd5b806fffffffffffffffffffffffffffffffff16600860008481526020019081526020016000206003015461207a9190613fb3565b60086000848152602001908152602001600020600301819055505050565b6000600560008473ffffffffffffffffffffffffffffffffffffffff1673ffffffffffffffffffffffffffffffffffffffff16815260200190815260200160002060008373ffffffffffffffffffffffffffffffffffffffff1673ffffffffffffffffffffffffffffffffffffffff16815260200190815260200160002060009054906101000a900460ff16905092915050565b60007f01ffc9a7000000000000000000000000000000000000000000000000000000007bffffffffffffffffffffffffffffffffffffffffffffffffffffffff1916827bffffffffffffffffffffffffffffffffffffffffffffffffffffffff1916149050919050565b60008073ffffffffffffffffffffffffffffffffffffffff166002600084815260200190815260200160002060009054906101000a900473ffffffffffffffffffffffffffffffffffffffff1673ffffffffffffffffffffffffffffffffffffffff1614159050919050565b600033905090565b816004600083815260200190815260200160002060006101000a81548173ffffffffffffffffffffffffffffffffffffffff021916908373ffffffffffffffffffffffffffffffffffffffff160217905550808273ffffffffffffffffffffffffffffffffffffffff1661227d83610d1a565b73ffffffffffffffffffffffffffffffffffffffff167f8c5be1e5ebec7d5bd14f71427d1e84f3dd0314c0f7b2291e5b200ac8c7c3b92560405160405180910390a45050565b60006122ce82612196565b61230d576040517f08c379a000000000000000000000000000000000000000000000000000000000815260040161230490613b83565b60405180910390fd5b600061231883610d1a565b90508073ffffffffffffffffffffffffffffffffffffffff168473ffffffffffffffffffffffffffffffffffffffff16148061238757508373ffffffffffffffffffffffffffffffffffffffff1661236f84610827565b73ffffffffffffffffffffffffffffffffffffffff16145b8061239857506123978185612098565b5b91505092915050565b8273ffffffffffffffffffffffffffffffffffffffff166123c182610d1a565b73ffffffffffffffffffffffffffffffffffffffff1614612417576040517f08c379a000000000000000000000000000000000000000000000000000000000815260040161240e90613ca3565b60405180910390fd5b600073ffffffffffffffffffffffffffffffffffffffff168273ffffffffffffffffffffffffffffffffffffffff161415612487576040517f08c379a000000000000000000000000000000000000000000000000000000000815260040161247e90613b43565b60405180910390fd5b612492838383612c30565b61249d60008261220a565b6001600360008573ffffffffffffffffffffffffffffffffffffffff1673ffffffffffffffffffffffffffffffffffffffff16815260200190815260200160002060008282546124ed9190613fb3565b925050819055506001600360008473ffffffffffffffffffffffffffffffffffffffff1673ffffffffffffffffffffffffffffffffffffffff16815260200190815260200160002060008282546125449190613f2c565b92505081905550816002600083815260200190815260200160002060006101000a81548173ffffffffffffffffffffffffffffffffffffffff021916908373ffffffffffffffffffffffffffffffffffffffff160217905550808273ffffffffffffffffffffffffffffffffffffffff168473ffffffffffffffffffffffffffffffffffffffff167fddf252ad1be2c89b69c2b068fc378daa952ba7f163c4a11628f55a4df523b3ef60405160405180910390a4505050565b8173ffffffffffffffffffffffffffffffffffffffff168373ffffffffffffffffffffffffffffffffffffffff16141561266c576040517f08c379a000000000000000000000000000000000000000000000000000000000815260040161266390613b63565b60405180910390fd5b80600560008573ffffffffffffffffffffffffffffffffffffffff1673ffffffffffffffffffffffffffffffffffffffff16815260200190815260200160002060008473ffffffffffffffffffffffffffffffffffffffff1673ffffffffffffffffffffffffffffffffffffffff16815260200190815260200160002060006101000a81548160ff0219169083151502179055508173ffffffffffffffffffffffffffffffffffffffff168373ffffffffffffffffffffffffffffffffffffffff167f17307eab39ab6107e8899845ad3d59bd9653f200f220920489ca2b5937696c318360405161275d9190613a46565b60405180910390a3505050565b600081600001549050919050565b600073ffffffffffffffffffffffffffffffffffffffff168273ffffffffffffffffffffffffffffffffffffffff1614156127e8576040517f08c379a00000000000000000000000000000000000000000000000000000000081526004016127df90613c63565b60405180910390fd5b6127f181612196565b15612831576040517f08c379a000000000000000000000000000000000000000000000000000000000815260040161282890613ae3565b60405180910390fd5b61283d60008383612c30565b6001600360008473ffffffffffffffffffffffffffffffffffffffff1673ffffffffffffffffffffffffffffffffffffffff168152602001908152602001600020600082825461288d9190613f2c565b92505081905550816002600083815260200190815260200160002060006101000a81548173ffffffffffffffffffffffffffffffffffffffff021916908373ffffffffffffffffffffffffffffffffffffffff160217905550808273ffffffffffffffffffffffffffffffffffffffff16600073ffffffffffffffffffffffffffffffffffffffff167fddf252ad1be2c89b69c2b068fc378daa952ba7f163c4a11628f55a4df523b3ef60405160405180910390a45050565b6001816000016000828254019250508190555050565b6129678484846123a1565b61297384848484612c35565b6129b2576040517f08c379a00000000000000000000000000000000000000000000000000000000081526004016129a990613aa3565b60405180910390fd5b50505050565b606060405180602001604052806000815250905090565b60606000821415612a17576040518060400160405280600181526020017f30000000000000000000000000000000000000000000000000000000000000008152509050612b77565b600082905060005b60008214612a49578080612a3290614158565b915050600a82612a429190613f82565b9150612a1f565b60008167ffffffffffffffff811115612a8b577f4e487b7100000000000000000000000000000000000000000000000000000000600052604160045260246000fd5b6040519080825280601f01601f191660200182016040528015612abd5781602001600182028036833780820191505090505b5090505b60008514612b7057600182612ad69190613fb3565b9150600a85612ae591906141a1565b6030612af19190613f2c565b60f81b818381518110612b2d577f4e487b7100000000000000000000000000000000000000000000000000000000600052603260045260246000fd5b60200101907effffffffffffffffffffffffffffffffffffffffffffffffffffffffffffff1916908160001a905350600a85612b699190613f82565b9450612ac1565b8093505050505b919050565b6000612b8782612196565b612bc6576040517f08c379a0000000000000000000000000000000000000000000000000000000008152600401612bbd90613a83565b60405180910390fd5b8273ffffffffffffffffffffffffffffffffffffffff166009600084815260200190815260200160002060009054906101000a900473ffffffffffffffffffffffffffffffffffffffff1673ffffffffffffffffffffffffffffffffffffffff1614905092915050565b505050565b6000612c568473ffffffffffffffffffffffffffffffffffffffff16612dcc565b15612dbf578373ffffffffffffffffffffffffffffffffffffffff1663150b7a02612c7f612202565b8786866040518563ffffffff1660e01b8152600401612ca19493929190613971565b602060405180830381600087803b158015612cbb57600080fd5b505af1925050508015612cec57506040513d601f19601f82011682018060405250810190612ce9919061328c565b60015b612d6f573d8060008114612d1c576040519150601f19603f3d011682016040523d82523d6000602084013e612d21565b606091505b50600081511415612d67576040517f08c379a0000000000000000000000000000000000000000000000000000000008152600401612d5e90613aa3565b60405180910390fd5b805181602001fd5b63150b7a0260e01b7bffffffffffffffffffffffffffffffffffffffffffffffffffffffff1916817bffffffffffffffffffffffffffffffffffffffffffffffffffffffff191614915050612dc4565b600190505b949350505050565b600080823b905060008111915050919050565b828054612deb906140f5565b90600052602060002090601f016020900481019282612e0d5760008555612e54565b82601f10612e2657805160ff1916838001178555612e54565b82800160010185558215612e54579182015b82811115612e53578251825591602001919060010190612e38565b5b509050612e619190612eac565b5090565b6040518060a001604052806000815260200160608152602001600015158152602001600073ffffffffffffffffffffffffffffffffffffffff168152602001600081525090565b5b80821115612ec5576000816000905550600101612ead565b5090565b6000612edc612ed784613e3d565b613e18565b905082815260208101848484011115612ef457600080fd5b612eff848285614089565b509392505050565b6000612f1a612f1584613e6e565b613e18565b905082815260208101848484011115612f3257600080fd5b612f3d848285614089565b509392505050565b600081359050612f5481614842565b92915050565b600081359050612f6981614859565b92915050565b600081359050612f7e81614870565b92915050565b600081359050612f9381614887565b92915050565b600081519050612fa881614887565b92915050565b600082601f830112612fbf57600080fd5b8135612fcf848260208601612ec9565b91505092915050565b600082601f830112612fe957600080fd5b8135612ff9848260208601612f07565b91505092915050565b6000813590506130118161489e565b92915050565b600081359050613026816148b5565b92915050565b60006020828403121561303e57600080fd5b600061304c84828501612f45565b91505092915050565b6000806040838503121561306857600080fd5b600061307685828601612f5a565b925050602061308785828601613017565b9150509250929050565b600080604083850312156130a457600080fd5b60006130b285828601612f45565b92505060206130c385828601612f45565b9150509250929050565b6000806000606084860312156130e257600080fd5b60006130f086828701612f45565b935050602061310186828701612f45565b925050604061311286828701613017565b9150509250925092565b6000806000806080858703121561313257600080fd5b600061314087828801612f45565b945050602061315187828801612f45565b935050604061316287828801613017565b925050606085013567ffffffffffffffff81111561317f57600080fd5b61318b87828801612fae565b91505092959194509250565b600080604083850312156131aa57600080fd5b60006131b885828601612f45565b92505060206131c985828601612f6f565b9150509250929050565b600080604083850312156131e657600080fd5b60006131f485828601612f45565b925050602083013567ffffffffffffffff81111561321157600080fd5b61321d85828601612fd8565b9150509250929050565b6000806040838503121561323a57600080fd5b600061324885828601612f45565b925050602061325985828601613017565b9150509250929050565b60006020828403121561327557600080fd5b600061328384828501612f84565b91505092915050565b60006020828403121561329e57600080fd5b60006132ac84828501612f99565b91505092915050565b6000602082840312156132c757600080fd5b60006132d584828501613017565b91505092915050565b600080604083850312156132f157600080fd5b60006132ff85828601613017565b925050602061331085828601612f45565b9150509250929050565b6000806040838503121561332d57600080fd5b600061333b85828601613017565b925050602061334c85828601613002565b9150509250929050565b6000806040838503121561336957600080fd5b600061337785828601613017565b925050602061338885828601613017565b9150509250929050565b600061339e838361389e565b905092915050565b6133af81613fe7565b82525050565b6133be81613fe7565b82525050565b60006133cf82613eaf565b6133d98185613edd565b9350836020820285016133eb85613e9f565b8060005b8581101561342757848403895281516134088582613392565b945061341383613ed0565b925060208a019950506001810190506133ef565b50829750879550505050505092915050565b6134428161400b565b82525050565b6134518161400b565b82525050565b600061346282613eba565b61346c8185613eee565b935061347c818560208601614098565b6134858161428e565b840191505092915050565b600061349b82613ec5565b6134a58185613eff565b93506134b5818560208601614098565b6134be8161428e565b840191505092915050565b60006134d482613ec5565b6134de8185613f10565b93506134ee818560208601614098565b6134f78161428e565b840191505092915050565b600061350d82613ec5565b6135178185613f21565b9350613527818560208601614098565b80840191505092915050565b6000613540601483613f10565b915061354b8261429f565b602082019050919050565b6000613563603283613f10565b915061356e826142c8565b604082019050919050565b6000613586601283613f10565b915061359182614317565b602082019050919050565b60006135a9601c83613f10565b91506135b482614340565b602082019050919050565b60006135cc601483613f10565b91506135d782614369565b602082019050919050565b60006135ef601483613f10565b91506135fa82614392565b602082019050919050565b6000613612602483613f10565b915061361d826143bb565b604082019050919050565b6000613635601983613f10565b91506136408261440a565b602082019050919050565b6000613658602c83613f10565b915061366382614433565b604082019050919050565b600061367b603883613f10565b915061368682614482565b604082019050919050565b600061369e601683613f10565b91506136a9826144d1565b602082019050919050565b60006136c1602a83613f10565b91506136cc826144fa565b604082019050919050565b60006136e4602983613f10565b91506136ef82614549565b604082019050919050565b6000613707601283613f10565b915061371282614598565b602082019050919050565b600061372a600983613f10565b9150613735826145c1565b602082019050919050565b600061374d602083613f10565b9150613758826145ea565b602082019050919050565b6000613770602c83613f10565b915061377b82614613565b604082019050919050565b6000613793602983613f10565b915061379e82614662565b604082019050919050565b60006137b6602f83613f10565b91506137c1826146b1565b604082019050919050565b60006137d9602183613f10565b91506137e482614700565b604082019050919050565b60006137fc601583613f10565b91506138078261474f565b602082019050919050565b600061381f603183613f10565b915061382a82614778565b604082019050919050565b6000613842601f83613f10565b915061384d826147c7565b602082019050919050565b6000613865601783613f10565b9150613870826147f0565b602082019050919050565b6000613888601083613f10565b915061389382614819565b602082019050919050565b600060a0830160008301516138b66000860182613914565b50602083015184820360208601526138ce8282613490565b91505060408301516138e36040860182613439565b5060608301516138f660608601826133a6565b5060808301516139096080860182613914565b508091505092915050565b61391d8161407f565b82525050565b61392c8161407f565b82525050565b600061393e8285613502565b915061394a8284613502565b91508190509392505050565b600060208201905061396b60008301846133b5565b92915050565b600060808201905061398660008301876133b5565b61399360208301866133b5565b6139a06040830185613923565b81810360608301526139b28184613457565b905095945050505050565b60006060820190506139d260008301866133b5565b6139df6020830185613448565b81810360408301526139f181846134c9565b9050949350505050565b6000604082019050613a1060008301856133b5565b613a1d6020830184613923565b9392505050565b60006020820190508181036000830152613a3e81846133c4565b905092915050565b6000602082019050613a5b6000830184613448565b92915050565b60006020820190508181036000830152613a7b81846134c9565b905092915050565b60006020820190508181036000830152613a9c81613533565b9050919050565b60006020820190508181036000830152613abc81613556565b9050919050565b60006020820190508181036000830152613adc81613579565b9050919050565b60006020820190508181036000830152613afc8161359c565b9050919050565b60006020820190508181036000830152613b1c816135bf565b9050919050565b60006020820190508181036000830152613b3c816135e2565b9050919050565b60006020820190508181036000830152613b5c81613605565b9050919050565b60006020820190508181036000830152613b7c81613628565b9050919050565b60006020820190508181036000830152613b9c8161364b565b9050919050565b60006020820190508181036000830152613bbc8161366e565b9050919050565b60006020820190508181036000830152613bdc81613691565b9050919050565b60006020820190508181036000830152613bfc816136b4565b9050919050565b60006020820190508181036000830152613c1c816136d7565b9050919050565b60006020820190508181036000830152613c3c816136fa565b9050919050565b60006020820190508181036000830152613c5c8161371d565b9050919050565b60006020820190508181036000830152613c7c81613740565b9050919050565b60006020820190508181036000830152613c9c81613763565b9050919050565b60006020820190508181036000830152613cbc81613786565b9050919050565b60006020820190508181036000830152613cdc816137a9565b9050919050565b60006020820190508181036000830152613cfc816137cc565b9050919050565b60006020820190508181036000830152613d1c816137ef565b9050919050565b60006020820190508181036000830152613d3c81613812565b9050919050565b60006020820190508181036000830152613d5c81613835565b9050919050565b60006020820190508181036000830152613d7c81613858565b9050919050565b60006020820190508181036000830152613d9c8161387b565b9050919050565b6000602082019050613db86000830184613923565b92915050565b600060a082019050613dd36000830188613923565b8181036020830152613de581876134c9565b9050613df46040830186613448565b613e0160608301856133b5565b613e0e6080830184613923565b9695505050505050565b6000613e22613e33565b9050613e2e8282614127565b919050565b6000604051905090565b600067ffffffffffffffff821115613e5857613e5761425f565b5b613e618261428e565b9050602081019050919050565b600067ffffffffffffffff821115613e8957613e8861425f565b5b613e928261428e565b9050602081019050919050565b6000819050602082019050919050565b600081519050919050565b600081519050919050565b600081519050919050565b6000602082019050919050565b600082825260208201905092915050565b600082825260208201905092915050565b600082825260208201905092915050565b600082825260208201905092915050565b600081905092915050565b6000613f378261407f565b9150613f428361407f565b9250827fffffffffffffffffffffffffffffffffffffffffffffffffffffffffffffffff03821115613f7757613f766141d2565b5b828201905092915050565b6000613f8d8261407f565b9150613f988361407f565b925082613fa857613fa7614201565b5b828204905092915050565b6000613fbe8261407f565b9150613fc98361407f565b925082821015613fdc57613fdb6141d2565b5b828203905092915050565b6000613ff28261405f565b9050919050565b60006140048261405f565b9050919050565b60008115159050919050565b60007fffffffff0000000000000000000000000000000000000000000000000000000082169050919050565b60006fffffffffffffffffffffffffffffffff82169050919050565b600073ffffffffffffffffffffffffffffffffffffffff82169050919050565b6000819050919050565b82818337600083830152505050565b60005b838110156140b657808201518184015260208101905061409b565b838111156140c5576000848401525b50505050565b60006140d68261407f565b915060008214156140ea576140e96141d2565b5b600182039050919050565b6000600282049050600182168061410d57607f821691505b6020821081141561412157614120614230565b5b50919050565b6141308261428e565b810181811067ffffffffffffffff8211171561414f5761414e61425f565b5b80604052505050565b60006141638261407f565b91507fffffffffffffffffffffffffffffffffffffffffffffffffffffffffffffffff821415614196576141956141d2565b5b600182019050919050565b60006141ac8261407f565b91506141b78361407f565b9250826141c7576141c6614201565b5b828206905092915050565b7f4e487b7100000000000000000000000000000000000000000000000000000000600052601160045260246000fd5b7f4e487b7100000000000000000000000000000000000000000000000000000000600052601260045260246000fd5b7f4e487b7100000000000000000000000000000000000000000000000000000000600052602260045260246000fd5b7f4e487b7100000000000000000000000000000000000000000000000000000000600052604160045260246000fd5b6000601f19601f8301169050919050565b7f4e4f205375636820746f6b656e20457869737473000000000000000000000000600082015250565b7f4552433732313a207472616e7366657220746f206e6f6e20455243373231526560008201527f63656976657220696d706c656d656e7465720000000000000000000000000000602082015250565b7f4e6f74206f776e6572206f662041737365740000000000000000000000000000600082015250565b7f4552433732313a20746f6b656e20616c7265616479206d696e74656400000000600082015250565b7f20417373657420616c7265616479206f776e6564000000000000000000000000600082015250565b7f204173736574206e6f7420417661696c61626c65000000000000000000000000600082015250565b7f4552433732313a207472616e7366657220746f20746865207a65726f2061646460008201527f7265737300000000000000000000000000000000000000000000000000000000602082015250565b7f4552433732313a20617070726f766520746f2063616c6c657200000000000000600082015250565b7f4552433732313a206f70657261746f7220717565727920666f72206e6f6e657860008201527f697374656e7420746f6b656e0000000000000000000000000000000000000000602082015250565b7f4552433732313a20617070726f76652063616c6c6572206973206e6f74206f7760008201527f6e6572206e6f7220617070726f76656420666f7220616c6c0000000000000000602082015250565b7f4e6f7420617669616c62656c6520666f722053616c6500000000000000000000600082015250565b7f4552433732313a2062616c616e636520717565727920666f7220746865207a6560008201527f726f206164647265737300000000000000000000000000000000000000000000602082015250565b7f4552433732313a206f776e657220717565727920666f72206e6f6e657869737460008201527f656e7420746f6b656e0000000000000000000000000000000000000000000000602082015250565b7f4e6f7420417070726f7665642042757965720000000000000000000000000000600082015250565b7f4e6f74614d61796f720000000000000000000000000000000000000000000000600082015250565b7f4552433732313a206d696e7420746f20746865207a65726f2061646472657373600082015250565b7f4552433732313a20617070726f76656420717565727920666f72206e6f6e657860008201527f697374656e7420746f6b656e0000000000000000000000000000000000000000602082015250565b7f4552433732313a207472616e73666572206f6620746f6b656e2074686174206960008201527f73206e6f74206f776e0000000000000000000000000000000000000000000000602082015250565b7f4552433732314d657461646174613a2055524920717565727920666f72206e6f60008201527f6e6578697374656e7420746f6b656e0000000000000000000000000000000000602082015250565b7f4552433732313a20617070726f76616c20746f2063757272656e74206f776e6560008201527f7200000000000000000000000000000000000000000000000000000000000000602082015250565b7f56616c7565206c657373207468616e2070726963650000000000000000000000600082015250565b7f4552433732313a207472616e736665722063616c6c6572206973206e6f74206f60008201527f776e6572206e6f7220617070726f766564000000000000000000000000000000602082015250565b7f5265656e7472616e637947756172643a207265656e7472616e742063616c6c00600082015250565b7f416c7265616479204c697374656420466f722053616c65000000000000000000600082015250565b7f4e6f7454686561737365744f776e657200000000000000000000000000000000600082015250565b61484b81613fe7565b811461485657600080fd5b50565b61486281613ff9565b811461486d57600080fd5b50565b6148798161400b565b811461488457600080fd5b50565b61489081614017565b811461489b57600080fd5b50565b6148a781614043565b81146148b257600080fd5b50565b6148be8161407f565b81146148c957600080fd5b5056fea26469706673582212207d4e1de0627950bf9cafb122586cdc3fb7d5bba672dc4540755f2f70001b98c964736f6c63430008030033",
  "immutableReferences": {},
  "source": "//SPDX-License-Identifier: Unlicense\r\n\r\npragma solidity 0.8.3;\r\n\r\nimport \"@openzeppelin/contracts/token/ERC721/ERC721.sol\";\r\nimport \"@openzeppelin/contracts/utils/Counters.sol\";\r\nimport \"@openzeppelin/contracts/security/ReentrancyGuard.sol\";\r\n\r\n/// @title Real Estate Tokenisation and Markrtplace\r\n/// @author Auqib Hamid Lone\r\n/// @dev This contract allows Mayor to register Users property by minting  NFT and  a marketplace for users to sell and buy registered RealEsatet as NFTS.\r\n/// @dev Inherits ReentrancyGuard which is deployed on buy() function.\r\n/// @dev Uses Counters library for tracking asset IDs for the NFTS .\r\n\r\ncontract RealEstate is ERC721, ReentrancyGuard {\r\n    using Counters for Counters.Counter;\r\n    Counters.Counter private _assetId;\r\n\r\n    struct Asset {\r\n        uint256 assetID;\r\n        string _type;\r\n        bool avlToBuy;\r\n        address owner;\r\n        uint256 price;\r\n    }\r\n\r\n    // Mappings\r\n    mapping(uint256 => Asset) public assets;\r\n    // mapping(uint256=>address) private assetOwner;\r\n    mapping(uint256 => address) public assetApprovedToSellTo;\r\n    mapping(address => uint256) private totalAssetsOwned;\r\n\r\n    event assetRegistered(address onwer, uint256 assetID);\r\n\r\n    address public cityMayor;\r\n\r\n    constructor()   ERC721(\"Real Estate Tokensiation\", \"PEST\")  {\r\n        cityMayor = msg.sender;\r\n    }\r\n\r\n    modifier onlyMayor() {\r\n        require(msg.sender == cityMayor);\r\n        _;\r\n    }\r\n\r\n    /// @notice Registers Real Estate and  Mints a new PEST NFT token corresponding to Regstered Real Estate.\r\n    /// @dev Triggers an event with Asset Id and Owner of NFT\r\n\r\n    function registerAsset(address owner, string memory _type)\r\n        public\r\n        onlyMayor\r\n    {\r\n        uint256 assetCount = _assetId.current();\r\n        assets[assetCount].assetID = assetCount;\r\n        assets[assetCount]._type = _type;\r\n        assets[assetCount].avlToBuy = false;\r\n        assets[assetCount].price = 0;\r\n\r\n        assets[assetCount].owner = owner;\r\n        emit assetRegistered(owner, assetCount);\r\n        emit Transfer(address(0), owner, assetCount);\r\n        _mint(owner, assetCount);\r\n        totalAssetsOwned[owner]++;\r\n        _assetId.increment();\r\n    }\r\n///    @param id AssetID of Asset.\r\n///    @return owner Owner of Address.\r\n///    @return canBuy Available for buying.\r\n///    @return _type Asset Type.\r\n///    \r\n    function getAssetDetails(uint256 id) public  view\r\n        returns (\r\n            address owner,\r\n            bool canBuy,\r\n            string memory _type\r\n        )\r\n    {\r\n        owner = ownerOf(id);\r\n        canBuy = assets[id].avlToBuy;\r\n        _type = assets[id]._type;\r\n    }\r\n\r\n    /// @dev Fetch details of all Assets owned by Address (Owner)\r\n    /// @return  All  details of the Assets  as Asset[] owned by address\r\n    function fetchMyAssets() public view returns (Asset[] memory) {\r\n        uint256 currentIndex = 0;\r\n        uint256 assetCount = _assetId.current();\r\n        Asset[] memory items = new Asset[](assetCount);\r\n        for (uint256 i = 0; i < assetCount; i++) {\r\n            if (ownerOf(i) == msg.sender) {\r\n                Asset storage currentItem = assets[i];\r\n                items[currentIndex] = currentItem;\r\n                currentIndex += 1;\r\n            }\r\n        }\r\n        return items;\r\n    }\r\n\r\n    /// @dev Fetch details of all Assets avialable for sale\r\n    /// @return  All  details of the  Assets avialable for sale\r\n    function fetchAllAssetsForSale() public view returns (Asset[] memory) {\r\n        uint256 currentIndex = 0;\r\n        uint256 assetCount = _assetId.current();\r\n        Asset[] memory items = new Asset[](assetCount);\r\n        for (uint256 i = 0; i < assetCount; i++) {\r\n            if (assets[i].avlToBuy == true) {\r\n                Asset storage currentItem = assets[i];\r\n                items[currentIndex] = currentItem;\r\n                currentIndex += 1;\r\n            }\r\n        }\r\n        return items;\r\n    }\r\n\r\n    /// @dev Sets price of the Assets and lists them for sale\r\n\r\n    function setForSale(uint256 assetID, uint128 price) public {\r\n        require(ownerOf(assetID) == msg.sender, \"Not owner of Asset\");\r\n        require(assets[assetID].avlToBuy == false, \"Already Listed For Sale\");\r\n        assets[assetID].avlToBuy = true;\r\n        assets[assetID].price = price;\r\n    }\r\n\r\n    /// @dev Allows Owners to increase price  of owned  Assets\r\n\r\n    function renuvate(uint256 assetId, uint256 value) public {\r\n        require(msg.sender == ownerOf(assetId), \"NotaMayor\");\r\n        assets[assetId].price = assets[assetId].price + value;\r\n    }\r\n\r\n    /// @dev Allows Mayor  to increase price  of   Assets as part of Appreciation\r\n    function appreciate(uint256 assetId, uint128 value) public onlyMayor {\r\n        require( assets[assetId].avlToBuy==true);\r\n        assets[assetId].price = assets[assetId].price + value;\r\n    }\r\n\r\n    /// @dev Allows Mayor  to decraese price  of   Assets as part of Depreciation\r\n    function depreciate(uint256 assetId, uint128 value) public onlyMayor {\r\n        require( assets[assetId].avlToBuy==true);\r\n        assets[assetId].price = assets[assetId].price - value;\r\n    }\r\n\r\n    /// @dev Approves Buyer to buy asset\r\n    function approveBuyer(uint256 assetId, address buyer) public {\r\n        require(msg.sender == ownerOf(assetId));\r\n        approve(buyer, assetId);\r\n        assetApprovedToSellTo[assetId] = buyer;\r\n    }\r\n\r\n    /// @dev Clears the Approval of Buyer on  asset\r\n    function clearBuyerApproval(uint256 assetId, address approved) public {\r\n        if (assetApprovedToSellTo[assetId] == approved) {\r\n            assetApprovedToSellTo[assetId] = address(0);\r\n        }\r\n    }\r\n\r\n    /// @dev Allows approved buyers to buy assets from Market Place\r\n    function buy(address payable from, uint256 assetId)\r\n        public\r\n        payable\r\n        nonReentrant\r\n    {\r\n        require(_exists(assetId), \" Asset not Available\");\r\n        require(ownerOf(assetId) != msg.sender, \" Asset already owned\");\r\n        require(assets[assetId].avlToBuy == true, \"Not avialbele for Sale\");\r\n        require(msg.value == (assets[assetId].price), \"Value less than price\");\r\n        require(isApproved(msg.sender, assetId), \"Not Approved Buyer\");\r\n        require(ownerOf(assetId) == from, \"NotTheassetOwner\");\r\n        clearBuyerApproval(assetId, getApproved(assetId));\r\n        totalAssetsOwned[from]--;\r\n        totalAssetsOwned[msg.sender]++;\r\n        from.transfer(assets[assetId].price);\r\n        assets[assetId].avlToBuy = false;\r\n        assets[assetId].price = 0;\r\n        transferFrom(from, msg.sender, assetId);\r\n        assets[assetId].owner = msg.sender;\r\n        emit Transfer(from, msg.sender, assetId);\r\n    }\r\n\r\n    /// @dev Checks whether Buyer is approved\r\n    function isApproved(address spender, uint256 assetId)\r\n        internal\r\n        view\r\n        returns (bool)\r\n    {\r\n        require(_exists(assetId), \"NO Such token Exists\");\r\n\r\n        return (assetApprovedToSellTo[assetId] == spender);\r\n    }\r\n\r\n    /// @dev receive() and fallback() functions to allow the contract to receive ETH and data\r\n    receive() external payable {}\r\n\r\n    fallback() external payable {}\r\n}\r\n",
  "sourcePath": "E:\\Blokchain-Gen\\BootCamp\\blockchain-developer-bootcamp-final-project\\contracts\\RealEstate.sol",
  "compiler": {
    "name": "solc",
    "version": "0.8.3+commit.8d00100c.Emscripten.clang"
  },
  "schemaVersion": "3.4.3",
  "updatedAt": "2021-11-27T14:49:34.442Z",
  "networkType": "ethereum",
  "devdoc": {
    "author": "Auqib Hamid Lone",
    "details": "This contract allows Mayor to register Users property by minting  NFT and  a marketplace for users to sell and buy registered RealEsatet as NFTS.Inherits ReentrancyGuard which is deployed on buy() function.Uses Counters library for tracking asset IDs for the NFTS .",
    "kind": "dev",
    "methods": {
      "appreciate(uint256,uint128)": {
        "details": "Allows Mayor  to increase price  of   Assets as part of Appreciation"
      },
      "approve(address,uint256)": {
        "details": "See {IERC721-approve}."
      },
      "approveBuyer(uint256,address)": {
        "details": "Approves Buyer to buy asset"
      },
      "balanceOf(address)": {
        "details": "See {IERC721-balanceOf}."
      },
      "buy(address,uint256)": {
        "details": "Allows approved buyers to buy assets from Market Place"
      },
      "clearBuyerApproval(uint256,address)": {
        "details": "Clears the Approval of Buyer on  asset"
      },
      "depreciate(uint256,uint128)": {
        "details": "Allows Mayor  to decraese price  of   Assets as part of Depreciation"
      },
      "fetchAllAssetsForSale()": {
        "details": "Fetch details of all Assets avialable for sale",
        "returns": {
          "_0": "All  details of the  Assets avialable for sale"
        }
      },
      "fetchMyAssets()": {
        "details": "Fetch details of all Assets owned by Address (Owner)",
        "returns": {
          "_0": "All  details of the Assets  as Asset[] owned by address"
        }
      },
      "getApproved(uint256)": {
        "details": "See {IERC721-getApproved}."
      },
      "getAssetDetails(uint256)": {
        "params": {
          "id": "AssetID of Asset."
        },
        "returns": {
          "_type": "Asset Type.    ",
          "canBuy": "Available for buying.",
          "owner": "Owner of Address."
        }
      },
      "isApprovedForAll(address,address)": {
        "details": "See {IERC721-isApprovedForAll}."
      },
      "name()": {
        "details": "See {IERC721Metadata-name}."
      },
      "ownerOf(uint256)": {
        "details": "See {IERC721-ownerOf}."
      },
      "registerAsset(address,string)": {
        "details": "Triggers an event with Asset Id and Owner of NFT"
      },
      "renuvate(uint256,uint256)": {
        "details": "Allows Owners to increase price  of owned  Assets"
      },
      "safeTransferFrom(address,address,uint256)": {
        "details": "See {IERC721-safeTransferFrom}."
      },
      "safeTransferFrom(address,address,uint256,bytes)": {
        "details": "See {IERC721-safeTransferFrom}."
      },
      "setApprovalForAll(address,bool)": {
        "details": "See {IERC721-setApprovalForAll}."
      },
      "setForSale(uint256,uint128)": {
        "details": "Sets price of the Assets and lists them for sale"
      },
      "supportsInterface(bytes4)": {
        "details": "See {IERC165-supportsInterface}."
      },
      "symbol()": {
        "details": "See {IERC721Metadata-symbol}."
      },
      "tokenURI(uint256)": {
        "details": "See {IERC721Metadata-tokenURI}."
      },
      "transferFrom(address,address,uint256)": {
        "details": "See {IERC721-transferFrom}."
      }
    },
    "title": "Real Estate Tokenisation and Markrtplace",
    "version": 1
  },
  "userdoc": {
    "kind": "user",
    "methods": {
      "registerAsset(address,string)": {
        "notice": "Registers Real Estate and  Mints a new PEST NFT token corresponding to Regstered Real Estate."
      }
    },
    "version": 1
  }
}