{
  "contractName": "RealEstate",
  "abi": [
    {
      "inputs": [],
      "stateMutability": "nonpayable",
      "type": "constructor"
    },
    {
      "anonymous": false,
      "inputs": [
        {
          "indexed": true,
          "internalType": "address",
          "name": "owner",
          "type": "address"
        },
        {
          "indexed": true,
          "internalType": "address",
          "name": "approved",
          "type": "address"
        },
        {
          "indexed": true,
          "internalType": "uint256",
          "name": "tokenId",
          "type": "uint256"
        }
      ],
      "name": "Approval",
      "type": "event"
    },
    {
      "anonymous": false,
      "inputs": [
        {
          "indexed": true,
          "internalType": "address",
          "name": "owner",
          "type": "address"
        },
        {
          "indexed": true,
          "internalType": "address",
          "name": "operator",
          "type": "address"
        },
        {
          "indexed": false,
          "internalType": "bool",
          "name": "approved",
          "type": "bool"
        }
      ],
      "name": "ApprovalForAll",
      "type": "event"
    },
    {
      "anonymous": false,
      "inputs": [
        {
          "indexed": true,
          "internalType": "address",
          "name": "from",
          "type": "address"
        },
        {
          "indexed": true,
          "internalType": "address",
          "name": "to",
          "type": "address"
        },
        {
          "indexed": true,
          "internalType": "uint256",
          "name": "tokenId",
          "type": "uint256"
        }
      ],
      "name": "Transfer",
      "type": "event"
    },
    {
      "anonymous": false,
      "inputs": [
        {
          "indexed": false,
          "internalType": "address",
          "name": "onwer",
          "type": "address"
        },
        {
          "indexed": false,
          "internalType": "uint256",
          "name": "assetID",
          "type": "uint256"
        }
      ],
      "name": "assetRegistered",
      "type": "event"
    },
    {
      "stateMutability": "payable",
      "type": "fallback",
      "payable": true
    },
    {
      "inputs": [
        {
          "internalType": "address",
          "name": "to",
          "type": "address"
        },
        {
          "internalType": "uint256",
          "name": "tokenId",
          "type": "uint256"
        }
      ],
      "name": "approve",
      "outputs": [],
      "stateMutability": "nonpayable",
      "type": "function"
    },
    {
      "inputs": [
        {
          "internalType": "uint256",
          "name": "",
          "type": "uint256"
        }
      ],
      "name": "assetApprovedToSellTo",
      "outputs": [
        {
          "internalType": "address",
          "name": "",
          "type": "address"
        }
      ],
      "stateMutability": "view",
      "type": "function",
      "constant": true
    },
    {
      "inputs": [
        {
          "internalType": "uint256",
          "name": "",
          "type": "uint256"
        }
      ],
      "name": "assets",
      "outputs": [
        {
          "internalType": "uint256",
          "name": "assetID",
          "type": "uint256"
        },
        {
          "internalType": "string",
          "name": "_type",
          "type": "string"
        },
        {
          "internalType": "bool",
          "name": "avlToBuy",
          "type": "bool"
        },
        {
          "internalType": "address",
          "name": "owner",
          "type": "address"
        },
        {
          "internalType": "uint256",
          "name": "price",
          "type": "uint256"
        }
      ],
      "stateMutability": "view",
      "type": "function",
      "constant": true
    },
    {
      "inputs": [
        {
          "internalType": "address",
          "name": "owner",
          "type": "address"
        }
      ],
      "name": "balanceOf",
      "outputs": [
        {
          "internalType": "uint256",
          "name": "",
          "type": "uint256"
        }
      ],
      "stateMutability": "view",
      "type": "function",
      "constant": true
    },
    {
      "inputs": [],
      "name": "cityMayor",
      "outputs": [
        {
          "internalType": "address",
          "name": "",
          "type": "address"
        }
      ],
      "stateMutability": "view",
      "type": "function",
      "constant": true
    },
    {
      "inputs": [
        {
          "internalType": "uint256",
          "name": "tokenId",
          "type": "uint256"
        }
      ],
      "name": "getApproved",
      "outputs": [
        {
          "internalType": "address",
          "name": "",
          "type": "address"
        }
      ],
      "stateMutability": "view",
      "type": "function",
      "constant": true
    },
    {
      "inputs": [
        {
          "internalType": "address",
          "name": "owner",
          "type": "address"
        },
        {
          "internalType": "address",
          "name": "operator",
          "type": "address"
        }
      ],
      "name": "isApprovedForAll",
      "outputs": [
        {
          "internalType": "bool",
          "name": "",
          "type": "bool"
        }
      ],
      "stateMutability": "view",
      "type": "function",
      "constant": true
    },
    {
      "inputs": [],
      "name": "name",
      "outputs": [
        {
          "internalType": "string",
          "name": "",
          "type": "string"
        }
      ],
      "stateMutability": "view",
      "type": "function",
      "constant": true
    },
    {
      "inputs": [
        {
          "internalType": "uint256",
          "name": "tokenId",
          "type": "uint256"
        }
      ],
      "name": "ownerOf",
      "outputs": [
        {
          "internalType": "address",
          "name": "",
          "type": "address"
        }
      ],
      "stateMutability": "view",
      "type": "function",
      "constant": true
    },
    {
      "inputs": [
        {
          "internalType": "address",
          "name": "from",
          "type": "address"
        },
        {
          "internalType": "address",
          "name": "to",
          "type": "address"
        },
        {
          "internalType": "uint256",
          "name": "tokenId",
          "type": "uint256"
        }
      ],
      "name": "safeTransferFrom",
      "outputs": [],
      "stateMutability": "nonpayable",
      "type": "function"
    },
    {
      "inputs": [
        {
          "internalType": "address",
          "name": "from",
          "type": "address"
        },
        {
          "internalType": "address",
          "name": "to",
          "type": "address"
        },
        {
          "internalType": "uint256",
          "name": "tokenId",
          "type": "uint256"
        },
        {
          "internalType": "bytes",
          "name": "_data",
          "type": "bytes"
        }
      ],
      "name": "safeTransferFrom",
      "outputs": [],
      "stateMutability": "nonpayable",
      "type": "function"
    },
    {
      "inputs": [
        {
          "internalType": "address",
          "name": "operator",
          "type": "address"
        },
        {
          "internalType": "bool",
          "name": "approved",
          "type": "bool"
        }
      ],
      "name": "setApprovalForAll",
      "outputs": [],
      "stateMutability": "nonpayable",
      "type": "function"
    },
    {
      "inputs": [
        {
          "internalType": "bytes4",
          "name": "interfaceId",
          "type": "bytes4"
        }
      ],
      "name": "supportsInterface",
      "outputs": [
        {
          "internalType": "bool",
          "name": "",
          "type": "bool"
        }
      ],
      "stateMutability": "view",
      "type": "function",
      "constant": true
    },
    {
      "inputs": [],
      "name": "symbol",
      "outputs": [
        {
          "internalType": "string",
          "name": "",
          "type": "string"
        }
      ],
      "stateMutability": "view",
      "type": "function",
      "constant": true
    },
    {
      "inputs": [
        {
          "internalType": "uint256",
          "name": "tokenId",
          "type": "uint256"
        }
      ],
      "name": "tokenURI",
      "outputs": [
        {
          "internalType": "string",
          "name": "",
          "type": "string"
        }
      ],
      "stateMutability": "view",
      "type": "function",
      "constant": true
    },
    {
      "inputs": [
        {
          "internalType": "address",
          "name": "from",
          "type": "address"
        },
        {
          "internalType": "address",
          "name": "to",
          "type": "address"
        },
        {
          "internalType": "uint256",
          "name": "tokenId",
          "type": "uint256"
        }
      ],
      "name": "transferFrom",
      "outputs": [],
      "stateMutability": "nonpayable",
      "type": "function"
    },
    {
      "stateMutability": "payable",
      "type": "receive",
      "payable": true
    },
    {
      "inputs": [
        {
          "internalType": "address",
          "name": "owner",
          "type": "address"
        },
        {
          "internalType": "string",
          "name": "_type",
          "type": "string"
        }
      ],
      "name": "registerAsset",
      "outputs": [],
      "stateMutability": "nonpayable",
      "type": "function"
    },
    {
      "inputs": [
        {
          "internalType": "uint256",
          "name": "id",
          "type": "uint256"
        }
      ],
      "name": "getAssetDetails",
      "outputs": [
        {
          "internalType": "address",
          "name": "owner",
          "type": "address"
        },
        {
          "internalType": "bool",
          "name": "canBuy",
          "type": "bool"
        },
        {
          "internalType": "string",
          "name": "_type",
          "type": "string"
        }
      ],
      "stateMutability": "view",
      "type": "function",
      "constant": true
    },
    {
      "inputs": [],
      "name": "fetchMyAssets",
      "outputs": [
        {
          "components": [
            {
              "internalType": "uint256",
              "name": "assetID",
              "type": "uint256"
            },
            {
              "internalType": "string",
              "name": "_type",
              "type": "string"
            },
            {
              "internalType": "bool",
              "name": "avlToBuy",
              "type": "bool"
            },
            {
              "internalType": "address",
              "name": "owner",
              "type": "address"
            },
            {
              "internalType": "uint256",
              "name": "price",
              "type": "uint256"
            }
          ],
          "internalType": "struct RealEstate.Asset[]",
          "name": "",
          "type": "tuple[]"
        }
      ],
      "stateMutability": "view",
      "type": "function",
      "constant": true
    },
    {
      "inputs": [],
      "name": "fetchAllAssetsForSale",
      "outputs": [
        {
          "components": [
            {
              "internalType": "uint256",
              "name": "assetID",
              "type": "uint256"
            },
            {
              "internalType": "string",
              "name": "_type",
              "type": "string"
            },
            {
              "internalType": "bool",
              "name": "avlToBuy",
              "type": "bool"
            },
            {
              "internalType": "address",
              "name": "owner",
              "type": "address"
            },
            {
              "internalType": "uint256",
              "name": "price",
              "type": "uint256"
            }
          ],
          "internalType": "struct RealEstate.Asset[]",
          "name": "",
          "type": "tuple[]"
        }
      ],
      "stateMutability": "view",
      "type": "function",
      "constant": true
    },
    {
      "inputs": [
        {
          "internalType": "uint256",
          "name": "assetID",
          "type": "uint256"
        },
        {
          "internalType": "uint128",
          "name": "price",
          "type": "uint128"
        }
      ],
      "name": "setForSale",
      "outputs": [],
      "stateMutability": "nonpayable",
      "type": "function"
    },
    {
      "inputs": [
        {
          "internalType": "uint256",
          "name": "assetId",
          "type": "uint256"
        },
        {
          "internalType": "uint256",
          "name": "value",
          "type": "uint256"
        }
      ],
      "name": "renuvate",
      "outputs": [],
      "stateMutability": "nonpayable",
      "type": "function"
    },
    {
      "inputs": [
        {
          "internalType": "uint256",
          "name": "assetId",
          "type": "uint256"
        },
        {
          "internalType": "uint128",
          "name": "value",
          "type": "uint128"
        }
      ],
      "name": "appreciate",
      "outputs": [],
      "stateMutability": "nonpayable",
      "type": "function"
    },
    {
      "inputs": [
        {
          "internalType": "uint256",
          "name": "assetId",
          "type": "uint256"
        },
        {
          "internalType": "uint128",
          "name": "value",
          "type": "uint128"
        }
      ],
      "name": "depreciate",
      "outputs": [],
      "stateMutability": "nonpayable",
      "type": "function"
    },
    {
      "inputs": [
        {
          "internalType": "uint256",
          "name": "assetId",
          "type": "uint256"
        },
        {
          "internalType": "address",
          "name": "buyer",
          "type": "address"
        }
      ],
      "name": "approveBuyer",
      "outputs": [],
      "stateMutability": "nonpayable",
      "type": "function"
    },
    {
      "inputs": [
        {
          "internalType": "uint256",
          "name": "assetId",
          "type": "uint256"
        },
        {
          "internalType": "address",
          "name": "approved",
          "type": "address"
        }
      ],
      "name": "clearBuyerApproval",
      "outputs": [],
      "stateMutability": "nonpayable",
      "type": "function"
    },
    {
      "inputs": [
        {
          "internalType": "address payable",
          "name": "from",
          "type": "address"
        },
        {
          "internalType": "uint256",
          "name": "assetId",
          "type": "uint256"
        }
      ],
      "name": "buy",
      "outputs": [],
      "stateMutability": "payable",
      "type": "function",
      "payable": true
    }
  ],
  "bytecode": "0x60806040523480156200001157600080fd5b506040518060400160405280601881526020017f5265616c2045737461746520546f6b656e73696174696f6e00000000000000008152506040518060400160405280600481526020017f504553540000000000000000000000000000000000000000000000000000000081525081600090805190602001906200009692919062000101565b508060019080519060200190620000af92919062000101565b505050600160068190555033600b60006101000a81548173ffffffffffffffffffffffffffffffffffffffff021916908373ffffffffffffffffffffffffffffffffffffffff16021790555062000216565b8280546200010f90620001b1565b90600052602060002090601f0160209004810192826200013357600085556200017f565b82601f106200014e57805160ff19168380011785556200017f565b828001600101855582156200017f579182015b828111156200017e57825182559160200191906001019062000161565b5b5090506200018e919062000192565b5090565b5b80821115620001ad57600081600090555060010162000193565b5090565b60006002820490506001821680620001ca57607f821691505b60208210811415620001e157620001e0620001e7565b5b50919050565b7f4e487b7100000000000000000000000000000000000000000000000000000000600052602260045260246000fd5b61489880620002266000396000f3fe6080604052600436106101a05760003560e01c806395d89b41116100ec578063bbf998861161008a578063cce7ec1311610064578063cce7ec13146105f0578063cf35bdd01461060c578063e450fbc21461064d578063e985e9c514610676576101a7565b8063bbf998861461055d578063c120ac2d14610588578063c87b56dd146105b3576101a7565b8063a22cb465116100c6578063a22cb465146104b9578063b4a5a983146104e2578063b7007ca91461050b578063b88d4fde14610534576101a7565b806395d89b41146104265780639d8ede9714610451578063a1f24b3d1461047a576101a7565b80634440bb5c116101595780636352211e116101335780636352211e1461034457806370a08231146103815780638151880f146103be57806394f4b8bf146103fb576101a7565b80634440bb5c146102c957806344adbebe146102f257806357291d421461031b576101a7565b806301ffc9a7146101a957806306fdde03146101e6578063081812fc14610211578063095ea7b31461024e57806323b872dd1461027757806342842e0e146102a0576101a7565b366101a757005b005b3480156101b557600080fd5b506101d060048036038101906101cb91906131f9565b6106b3565b6040516101dd91906139dc565b60405180910390f35b3480156101f257600080fd5b506101fb610795565b60405161020891906139f7565b60405180910390f35b34801561021d57600080fd5b506102386004803603810190610233919061324b565b610827565b60405161024591906138ec565b60405180910390f35b34801561025a57600080fd5b50610275600480360381019061027091906131bd565b6108ac565b005b34801561028357600080fd5b5061029e60048036038101906102999190613063565b6109c4565b005b3480156102ac57600080fd5b506102c760048036038101906102c29190613063565b610a24565b005b3480156102d557600080fd5b506102f060048036038101906102eb91906132b0565b610a44565b005b3480156102fe57600080fd5b50610319600480360381019061031491906132b0565b610b84565b005b34801561032757600080fd5b50610342600480360381019061033d91906132ec565b610c30565b005b34801561035057600080fd5b5061036b6004803603810190610366919061324b565b610ce6565b60405161037891906138ec565b60405180910390f35b34801561038d57600080fd5b506103a860048036038101906103a39190612fc2565b610d98565b6040516103b59190613d39565b60405180910390f35b3480156103ca57600080fd5b506103e560048036038101906103e0919061324b565b610e50565b6040516103f291906138ec565b60405180910390f35b34801561040757600080fd5b50610410610e83565b60405161041d91906138ec565b60405180910390f35b34801561043257600080fd5b5061043b610ea9565b60405161044891906139f7565b60405180910390f35b34801561045d57600080fd5b5061047860048036038101906104739190613274565b610f3b565b005b34801561048657600080fd5b506104a1600480360381019061049c919061324b565b610fdb565b6040516104b093929190613953565b60405180910390f35b3480156104c557600080fd5b506104e060048036038101906104db919061312d565b6110b9565b005b3480156104ee57600080fd5b5061050960048036038101906105049190613169565b61123a565b005b34801561051757600080fd5b50610532600480360381019061052d9190613274565b61148b565b005b34801561054057600080fd5b5061055b600480360381019061055691906130b2565b61154a565b005b34801561056957600080fd5b506105726115ac565b60405161057f91906139ba565b60405180910390f35b34801561059457600080fd5b5061059d61182e565b6040516105aa91906139ba565b60405180910390f35b3480156105bf57600080fd5b506105da60048036038101906105d5919061324b565b611aa4565b6040516105e791906139f7565b60405180910390f35b61060a60048036038101906106059190612feb565b611b4b565b005b34801561061857600080fd5b50610633600480360381019061062e919061324b565b612004565b604051610644959493929190613d54565b60405180910390f35b34801561065957600080fd5b50610674600480360381019061066f91906132b0565b6120ef565b005b34801561068257600080fd5b5061069d60048036038101906106989190613027565b61219b565b6040516106aa91906139dc565b60405180910390f35b60007f80ac58cd000000000000000000000000000000000000000000000000000000007bffffffffffffffffffffffffffffffffffffffffffffffffffffffff1916827bffffffffffffffffffffffffffffffffffffffffffffffffffffffff1916148061077e57507f5b5e139f000000000000000000000000000000000000000000000000000000007bffffffffffffffffffffffffffffffffffffffffffffffffffffffff1916827bffffffffffffffffffffffffffffffffffffffffffffffffffffffff1916145b8061078e575061078d8261222f565b5b9050919050565b6060600080546107a49061408b565b80601f01602080910402602001604051908101604052809291908181526020018280546107d09061408b565b801561081d5780601f106107f25761010080835404028352916020019161081d565b820191906000526020600020905b81548152906001019060200180831161080057829003601f168201915b5050505050905090565b600061083282612299565b610871576040517f08c379a000000000000000000000000000000000000000000000000000000000815260040161086890613c19565b60405180910390fd5b6004600083815260200190815260200160002060009054906101000a900473ffffffffffffffffffffffffffffffffffffffff169050919050565b60006108b782610ce6565b90508073ffffffffffffffffffffffffffffffffffffffff168373ffffffffffffffffffffffffffffffffffffffff161415610928576040517f08c379a000000000000000000000000000000000000000000000000000000000815260040161091f90613c79565b60405180910390fd5b8073ffffffffffffffffffffffffffffffffffffffff16610947612305565b73ffffffffffffffffffffffffffffffffffffffff161480610976575061097581610970612305565b61219b565b5b6109b5576040517f08c379a00000000000000000000000000000000000000000000000000000000081526004016109ac90613b39565b60405180910390fd5b6109bf838361230d565b505050565b6109d56109cf612305565b826123c6565b610a14576040517f08c379a0000000000000000000000000000000000000000000000000000000008152600401610a0b90613cb9565b60405180910390fd5b610a1f8383836124a4565b505050565b610a3f8383836040518060200160405280600081525061154a565b505050565b3373ffffffffffffffffffffffffffffffffffffffff16610a6483610ce6565b73ffffffffffffffffffffffffffffffffffffffff1614610aba576040517f08c379a0000000000000000000000000000000000000000000000000000000008152600401610ab190613a59565b60405180910390fd5b600015156008600084815260200190815260200160002060020160009054906101000a900460ff16151514610b24576040517f08c379a0000000000000000000000000000000000000000000000000000000008152600401610b1b90613cf9565b60405180910390fd5b60016008600084815260200190815260200160002060020160006101000a81548160ff021916908315150217905550806fffffffffffffffffffffffffffffffff1660086000848152602001908152602001600020600301819055505050565b600b60009054906101000a900473ffffffffffffffffffffffffffffffffffffffff1673ffffffffffffffffffffffffffffffffffffffff163373ffffffffffffffffffffffffffffffffffffffff1614610bde57600080fd5b806fffffffffffffffffffffffffffffffff166008600084815260200190815260200160002060030154610c129190613ec2565b60086000848152602001908152602001600020600301819055505050565b610c3982610ce6565b73ffffffffffffffffffffffffffffffffffffffff163373ffffffffffffffffffffffffffffffffffffffff1614610ca6576040517f08c379a0000000000000000000000000000000000000000000000000000000008152600401610c9d90613bd9565b60405180910390fd5b806008600084815260200190815260200160002060030154610cc89190613ec2565b60086000848152602001908152602001600020600301819055505050565b6000806002600084815260200190815260200160002060009054906101000a900473ffffffffffffffffffffffffffffffffffffffff169050600073ffffffffffffffffffffffffffffffffffffffff168173ffffffffffffffffffffffffffffffffffffffff161415610d8f576040517f08c379a0000000000000000000000000000000000000000000000000000000008152600401610d8690613b99565b60405180910390fd5b80915050919050565b60008073ffffffffffffffffffffffffffffffffffffffff168273ffffffffffffffffffffffffffffffffffffffff161415610e09576040517f08c379a0000000000000000000000000000000000000000000000000000000008152600401610e0090613b79565b60405180910390fd5b600360008373ffffffffffffffffffffffffffffffffffffffff1673ffffffffffffffffffffffffffffffffffffffff168152602001908152602001600020549050919050565b60096020528060005260406000206000915054906101000a900473ffffffffffffffffffffffffffffffffffffffff1681565b600b60009054906101000a900473ffffffffffffffffffffffffffffffffffffffff1681565b606060018054610eb89061408b565b80601f0160208091040260200160405190810160405280929190818152602001828054610ee49061408b565b8015610f315780601f10610f0657610100808354040283529160200191610f31565b820191906000526020600020905b815481529060010190602001808311610f1457829003601f168201915b5050505050905090565b610f4482610ce6565b73ffffffffffffffffffffffffffffffffffffffff163373ffffffffffffffffffffffffffffffffffffffff1614610f7b57600080fd5b610f8581836108ac565b806009600084815260200190815260200160002060006101000a81548173ffffffffffffffffffffffffffffffffffffffff021916908373ffffffffffffffffffffffffffffffffffffffff1602179055505050565b6000806060610fe984610ce6565b92506008600085815260200190815260200160002060020160009054906101000a900460ff1691506008600085815260200190815260200160002060010180546110329061408b565b80601f016020809104026020016040519081016040528092919081815260200182805461105e9061408b565b80156110ab5780601f10611080576101008083540402835291602001916110ab565b820191906000526020600020905b81548152906001019060200180831161108e57829003601f168201915b505050505090509193909250565b6110c1612305565b73ffffffffffffffffffffffffffffffffffffffff168273ffffffffffffffffffffffffffffffffffffffff16141561112f576040517f08c379a000000000000000000000000000000000000000000000000000000000815260040161112690613af9565b60405180910390fd5b806005600061113c612305565b73ffffffffffffffffffffffffffffffffffffffff1673ffffffffffffffffffffffffffffffffffffffff16815260200190815260200160002060008473ffffffffffffffffffffffffffffffffffffffff1673ffffffffffffffffffffffffffffffffffffffff16815260200190815260200160002060006101000a81548160ff0219169083151502179055508173ffffffffffffffffffffffffffffffffffffffff166111e9612305565b73ffffffffffffffffffffffffffffffffffffffff167f17307eab39ab6107e8899845ad3d59bd9653f200f220920489ca2b5937696c318360405161122e91906139dc565b60405180910390a35050565b600b60009054906101000a900473ffffffffffffffffffffffffffffffffffffffff1673ffffffffffffffffffffffffffffffffffffffff163373ffffffffffffffffffffffffffffffffffffffff161461129457600080fd5b60006112a06007612700565b9050806008600083815260200190815260200160002060000181905550816008600083815260200190815260200160002060010190805190602001906112e7929190612d75565b5060006008600083815260200190815260200160002060020160006101000a81548160ff02191690831515021790555060006008600083815260200190815260200160002060030181905550826008600083815260200190815260200160002060020160016101000a81548173ffffffffffffffffffffffffffffffffffffffff021916908373ffffffffffffffffffffffffffffffffffffffff1602179055507fbe111e194ea43bdf40a48d96e7676fe1ad4f24207b119021b09114a8915202d883826040516113b9929190613991565b60405180910390a1808373ffffffffffffffffffffffffffffffffffffffff16600073ffffffffffffffffffffffffffffffffffffffff167fddf252ad1be2c89b69c2b068fc378daa952ba7f163c4a11628f55a4df523b3ef60405160405180910390a4611427838261270e565b600a60008473ffffffffffffffffffffffffffffffffffffffff1673ffffffffffffffffffffffffffffffffffffffff1681526020019081526020016000206000815480929190611477906140ee565b919050555061148660076128dc565b505050565b8073ffffffffffffffffffffffffffffffffffffffff166009600084815260200190815260200160002060009054906101000a900473ffffffffffffffffffffffffffffffffffffffff1673ffffffffffffffffffffffffffffffffffffffff1614156115465760006009600084815260200190815260200160002060006101000a81548173ffffffffffffffffffffffffffffffffffffffff021916908373ffffffffffffffffffffffffffffffffffffffff1602179055505b5050565b61155b611555612305565b836123c6565b61159a576040517f08c379a000000000000000000000000000000000000000000000000000000000815260040161159190613cb9565b60405180910390fd5b6115a6848484846128f2565b50505050565b60606000806115bb6007612700565b905060008167ffffffffffffffff8111156115ff577f4e487b7100000000000000000000000000000000000000000000000000000000600052604160045260246000fd5b60405190808252806020026020018201604052801561163857816020015b611625612dfb565b81526020019060019003908161161d5790505b50905060005b82811015611824573373ffffffffffffffffffffffffffffffffffffffff1661166682610ce6565b73ffffffffffffffffffffffffffffffffffffffff161415611811576000600860008381526020019081526020016000209050806040518060a0016040529081600082015481526020016001820180546116bf9061408b565b80601f01602080910402602001604051908101604052809291908181526020018280546116eb9061408b565b80156117385780601f1061170d57610100808354040283529160200191611738565b820191906000526020600020905b81548152906001019060200180831161171b57829003601f168201915b505050505081526020016002820160009054906101000a900460ff161515151581526020016002820160019054906101000a900473ffffffffffffffffffffffffffffffffffffffff1673ffffffffffffffffffffffffffffffffffffffff1673ffffffffffffffffffffffffffffffffffffffff1681526020016003820154815250508386815181106117f5577f4e487b7100000000000000000000000000000000000000000000000000000000600052603260045260246000fd5b602002602001018190525060018561180d9190613ec2565b9450505b808061181c906140ee565b91505061163e565b5080935050505090565b606060008061183d6007612700565b905060008167ffffffffffffffff811115611881577f4e487b7100000000000000000000000000000000000000000000000000000000600052604160045260246000fd5b6040519080825280602002602001820160405280156118ba57816020015b6118a7612dfb565b81526020019060019003908161189f5790505b50905060005b82811015611a9a57600115156008600083815260200190815260200160002060020160009054906101000a900460ff1615151415611a87576000600860008381526020019081526020016000209050806040518060a0016040529081600082015481526020016001820180546119359061408b565b80601f01602080910402602001604051908101604052809291908181526020018280546119619061408b565b80156119ae5780601f10611983576101008083540402835291602001916119ae565b820191906000526020600020905b81548152906001019060200180831161199157829003601f168201915b505050505081526020016002820160009054906101000a900460ff161515151581526020016002820160019054906101000a900473ffffffffffffffffffffffffffffffffffffffff1673ffffffffffffffffffffffffffffffffffffffff1673ffffffffffffffffffffffffffffffffffffffff168152602001600382015481525050838681518110611a6b577f4e487b7100000000000000000000000000000000000000000000000000000000600052603260045260246000fd5b6020026020010181905250600185611a839190613ec2565b9450505b8080611a92906140ee565b9150506118c0565b5080935050505090565b6060611aaf82612299565b611aee576040517f08c379a0000000000000000000000000000000000000000000000000000000008152600401611ae590613c59565b60405180910390fd5b6000611af861294e565b90506000815111611b185760405180602001604052806000815250611b43565b80611b2284612965565b604051602001611b339291906138c8565b6040516020818303038152906040525b915050919050565b60026006541415611b91576040517f08c379a0000000000000000000000000000000000000000000000000000000008152600401611b8890613cd9565b60405180910390fd5b6002600681905550611ba281612299565b611be1576040517f08c379a0000000000000000000000000000000000000000000000000000000008152600401611bd890613ab9565b60405180910390fd5b3373ffffffffffffffffffffffffffffffffffffffff16611c0182610ce6565b73ffffffffffffffffffffffffffffffffffffffff161415611c58576040517f08c379a0000000000000000000000000000000000000000000000000000000008152600401611c4f90613a99565b60405180910390fd5b600115156008600083815260200190815260200160002060020160009054906101000a900460ff16151514611cc2576040517f08c379a0000000000000000000000000000000000000000000000000000000008152600401611cb990613b59565b60405180910390fd5b60086000828152602001908152602001600020600301543414611d1a576040517f08c379a0000000000000000000000000000000000000000000000000000000008152600401611d1190613c99565b60405180910390fd5b611d243382612b12565b611d63576040517f08c379a0000000000000000000000000000000000000000000000000000000008152600401611d5a90613bb9565b60405180910390fd5b8173ffffffffffffffffffffffffffffffffffffffff16611d8382610ce6565b73ffffffffffffffffffffffffffffffffffffffff1614611dd9576040517f08c379a0000000000000000000000000000000000000000000000000000000008152600401611dd090613d19565b60405180910390fd5b611deb81611de683610827565b61148b565b600a60008373ffffffffffffffffffffffffffffffffffffffff1673ffffffffffffffffffffffffffffffffffffffff1681526020019081526020016000206000815480929190611e3b90614061565b9190505550600a60003373ffffffffffffffffffffffffffffffffffffffff1673ffffffffffffffffffffffffffffffffffffffff1681526020019081526020016000206000815480929190611e90906140ee565b91905055508173ffffffffffffffffffffffffffffffffffffffff166108fc60086000848152602001908152602001600020600301549081150290604051600060405180830381858888f19350505050158015611ef1573d6000803e3d6000fd5b5060006008600083815260200190815260200160002060020160006101000a81548160ff02191690831515021790555060006008600083815260200190815260200160002060030181905550611f488233836109c4565b336008600083815260200190815260200160002060020160016101000a81548173ffffffffffffffffffffffffffffffffffffffff021916908373ffffffffffffffffffffffffffffffffffffffff160217905550803373ffffffffffffffffffffffffffffffffffffffff168373ffffffffffffffffffffffffffffffffffffffff167fddf252ad1be2c89b69c2b068fc378daa952ba7f163c4a11628f55a4df523b3ef60405160405180910390a460016006819055505050565b600860205280600052604060002060009150905080600001549080600101805461202d9061408b565b80601f01602080910402602001604051908101604052809291908181526020018280546120599061408b565b80156120a65780601f1061207b576101008083540402835291602001916120a6565b820191906000526020600020905b81548152906001019060200180831161208957829003601f168201915b5050505050908060020160009054906101000a900460ff16908060020160019054906101000a900473ffffffffffffffffffffffffffffffffffffffff16908060030154905085565b600b60009054906101000a900473ffffffffffffffffffffffffffffffffffffffff1673ffffffffffffffffffffffffffffffffffffffff163373ffffffffffffffffffffffffffffffffffffffff161461214957600080fd5b806fffffffffffffffffffffffffffffffff16600860008481526020019081526020016000206003015461217d9190613f49565b60086000848152602001908152602001600020600301819055505050565b6000600560008473ffffffffffffffffffffffffffffffffffffffff1673ffffffffffffffffffffffffffffffffffffffff16815260200190815260200160002060008373ffffffffffffffffffffffffffffffffffffffff1673ffffffffffffffffffffffffffffffffffffffff16815260200190815260200160002060009054906101000a900460ff16905092915050565b60007f01ffc9a7000000000000000000000000000000000000000000000000000000007bffffffffffffffffffffffffffffffffffffffffffffffffffffffff1916827bffffffffffffffffffffffffffffffffffffffffffffffffffffffff1916149050919050565b60008073ffffffffffffffffffffffffffffffffffffffff166002600084815260200190815260200160002060009054906101000a900473ffffffffffffffffffffffffffffffffffffffff1673ffffffffffffffffffffffffffffffffffffffff1614159050919050565b600033905090565b816004600083815260200190815260200160002060006101000a81548173ffffffffffffffffffffffffffffffffffffffff021916908373ffffffffffffffffffffffffffffffffffffffff160217905550808273ffffffffffffffffffffffffffffffffffffffff1661238083610ce6565b73ffffffffffffffffffffffffffffffffffffffff167f8c5be1e5ebec7d5bd14f71427d1e84f3dd0314c0f7b2291e5b200ac8c7c3b92560405160405180910390a45050565b60006123d182612299565b612410576040517f08c379a000000000000000000000000000000000000000000000000000000000815260040161240790613b19565b60405180910390fd5b600061241b83610ce6565b90508073ffffffffffffffffffffffffffffffffffffffff168473ffffffffffffffffffffffffffffffffffffffff16148061248a57508373ffffffffffffffffffffffffffffffffffffffff1661247284610827565b73ffffffffffffffffffffffffffffffffffffffff16145b8061249b575061249a818561219b565b5b91505092915050565b8273ffffffffffffffffffffffffffffffffffffffff166124c482610ce6565b73ffffffffffffffffffffffffffffffffffffffff161461251a576040517f08c379a000000000000000000000000000000000000000000000000000000000815260040161251190613c39565b60405180910390fd5b600073ffffffffffffffffffffffffffffffffffffffff168273ffffffffffffffffffffffffffffffffffffffff16141561258a576040517f08c379a000000000000000000000000000000000000000000000000000000000815260040161258190613ad9565b60405180910390fd5b612595838383612bc6565b6125a060008261230d565b6001600360008573ffffffffffffffffffffffffffffffffffffffff1673ffffffffffffffffffffffffffffffffffffffff16815260200190815260200160002060008282546125f09190613f49565b925050819055506001600360008473ffffffffffffffffffffffffffffffffffffffff1673ffffffffffffffffffffffffffffffffffffffff16815260200190815260200160002060008282546126479190613ec2565b92505081905550816002600083815260200190815260200160002060006101000a81548173ffffffffffffffffffffffffffffffffffffffff021916908373ffffffffffffffffffffffffffffffffffffffff160217905550808273ffffffffffffffffffffffffffffffffffffffff168473ffffffffffffffffffffffffffffffffffffffff167fddf252ad1be2c89b69c2b068fc378daa952ba7f163c4a11628f55a4df523b3ef60405160405180910390a4505050565b600081600001549050919050565b600073ffffffffffffffffffffffffffffffffffffffff168273ffffffffffffffffffffffffffffffffffffffff16141561277e576040517f08c379a000000000000000000000000000000000000000000000000000000000815260040161277590613bf9565b60405180910390fd5b61278781612299565b156127c7576040517f08c379a00000000000000000000000000000000000000000000000000000000081526004016127be90613a79565b60405180910390fd5b6127d360008383612bc6565b6001600360008473ffffffffffffffffffffffffffffffffffffffff1673ffffffffffffffffffffffffffffffffffffffff16815260200190815260200160002060008282546128239190613ec2565b92505081905550816002600083815260200190815260200160002060006101000a81548173ffffffffffffffffffffffffffffffffffffffff021916908373ffffffffffffffffffffffffffffffffffffffff160217905550808273ffffffffffffffffffffffffffffffffffffffff16600073ffffffffffffffffffffffffffffffffffffffff167fddf252ad1be2c89b69c2b068fc378daa952ba7f163c4a11628f55a4df523b3ef60405160405180910390a45050565b6001816000016000828254019250508190555050565b6128fd8484846124a4565b61290984848484612bcb565b612948576040517f08c379a000000000000000000000000000000000000000000000000000000000815260040161293f90613a39565b60405180910390fd5b50505050565b606060405180602001604052806000815250905090565b606060008214156129ad576040518060400160405280600181526020017f30000000000000000000000000000000000000000000000000000000000000008152509050612b0d565b600082905060005b600082146129df5780806129c8906140ee565b915050600a826129d89190613f18565b91506129b5565b60008167ffffffffffffffff811115612a21577f4e487b7100000000000000000000000000000000000000000000000000000000600052604160045260246000fd5b6040519080825280601f01601f191660200182016040528015612a535781602001600182028036833780820191505090505b5090505b60008514612b0657600182612a6c9190613f49565b9150600a85612a7b9190614137565b6030612a879190613ec2565b60f81b818381518110612ac3577f4e487b7100000000000000000000000000000000000000000000000000000000600052603260045260246000fd5b60200101907effffffffffffffffffffffffffffffffffffffffffffffffffffffffffffff1916908160001a905350600a85612aff9190613f18565b9450612a57565b8093505050505b919050565b6000612b1d82612299565b612b5c576040517f08c379a0000000000000000000000000000000000000000000000000000000008152600401612b5390613a19565b60405180910390fd5b8273ffffffffffffffffffffffffffffffffffffffff166009600084815260200190815260200160002060009054906101000a900473ffffffffffffffffffffffffffffffffffffffff1673ffffffffffffffffffffffffffffffffffffffff1614905092915050565b505050565b6000612bec8473ffffffffffffffffffffffffffffffffffffffff16612d62565b15612d55578373ffffffffffffffffffffffffffffffffffffffff1663150b7a02612c15612305565b8786866040518563ffffffff1660e01b8152600401612c379493929190613907565b602060405180830381600087803b158015612c5157600080fd5b505af1925050508015612c8257506040513d601f19601f82011682018060405250810190612c7f9190613222565b60015b612d05573d8060008114612cb2576040519150601f19603f3d011682016040523d82523d6000602084013e612cb7565b606091505b50600081511415612cfd576040517f08c379a0000000000000000000000000000000000000000000000000000000008152600401612cf490613a39565b60405180910390fd5b805181602001fd5b63150b7a0260e01b7bffffffffffffffffffffffffffffffffffffffffffffffffffffffff1916817bffffffffffffffffffffffffffffffffffffffffffffffffffffffff191614915050612d5a565b600190505b949350505050565b600080823b905060008111915050919050565b828054612d819061408b565b90600052602060002090601f016020900481019282612da35760008555612dea565b82601f10612dbc57805160ff1916838001178555612dea565b82800160010185558215612dea579182015b82811115612de9578251825591602001919060010190612dce565b5b509050612df79190612e42565b5090565b6040518060a001604052806000815260200160608152602001600015158152602001600073ffffffffffffffffffffffffffffffffffffffff168152602001600081525090565b5b80821115612e5b576000816000905550600101612e43565b5090565b6000612e72612e6d84613dd3565b613dae565b905082815260208101848484011115612e8a57600080fd5b612e9584828561401f565b509392505050565b6000612eb0612eab84613e04565b613dae565b905082815260208101848484011115612ec857600080fd5b612ed384828561401f565b509392505050565b600081359050612eea816147d8565b92915050565b600081359050612eff816147ef565b92915050565b600081359050612f1481614806565b92915050565b600081359050612f298161481d565b92915050565b600081519050612f3e8161481d565b92915050565b600082601f830112612f5557600080fd5b8135612f65848260208601612e5f565b91505092915050565b600082601f830112612f7f57600080fd5b8135612f8f848260208601612e9d565b91505092915050565b600081359050612fa781614834565b92915050565b600081359050612fbc8161484b565b92915050565b600060208284031215612fd457600080fd5b6000612fe284828501612edb565b91505092915050565b60008060408385031215612ffe57600080fd5b600061300c85828601612ef0565b925050602061301d85828601612fad565b9150509250929050565b6000806040838503121561303a57600080fd5b600061304885828601612edb565b925050602061305985828601612edb565b9150509250929050565b60008060006060848603121561307857600080fd5b600061308686828701612edb565b935050602061309786828701612edb565b92505060406130a886828701612fad565b9150509250925092565b600080600080608085870312156130c857600080fd5b60006130d687828801612edb565b94505060206130e787828801612edb565b93505060406130f887828801612fad565b925050606085013567ffffffffffffffff81111561311557600080fd5b61312187828801612f44565b91505092959194509250565b6000806040838503121561314057600080fd5b600061314e85828601612edb565b925050602061315f85828601612f05565b9150509250929050565b6000806040838503121561317c57600080fd5b600061318a85828601612edb565b925050602083013567ffffffffffffffff8111156131a757600080fd5b6131b385828601612f6e565b9150509250929050565b600080604083850312156131d057600080fd5b60006131de85828601612edb565b92505060206131ef85828601612fad565b9150509250929050565b60006020828403121561320b57600080fd5b600061321984828501612f1a565b91505092915050565b60006020828403121561323457600080fd5b600061324284828501612f2f565b91505092915050565b60006020828403121561325d57600080fd5b600061326b84828501612fad565b91505092915050565b6000806040838503121561328757600080fd5b600061329585828601612fad565b92505060206132a685828601612edb565b9150509250929050565b600080604083850312156132c357600080fd5b60006132d185828601612fad565b92505060206132e285828601612f98565b9150509250929050565b600080604083850312156132ff57600080fd5b600061330d85828601612fad565b925050602061331e85828601612fad565b9150509250929050565b60006133348383613834565b905092915050565b61334581613f7d565b82525050565b61335481613f7d565b82525050565b600061336582613e45565b61336f8185613e73565b93508360208202850161338185613e35565b8060005b858110156133bd578484038952815161339e8582613328565b94506133a983613e66565b925060208a01995050600181019050613385565b50829750879550505050505092915050565b6133d881613fa1565b82525050565b6133e781613fa1565b82525050565b60006133f882613e50565b6134028185613e84565b935061341281856020860161402e565b61341b81614224565b840191505092915050565b600061343182613e5b565b61343b8185613e95565b935061344b81856020860161402e565b61345481614224565b840191505092915050565b600061346a82613e5b565b6134748185613ea6565b935061348481856020860161402e565b61348d81614224565b840191505092915050565b60006134a382613e5b565b6134ad8185613eb7565b93506134bd81856020860161402e565b80840191505092915050565b60006134d6601483613ea6565b91506134e182614235565b602082019050919050565b60006134f9603283613ea6565b91506135048261425e565b604082019050919050565b600061351c601283613ea6565b9150613527826142ad565b602082019050919050565b600061353f601c83613ea6565b915061354a826142d6565b602082019050919050565b6000613562601483613ea6565b915061356d826142ff565b602082019050919050565b6000613585601483613ea6565b915061359082614328565b602082019050919050565b60006135a8602483613ea6565b91506135b382614351565b604082019050919050565b60006135cb601983613ea6565b91506135d6826143a0565b602082019050919050565b60006135ee602c83613ea6565b91506135f9826143c9565b604082019050919050565b6000613611603883613ea6565b915061361c82614418565b604082019050919050565b6000613634601683613ea6565b915061363f82614467565b602082019050919050565b6000613657602a83613ea6565b915061366282614490565b604082019050919050565b600061367a602983613ea6565b9150613685826144df565b604082019050919050565b600061369d601283613ea6565b91506136a88261452e565b602082019050919050565b60006136c0600983613ea6565b91506136cb82614557565b602082019050919050565b60006136e3602083613ea6565b91506136ee82614580565b602082019050919050565b6000613706602c83613ea6565b9150613711826145a9565b604082019050919050565b6000613729602983613ea6565b9150613734826145f8565b604082019050919050565b600061374c602f83613ea6565b915061375782614647565b604082019050919050565b600061376f602183613ea6565b915061377a82614696565b604082019050919050565b6000613792601583613ea6565b915061379d826146e5565b602082019050919050565b60006137b5603183613ea6565b91506137c08261470e565b604082019050919050565b60006137d8601f83613ea6565b91506137e38261475d565b602082019050919050565b60006137fb601783613ea6565b915061380682614786565b602082019050919050565b600061381e601083613ea6565b9150613829826147af565b602082019050919050565b600060a08301600083015161384c60008601826138aa565b50602083015184820360208601526138648282613426565b915050604083015161387960408601826133cf565b50606083015161388c606086018261333c565b50608083015161389f60808601826138aa565b508091505092915050565b6138b381614015565b82525050565b6138c281614015565b82525050565b60006138d48285613498565b91506138e08284613498565b91508190509392505050565b6000602082019050613901600083018461334b565b92915050565b600060808201905061391c600083018761334b565b613929602083018661334b565b61393660408301856138b9565b818103606083015261394881846133ed565b905095945050505050565b6000606082019050613968600083018661334b565b61397560208301856133de565b8181036040830152613987818461345f565b9050949350505050565b60006040820190506139a6600083018561334b565b6139b360208301846138b9565b9392505050565b600060208201905081810360008301526139d4818461335a565b905092915050565b60006020820190506139f160008301846133de565b92915050565b60006020820190508181036000830152613a11818461345f565b905092915050565b60006020820190508181036000830152613a32816134c9565b9050919050565b60006020820190508181036000830152613a52816134ec565b9050919050565b60006020820190508181036000830152613a728161350f565b9050919050565b60006020820190508181036000830152613a9281613532565b9050919050565b60006020820190508181036000830152613ab281613555565b9050919050565b60006020820190508181036000830152613ad281613578565b9050919050565b60006020820190508181036000830152613af28161359b565b9050919050565b60006020820190508181036000830152613b12816135be565b9050919050565b60006020820190508181036000830152613b32816135e1565b9050919050565b60006020820190508181036000830152613b5281613604565b9050919050565b60006020820190508181036000830152613b7281613627565b9050919050565b60006020820190508181036000830152613b928161364a565b9050919050565b60006020820190508181036000830152613bb28161366d565b9050919050565b60006020820190508181036000830152613bd281613690565b9050919050565b60006020820190508181036000830152613bf2816136b3565b9050919050565b60006020820190508181036000830152613c12816136d6565b9050919050565b60006020820190508181036000830152613c32816136f9565b9050919050565b60006020820190508181036000830152613c528161371c565b9050919050565b60006020820190508181036000830152613c728161373f565b9050919050565b60006020820190508181036000830152613c9281613762565b9050919050565b60006020820190508181036000830152613cb281613785565b9050919050565b60006020820190508181036000830152613cd2816137a8565b9050919050565b60006020820190508181036000830152613cf2816137cb565b9050919050565b60006020820190508181036000830152613d12816137ee565b9050919050565b60006020820190508181036000830152613d3281613811565b9050919050565b6000602082019050613d4e60008301846138b9565b92915050565b600060a082019050613d6960008301886138b9565b8181036020830152613d7b818761345f565b9050613d8a60408301866133de565b613d97606083018561334b565b613da460808301846138b9565b9695505050505050565b6000613db8613dc9565b9050613dc482826140bd565b919050565b6000604051905090565b600067ffffffffffffffff821115613dee57613ded6141f5565b5b613df782614224565b9050602081019050919050565b600067ffffffffffffffff821115613e1f57613e1e6141f5565b5b613e2882614224565b9050602081019050919050565b6000819050602082019050919050565b600081519050919050565b600081519050919050565b600081519050919050565b6000602082019050919050565b600082825260208201905092915050565b600082825260208201905092915050565b600082825260208201905092915050565b600082825260208201905092915050565b600081905092915050565b6000613ecd82614015565b9150613ed883614015565b9250827fffffffffffffffffffffffffffffffffffffffffffffffffffffffffffffffff03821115613f0d57613f0c614168565b5b828201905092915050565b6000613f2382614015565b9150613f2e83614015565b925082613f3e57613f3d614197565b5b828204905092915050565b6000613f5482614015565b9150613f5f83614015565b925082821015613f7257613f71614168565b5b828203905092915050565b6000613f8882613ff5565b9050919050565b6000613f9a82613ff5565b9050919050565b60008115159050919050565b60007fffffffff0000000000000000000000000000000000000000000000000000000082169050919050565b60006fffffffffffffffffffffffffffffffff82169050919050565b600073ffffffffffffffffffffffffffffffffffffffff82169050919050565b6000819050919050565b82818337600083830152505050565b60005b8381101561404c578082015181840152602081019050614031565b8381111561405b576000848401525b50505050565b600061406c82614015565b915060008214156140805761407f614168565b5b600182039050919050565b600060028204905060018216806140a357607f821691505b602082108114156140b7576140b66141c6565b5b50919050565b6140c682614224565b810181811067ffffffffffffffff821117156140e5576140e46141f5565b5b80604052505050565b60006140f982614015565b91507fffffffffffffffffffffffffffffffffffffffffffffffffffffffffffffffff82141561412c5761412b614168565b5b600182019050919050565b600061414282614015565b915061414d83614015565b92508261415d5761415c614197565b5b828206905092915050565b7f4e487b7100000000000000000000000000000000000000000000000000000000600052601160045260246000fd5b7f4e487b7100000000000000000000000000000000000000000000000000000000600052601260045260246000fd5b7f4e487b7100000000000000000000000000000000000000000000000000000000600052602260045260246000fd5b7f4e487b7100000000000000000000000000000000000000000000000000000000600052604160045260246000fd5b6000601f19601f8301169050919050565b7f4e4f205375636820746f6b656e20457869737473000000000000000000000000600082015250565b7f4552433732313a207472616e7366657220746f206e6f6e20455243373231526560008201527f63656976657220696d706c656d656e7465720000000000000000000000000000602082015250565b7f4e6f74206f776e6572206f662041737365740000000000000000000000000000600082015250565b7f4552433732313a20746f6b656e20616c7265616479206d696e74656400000000600082015250565b7f20417373657420616c7265616479206f776e6564000000000000000000000000600082015250565b7f204173736574206e6f7420417661696c61626c65000000000000000000000000600082015250565b7f4552433732313a207472616e7366657220746f20746865207a65726f2061646460008201527f7265737300000000000000000000000000000000000000000000000000000000602082015250565b7f4552433732313a20617070726f766520746f2063616c6c657200000000000000600082015250565b7f4552433732313a206f70657261746f7220717565727920666f72206e6f6e657860008201527f697374656e7420746f6b656e0000000000000000000000000000000000000000602082015250565b7f4552433732313a20617070726f76652063616c6c6572206973206e6f74206f7760008201527f6e6572206e6f7220617070726f76656420666f7220616c6c0000000000000000602082015250565b7f4e6f7420617669616c62656c6520666f722053616c6500000000000000000000600082015250565b7f4552433732313a2062616c616e636520717565727920666f7220746865207a6560008201527f726f206164647265737300000000000000000000000000000000000000000000602082015250565b7f4552433732313a206f776e657220717565727920666f72206e6f6e657869737460008201527f656e7420746f6b656e0000000000000000000000000000000000000000000000602082015250565b7f4e6f7420417070726f7665642042757965720000000000000000000000000000600082015250565b7f4e6f74614d61796f720000000000000000000000000000000000000000000000600082015250565b7f4552433732313a206d696e7420746f20746865207a65726f2061646472657373600082015250565b7f4552433732313a20617070726f76656420717565727920666f72206e6f6e657860008201527f697374656e7420746f6b656e0000000000000000000000000000000000000000602082015250565b7f4552433732313a207472616e73666572206f6620746f6b656e2074686174206960008201527f73206e6f74206f776e0000000000000000000000000000000000000000000000602082015250565b7f4552433732314d657461646174613a2055524920717565727920666f72206e6f60008201527f6e6578697374656e7420746f6b656e0000000000000000000000000000000000602082015250565b7f4552433732313a20617070726f76616c20746f2063757272656e74206f776e6560008201527f7200000000000000000000000000000000000000000000000000000000000000602082015250565b7f56616c7565206c657373207468616e2070726963650000000000000000000000600082015250565b7f4552433732313a207472616e736665722063616c6c6572206973206e6f74206f60008201527f776e6572206e6f7220617070726f766564000000000000000000000000000000602082015250565b7f5265656e7472616e637947756172643a207265656e7472616e742063616c6c00600082015250565b7f416c7265616479204c697374656420466f722053616c65000000000000000000600082015250565b7f4e6f7454686561737365744f776e657200000000000000000000000000000000600082015250565b6147e181613f7d565b81146147ec57600080fd5b50565b6147f881613f8f565b811461480357600080fd5b50565b61480f81613fa1565b811461481a57600080fd5b50565b61482681613fad565b811461483157600080fd5b50565b61483d81613fd9565b811461484857600080fd5b50565b61485481614015565b811461485f57600080fd5b5056fea2646970667358221220d3585657f4f0ce42094dad45fb9f469fdcbfc26585125364bb26c6903b38c63264736f6c63430008030033",
  "immutableReferences": {},
  "source": "//SPDX-License-Identifier: Unlicense\r\n\r\npragma solidity 0.8.3;\r\n\r\nimport \"@openzeppelin/contracts/token/ERC721/ERC721.sol\";\r\nimport \"@openzeppelin/contracts/utils/Counters.sol\";\r\nimport \"@openzeppelin/contracts/security/ReentrancyGuard.sol\";\r\n\r\n/// @title Real Estate Tokenisation and Markrtplace\r\n/// @author Auqib Hamid Lone\r\n/// @dev This contract allows Mayor to register Users property by minting  NFT and  a marketplace for users to sell and buy registered RealEsatet as NFTS.\r\n/// @dev Inherits ReentrancyGuard which is deployed on buy() function.\r\n/// @dev Uses Counters library for tracking asset IDs for the NFTS .\r\n\r\ncontract RealEstate is ERC721, ReentrancyGuard {\r\n    using Counters for Counters.Counter;\r\n    Counters.Counter private _assetId;\r\n\r\n    struct Asset {\r\n        uint256 assetID;\r\n        string _type;\r\n        bool avlToBuy;\r\n        address owner;\r\n        uint256 price;\r\n    }\r\n\r\n    // Mappings\r\n    mapping(uint256 => Asset) public assets;\r\n    // mapping(uint256=>address) private assetOwner;\r\n    mapping(uint256 => address) public assetApprovedToSellTo;\r\n    mapping(address => uint256) private totalAssetsOwned;\r\n\r\n    event assetRegistered(address onwer, uint256 assetID);\r\n\r\n    address public cityMayor;\r\n\r\n    constructor() public ERC721(\"Real Estate Tokensiation\", \"PEST\") {\r\n        cityMayor = msg.sender;\r\n    }\r\n\r\n    modifier onlyMayor() {\r\n        require(msg.sender == cityMayor);\r\n        _;\r\n    }\r\n\r\n    /// @notice Registers Real Estate and  Mints a new PEST NFT token corresponding to Regstered Real Estate.\r\n    /// @dev Triggers an event with Asset Id and Owner of NFT\r\n\r\n    function registerAsset(address owner, string memory _type)\r\n        public\r\n        onlyMayor\r\n    {\r\n        uint256 assetCount = _assetId.current();\r\n        assets[assetCount].assetID = assetCount;\r\n        assets[assetCount]._type = _type;\r\n        assets[assetCount].avlToBuy = false;\r\n        assets[assetCount].price = 0;\r\n\r\n        assets[assetCount].owner = owner;\r\n        emit assetRegistered(owner, assetCount);\r\n        emit Transfer(address(0), owner, assetCount);\r\n        _mint(owner, assetCount);\r\n        totalAssetsOwned[owner]++;\r\n        _assetId.increment();\r\n    }\r\n///    @param id AssetID of Asset.\r\n///    @return owner Owner of Address.\r\n///    @return canBuy Available for buying.\r\n///    @return _type Asset Type.\r\n///    \r\n    function getAssetDetails(uint256 id) public  view\r\n        returns (\r\n            address owner,\r\n            bool canBuy,\r\n            string memory _type\r\n        )\r\n    {\r\n        owner = ownerOf(id);\r\n        canBuy = assets[id].avlToBuy;\r\n        _type = assets[id]._type;\r\n    }\r\n\r\n    /// @dev Fetch details of all Assets owned by Address (Owner)\r\n    /// @return  All  details of the Assets  as Asset[] owned by address\r\n    function fetchMyAssets() public view returns (Asset[] memory) {\r\n        uint256 currentIndex = 0;\r\n        uint256 assetCount = _assetId.current();\r\n        Asset[] memory items = new Asset[](assetCount);\r\n        for (uint256 i = 0; i < assetCount; i++) {\r\n            if (ownerOf(i) == msg.sender) {\r\n                Asset storage currentItem = assets[i];\r\n                items[currentIndex] = currentItem;\r\n                currentIndex += 1;\r\n            }\r\n        }\r\n        return items;\r\n    }\r\n\r\n    /// @dev Fetch details of all Assets avialable for sale\r\n    /// @return  All  details of the  Assets avialable for sale\r\n    function fetchAllAssetsForSale() public view returns (Asset[] memory) {\r\n        uint256 currentIndex = 0;\r\n        uint256 assetCount = _assetId.current();\r\n        Asset[] memory items = new Asset[](assetCount);\r\n        for (uint256 i = 0; i < assetCount; i++) {\r\n            if (assets[i].avlToBuy == true) {\r\n                Asset storage currentItem = assets[i];\r\n                items[currentIndex] = currentItem;\r\n                currentIndex += 1;\r\n            }\r\n        }\r\n        return items;\r\n    }\r\n\r\n    /// @dev Sets price of the Assets and lists them for sale\r\n\r\n    function setForSale(uint256 assetID, uint128 price) public {\r\n        require(ownerOf(assetID) == msg.sender, \"Not owner of Asset\");\r\n        require(assets[assetID].avlToBuy == false, \"Already Listed For Sale\");\r\n        assets[assetID].avlToBuy = true;\r\n        assets[assetID].price = price;\r\n    }\r\n\r\n    /// @dev Allows Owners to increase price  of owned  Assets\r\n\r\n    function renuvate(uint256 assetId, uint256 value) public {\r\n        require(msg.sender == ownerOf(assetId), \"NotaMayor\");\r\n        assets[assetId].price = assets[assetId].price + value;\r\n    }\r\n\r\n    /// @dev Allows Mayor  to increase price  of   Assets as part of Appreciation\r\n    function appreciate(uint256 assetId, uint128 value) public onlyMayor {\r\n        assets[assetId].price = assets[assetId].price + value;\r\n    }\r\n\r\n    /// @dev Allows Mayor  to decraese price  of   Assets as part of Depreciation\r\n    function depreciate(uint256 assetId, uint128 value) public onlyMayor {\r\n        assets[assetId].price = assets[assetId].price - value;\r\n    }\r\n\r\n    /// @dev Approves Buyer to buy asset\r\n    function approveBuyer(uint256 assetId, address buyer) public {\r\n        require(msg.sender == ownerOf(assetId));\r\n        approve(buyer, assetId);\r\n        assetApprovedToSellTo[assetId] = buyer;\r\n    }\r\n\r\n    /// @dev Clears the Approval of Buyer on  asset\r\n    function clearBuyerApproval(uint256 assetId, address approved) public {\r\n        if (assetApprovedToSellTo[assetId] == approved) {\r\n            assetApprovedToSellTo[assetId] = address(0);\r\n        }\r\n    }\r\n\r\n    /// @dev Allows approved buyers to buy assets from Market Place\r\n    function buy(address payable from, uint256 assetId)\r\n        public\r\n        payable\r\n        nonReentrant\r\n    {\r\n        require(_exists(assetId), \" Asset not Available\");\r\n        require(ownerOf(assetId) != msg.sender, \" Asset already owned\");\r\n        require(assets[assetId].avlToBuy == true, \"Not avialbele for Sale\");\r\n        require(msg.value == (assets[assetId].price), \"Value less than price\");\r\n        require(isApproved(msg.sender, assetId), \"Not Approved Buyer\");\r\n        require(ownerOf(assetId) == from, \"NotTheassetOwner\");\r\n        clearBuyerApproval(assetId, getApproved(assetId));\r\n        totalAssetsOwned[from]--;\r\n        totalAssetsOwned[msg.sender]++;\r\n        from.transfer(assets[assetId].price);\r\n        assets[assetId].avlToBuy = false;\r\n        assets[assetId].price = 0;\r\n        transferFrom(from, msg.sender, assetId);\r\n        assets[assetId].owner = msg.sender;\r\n        emit Transfer(from, msg.sender, assetId);\r\n    }\r\n\r\n    /// @dev Checks whether Buyer is approved\r\n    function isApproved(address spender, uint256 assetId)\r\n        internal\r\n        view\r\n        returns (bool)\r\n    {\r\n        require(_exists(assetId), \"NO Such token Exists\");\r\n\r\n        return (assetApprovedToSellTo[assetId] == spender);\r\n    }\r\n\r\n    /// @dev receive() and fallback() functions to allow the contract to receive ETH and data\r\n    receive() external payable {}\r\n\r\n    fallback() external payable {}\r\n}\r\n",
  "sourcePath": "E:/Blokchain-Gen/blockchain-developer-bootcamp-final-project/contracts/RealEstate.sol",
  "compiler": {
    "name": "solc",
    "version": "0.8.3+commit.8d00100c.Emscripten.clang"
  },
  "schemaVersion": "3.3.4",
  "updatedAt": "2021-11-24T13:47:50.207Z",
  "networkType": "ethereum",
  "devdoc": {
    "author": "Auqib Hamid Lone",
    "details": "This contract allows Mayor to register Users property by minting  NFT and  a marketplace for users to sell and buy registered RealEsatet as NFTS.Inherits ReentrancyGuard which is deployed on buy() function.Uses Counters library for tracking asset IDs for the NFTS .",
    "kind": "dev",
    "methods": {
      "appreciate(uint256,uint128)": {
        "details": "Allows Mayor  to increase price  of   Assets as part of Appreciation"
      },
      "approve(address,uint256)": {
        "details": "See {IERC721-approve}."
      },
      "approveBuyer(uint256,address)": {
        "details": "Approves Buyer to buy asset"
      },
      "balanceOf(address)": {
        "details": "See {IERC721-balanceOf}."
      },
      "buy(address,uint256)": {
        "details": "Allows approved buyers to buy assets from Market Place"
      },
      "clearBuyerApproval(uint256,address)": {
        "details": "Clears the Approval of Buyer on  asset"
      },
      "depreciate(uint256,uint128)": {
        "details": "Allows Mayor  to decraese price  of   Assets as part of Depreciation"
      },
      "fetchAllAssetsForSale()": {
        "details": "Fetch details of all Assets avialable for sale",
        "returns": {
          "_0": "All  details of the  Assets avialable for sale"
        }
      },
      "fetchMyAssets()": {
        "details": "Fetch details of all Assets owned by Address (Owner)",
        "returns": {
          "_0": "All  details of the Assets  as Asset[] owned by address"
        }
      },
      "getApproved(uint256)": {
        "details": "See {IERC721-getApproved}."
      },
      "getAssetDetails(uint256)": {
        "params": {
          "id": "AssetID of Asset."
        },
        "returns": {
          "_type": "Asset Type.    ",
          "canBuy": "Available for buying.",
          "owner": "Owner of Address."
        }
      },
      "isApprovedForAll(address,address)": {
        "details": "See {IERC721-isApprovedForAll}."
      },
      "name()": {
        "details": "See {IERC721Metadata-name}."
      },
      "ownerOf(uint256)": {
        "details": "See {IERC721-ownerOf}."
      },
      "registerAsset(address,string)": {
        "details": "Triggers an event with Asset Id and Owner of NFT"
      },
      "renuvate(uint256,uint256)": {
        "details": "Allows Owners to increase price  of owned  Assets"
      },
      "safeTransferFrom(address,address,uint256)": {
        "details": "See {IERC721-safeTransferFrom}."
      },
      "safeTransferFrom(address,address,uint256,bytes)": {
        "details": "See {IERC721-safeTransferFrom}."
      },
      "setApprovalForAll(address,bool)": {
        "details": "See {IERC721-setApprovalForAll}."
      },
      "setForSale(uint256,uint128)": {
        "details": "Sets price of the Assets and lists them for sale"
      },
      "supportsInterface(bytes4)": {
        "details": "See {IERC165-supportsInterface}."
      },
      "symbol()": {
        "details": "See {IERC721Metadata-symbol}."
      },
      "tokenURI(uint256)": {
        "details": "See {IERC721Metadata-tokenURI}."
      },
      "transferFrom(address,address,uint256)": {
        "details": "See {IERC721-transferFrom}."
      }
    },
    "title": "Real Estate Tokenisation and Markrtplace",
    "version": 1
  },
  "userdoc": {
    "kind": "user",
    "methods": {
      "registerAsset(address,string)": {
        "notice": "Registers Real Estate and  Mints a new PEST NFT token corresponding to Regstered Real Estate."
      }
    },
    "version": 1
  }
}