{
  "contractName": "RealEstate",
  "abi": [
    {
      "inputs": [],
      "stateMutability": "nonpayable",
      "type": "constructor"
    },
    {
      "anonymous": false,
      "inputs": [
        {
          "indexed": true,
          "internalType": "address",
          "name": "owner",
          "type": "address"
        },
        {
          "indexed": true,
          "internalType": "address",
          "name": "approved",
          "type": "address"
        },
        {
          "indexed": true,
          "internalType": "uint256",
          "name": "tokenId",
          "type": "uint256"
        }
      ],
      "name": "Approval",
      "type": "event"
    },
    {
      "anonymous": false,
      "inputs": [
        {
          "indexed": true,
          "internalType": "address",
          "name": "owner",
          "type": "address"
        },
        {
          "indexed": true,
          "internalType": "address",
          "name": "operator",
          "type": "address"
        },
        {
          "indexed": false,
          "internalType": "bool",
          "name": "approved",
          "type": "bool"
        }
      ],
      "name": "ApprovalForAll",
      "type": "event"
    },
    {
      "anonymous": false,
      "inputs": [
        {
          "indexed": true,
          "internalType": "address",
          "name": "from",
          "type": "address"
        },
        {
          "indexed": true,
          "internalType": "address",
          "name": "to",
          "type": "address"
        },
        {
          "indexed": true,
          "internalType": "uint256",
          "name": "tokenId",
          "type": "uint256"
        }
      ],
      "name": "Transfer",
      "type": "event"
    },
    {
      "anonymous": false,
      "inputs": [
        {
          "indexed": false,
          "internalType": "address",
          "name": "onwer",
          "type": "address"
        },
        {
          "indexed": false,
          "internalType": "uint256",
          "name": "assetID",
          "type": "uint256"
        }
      ],
      "name": "assetRegistered",
      "type": "event"
    },
    {
      "inputs": [
        {
          "internalType": "address",
          "name": "to",
          "type": "address"
        },
        {
          "internalType": "uint256",
          "name": "tokenId",
          "type": "uint256"
        }
      ],
      "name": "approve",
      "outputs": [],
      "stateMutability": "nonpayable",
      "type": "function"
    },
    {
      "inputs": [
        {
          "internalType": "uint256",
          "name": "",
          "type": "uint256"
        }
      ],
      "name": "assetApprovedToSellTo",
      "outputs": [
        {
          "internalType": "address",
          "name": "",
          "type": "address"
        }
      ],
      "stateMutability": "view",
      "type": "function",
      "constant": true
    },
    {
      "inputs": [],
      "name": "assetCount",
      "outputs": [
        {
          "internalType": "uint256",
          "name": "",
          "type": "uint256"
        }
      ],
      "stateMutability": "view",
      "type": "function",
      "constant": true
    },
    {
      "inputs": [
        {
          "internalType": "uint256",
          "name": "",
          "type": "uint256"
        }
      ],
      "name": "assets",
      "outputs": [
        {
          "internalType": "uint256",
          "name": "assetID",
          "type": "uint256"
        },
        {
          "internalType": "string",
          "name": "_type",
          "type": "string"
        },
        {
          "internalType": "bool",
          "name": "avlToBuy",
          "type": "bool"
        },
        {
          "internalType": "address",
          "name": "owner",
          "type": "address"
        },
        {
          "internalType": "uint128",
          "name": "price",
          "type": "uint128"
        }
      ],
      "stateMutability": "view",
      "type": "function",
      "constant": true
    },
    {
      "inputs": [
        {
          "internalType": "address",
          "name": "owner",
          "type": "address"
        }
      ],
      "name": "balanceOf",
      "outputs": [
        {
          "internalType": "uint256",
          "name": "",
          "type": "uint256"
        }
      ],
      "stateMutability": "view",
      "type": "function",
      "constant": true
    },
    {
      "inputs": [],
      "name": "cityMayor",
      "outputs": [
        {
          "internalType": "address",
          "name": "",
          "type": "address"
        }
      ],
      "stateMutability": "view",
      "type": "function",
      "constant": true
    },
    {
      "inputs": [
        {
          "internalType": "uint256",
          "name": "tokenId",
          "type": "uint256"
        }
      ],
      "name": "getApproved",
      "outputs": [
        {
          "internalType": "address",
          "name": "",
          "type": "address"
        }
      ],
      "stateMutability": "view",
      "type": "function",
      "constant": true
    },
    {
      "inputs": [
        {
          "internalType": "address",
          "name": "owner",
          "type": "address"
        },
        {
          "internalType": "address",
          "name": "operator",
          "type": "address"
        }
      ],
      "name": "isApprovedForAll",
      "outputs": [
        {
          "internalType": "bool",
          "name": "",
          "type": "bool"
        }
      ],
      "stateMutability": "view",
      "type": "function",
      "constant": true
    },
    {
      "inputs": [],
      "name": "name",
      "outputs": [
        {
          "internalType": "string",
          "name": "",
          "type": "string"
        }
      ],
      "stateMutability": "view",
      "type": "function",
      "constant": true
    },
    {
      "inputs": [
        {
          "internalType": "uint256",
          "name": "tokenId",
          "type": "uint256"
        }
      ],
      "name": "ownerOf",
      "outputs": [
        {
          "internalType": "address",
          "name": "",
          "type": "address"
        }
      ],
      "stateMutability": "view",
      "type": "function",
      "constant": true
    },
    {
      "inputs": [
        {
          "internalType": "address",
          "name": "from",
          "type": "address"
        },
        {
          "internalType": "address",
          "name": "to",
          "type": "address"
        },
        {
          "internalType": "uint256",
          "name": "tokenId",
          "type": "uint256"
        }
      ],
      "name": "safeTransferFrom",
      "outputs": [],
      "stateMutability": "nonpayable",
      "type": "function"
    },
    {
      "inputs": [
        {
          "internalType": "address",
          "name": "from",
          "type": "address"
        },
        {
          "internalType": "address",
          "name": "to",
          "type": "address"
        },
        {
          "internalType": "uint256",
          "name": "tokenId",
          "type": "uint256"
        },
        {
          "internalType": "bytes",
          "name": "_data",
          "type": "bytes"
        }
      ],
      "name": "safeTransferFrom",
      "outputs": [],
      "stateMutability": "nonpayable",
      "type": "function"
    },
    {
      "inputs": [
        {
          "internalType": "address",
          "name": "operator",
          "type": "address"
        },
        {
          "internalType": "bool",
          "name": "approved",
          "type": "bool"
        }
      ],
      "name": "setApprovalForAll",
      "outputs": [],
      "stateMutability": "nonpayable",
      "type": "function"
    },
    {
      "inputs": [
        {
          "internalType": "bytes4",
          "name": "interfaceId",
          "type": "bytes4"
        }
      ],
      "name": "supportsInterface",
      "outputs": [
        {
          "internalType": "bool",
          "name": "",
          "type": "bool"
        }
      ],
      "stateMutability": "view",
      "type": "function",
      "constant": true
    },
    {
      "inputs": [],
      "name": "symbol",
      "outputs": [
        {
          "internalType": "string",
          "name": "",
          "type": "string"
        }
      ],
      "stateMutability": "view",
      "type": "function",
      "constant": true
    },
    {
      "inputs": [
        {
          "internalType": "uint256",
          "name": "tokenId",
          "type": "uint256"
        }
      ],
      "name": "tokenURI",
      "outputs": [
        {
          "internalType": "string",
          "name": "",
          "type": "string"
        }
      ],
      "stateMutability": "view",
      "type": "function",
      "constant": true
    },
    {
      "inputs": [
        {
          "internalType": "address",
          "name": "from",
          "type": "address"
        },
        {
          "internalType": "address",
          "name": "to",
          "type": "address"
        },
        {
          "internalType": "uint256",
          "name": "tokenId",
          "type": "uint256"
        }
      ],
      "name": "transferFrom",
      "outputs": [],
      "stateMutability": "nonpayable",
      "type": "function"
    },
    {
      "inputs": [
        {
          "internalType": "address",
          "name": "owner",
          "type": "address"
        },
        {
          "internalType": "string",
          "name": "_type",
          "type": "string"
        }
      ],
      "name": "registerAsset",
      "outputs": [],
      "stateMutability": "nonpayable",
      "type": "function"
    },
    {
      "inputs": [
        {
          "internalType": "uint256",
          "name": "id",
          "type": "uint256"
        }
      ],
      "name": "getAssetDetails",
      "outputs": [
        {
          "internalType": "address",
          "name": "owner",
          "type": "address"
        },
        {
          "internalType": "bool",
          "name": "canBuy",
          "type": "bool"
        },
        {
          "internalType": "string",
          "name": "_type",
          "type": "string"
        }
      ],
      "stateMutability": "view",
      "type": "function",
      "constant": true
    },
    {
      "inputs": [],
      "name": "fetchMyAssets",
      "outputs": [
        {
          "components": [
            {
              "internalType": "uint256",
              "name": "assetID",
              "type": "uint256"
            },
            {
              "internalType": "string",
              "name": "_type",
              "type": "string"
            },
            {
              "internalType": "bool",
              "name": "avlToBuy",
              "type": "bool"
            },
            {
              "internalType": "address",
              "name": "owner",
              "type": "address"
            },
            {
              "internalType": "uint128",
              "name": "price",
              "type": "uint128"
            }
          ],
          "internalType": "struct RealEstate.Asset[]",
          "name": "",
          "type": "tuple[]"
        }
      ],
      "stateMutability": "view",
      "type": "function",
      "constant": true
    },
    {
      "inputs": [],
      "name": "fetchAllAssetsForSale",
      "outputs": [
        {
          "components": [
            {
              "internalType": "uint256",
              "name": "assetID",
              "type": "uint256"
            },
            {
              "internalType": "string",
              "name": "_type",
              "type": "string"
            },
            {
              "internalType": "bool",
              "name": "avlToBuy",
              "type": "bool"
            },
            {
              "internalType": "address",
              "name": "owner",
              "type": "address"
            },
            {
              "internalType": "uint128",
              "name": "price",
              "type": "uint128"
            }
          ],
          "internalType": "struct RealEstate.Asset[]",
          "name": "",
          "type": "tuple[]"
        }
      ],
      "stateMutability": "view",
      "type": "function",
      "constant": true
    },
    {
      "inputs": [
        {
          "internalType": "uint256",
          "name": "assetID",
          "type": "uint256"
        },
        {
          "internalType": "uint128",
          "name": "price",
          "type": "uint128"
        }
      ],
      "name": "setForSale",
      "outputs": [],
      "stateMutability": "nonpayable",
      "type": "function"
    },
    {
      "inputs": [
        {
          "internalType": "uint256",
          "name": "assetId",
          "type": "uint256"
        },
        {
          "internalType": "uint128",
          "name": "value",
          "type": "uint128"
        }
      ],
      "name": "renuvate",
      "outputs": [],
      "stateMutability": "nonpayable",
      "type": "function"
    },
    {
      "inputs": [
        {
          "internalType": "uint256",
          "name": "assetId",
          "type": "uint256"
        },
        {
          "internalType": "uint128",
          "name": "value",
          "type": "uint128"
        }
      ],
      "name": "appreciate",
      "outputs": [],
      "stateMutability": "nonpayable",
      "type": "function"
    },
    {
      "inputs": [
        {
          "internalType": "uint256",
          "name": "assetId",
          "type": "uint256"
        },
        {
          "internalType": "uint128",
          "name": "value",
          "type": "uint128"
        }
      ],
      "name": "depreciate",
      "outputs": [],
      "stateMutability": "nonpayable",
      "type": "function"
    },
    {
      "inputs": [
        {
          "internalType": "uint256",
          "name": "assetId",
          "type": "uint256"
        },
        {
          "internalType": "address",
          "name": "buyer",
          "type": "address"
        }
      ],
      "name": "approveBuyer",
      "outputs": [],
      "stateMutability": "nonpayable",
      "type": "function"
    },
    {
      "inputs": [
        {
          "internalType": "uint256",
          "name": "assetId",
          "type": "uint256"
        },
        {
          "internalType": "address",
          "name": "approved",
          "type": "address"
        }
      ],
      "name": "clearBuyerApproval",
      "outputs": [],
      "stateMutability": "nonpayable",
      "type": "function"
    },
    {
      "inputs": [
        {
          "internalType": "address payable",
          "name": "from",
          "type": "address"
        },
        {
          "internalType": "uint256",
          "name": "assetId",
          "type": "uint256"
        }
      ],
      "name": "buy",
      "outputs": [],
      "stateMutability": "payable",
      "type": "function",
      "payable": true
    }
  ],
  "bytecode": "0x60806040523480156200001157600080fd5b506040518060400160405280601881526020017f5265616c2045737461746520546f6b656e73696174696f6e00000000000000008152506040518060400160405280600481526020017f504553540000000000000000000000000000000000000000000000000000000081525081600090805190602001906200009692919062000101565b508060019080519060200190620000af92919062000101565b505050600060068190555033600a60006101000a81548173ffffffffffffffffffffffffffffffffffffffff021916908373ffffffffffffffffffffffffffffffffffffffff16021790555062000216565b8280546200010f90620001b1565b90600052602060002090601f0160209004810192826200013357600085556200017f565b82601f106200014e57805160ff19168380011785556200017f565b828001600101855582156200017f579182015b828111156200017e57825182559160200191906001019062000161565b5b5090506200018e919062000192565b5090565b5b80821115620001ad57600081600090555060010162000193565b5090565b60006002820490506001821680620001ca57607f821691505b60208210811415620001e157620001e0620001e7565b5b50919050565b7f4e487b7100000000000000000000000000000000000000000000000000000000600052602260045260246000fd5b614c0f80620002266000396000f3fe6080604052600436106101b75760003560e01c8063a1f24b3d116100ec578063c87b56dd1161008a578063e450fbc211610064578063e450fbc214610637578063e985e9c514610660578063eafe7a741461069d578063f2c8462e146106c8576101b7565b8063c87b56dd1461059d578063cce7ec13146105da578063cf35bdd0146105f6576101b7565b8063b7007ca9116100c6578063b7007ca9146104f5578063b88d4fde1461051e578063bbf9988614610547578063c120ac2d14610572576101b7565b8063a1f24b3d14610464578063a22cb465146104a3578063b4a5a983146104cc576101b7565b806344adbebe116101595780638151880f116101335780638151880f146103a857806394f4b8bf146103e557806395d89b41146104105780639d8ede971461043b576101b7565b806344adbebe146103055780636352211e1461032e57806370a082311461036b576101b7565b8063095ea7b311610195578063095ea7b31461026157806323b872dd1461028a57806342842e0e146102b35780634440bb5c146102dc576101b7565b806301ffc9a7146101bc57806306fdde03146101f9578063081812fc14610224575b600080fd5b3480156101c857600080fd5b506101e360048036038101906101de91906134ca565b6106f1565b6040516101f09190613c8f565b60405180910390f35b34801561020557600080fd5b5061020e6107d3565b60405161021b9190613caa565b60405180910390f35b34801561023057600080fd5b5061024b6004803603810190610246919061351c565b610865565b6040516102589190613b9f565b60405180910390f35b34801561026d57600080fd5b506102886004803603810190610283919061348e565b6108ea565b005b34801561029657600080fd5b506102b160048036038101906102ac9190613334565b610a02565b005b3480156102bf57600080fd5b506102da60048036038101906102d59190613334565b610a62565b005b3480156102e857600080fd5b5061030360048036038101906102fe9190613581565b610a82565b005b34801561031157600080fd5b5061032c60048036038101906103279190613581565b610be2565b005b34801561033a57600080fd5b506103556004803603810190610350919061351c565b610d00565b6040516103629190613b9f565b60405180910390f35b34801561037757600080fd5b50610392600480360381019061038d9190613293565b610db2565b60405161039f9190613fec565b60405180910390f35b3480156103b457600080fd5b506103cf60048036038101906103ca919061351c565b610e6a565b6040516103dc9190613b9f565b60405180910390f35b3480156103f157600080fd5b506103fa610e9d565b6040516104079190613b9f565b60405180910390f35b34801561041c57600080fd5b50610425610ec3565b6040516104329190613caa565b60405180910390f35b34801561044757600080fd5b50610462600480360381019061045d9190613545565b610f55565b005b34801561047057600080fd5b5061048b6004803603810190610486919061351c565b610ff5565b60405161049a93929190613c06565b60405180910390f35b3480156104af57600080fd5b506104ca60048036038101906104c591906133fe565b6110d3565b005b3480156104d857600080fd5b506104f360048036038101906104ee919061343a565b6110e9565b005b34801561050157600080fd5b5061051c60048036038101906105179190613545565b6113b3565b005b34801561052a57600080fd5b5061054560048036038101906105409190613383565b611472565b005b34801561055357600080fd5b5061055c6114d4565b6040516105699190613c6d565b60405180910390f35b34801561057e57600080fd5b5061058761178b565b6040516105949190613c6d565b60405180910390f35b3480156105a957600080fd5b506105c460048036038101906105bf919061351c565b611a36565b6040516105d19190613caa565b60405180910390f35b6105f460048036038101906105ef91906132bc565b611add565b005b34801561060257600080fd5b5061061d6004803603810190610618919061351c565b611fe2565b60405161062e959493929190614007565b60405180910390f35b34801561064357600080fd5b5061065e60048036038101906106599190613581565b6120e9565b005b34801561066c57600080fd5b50610687600480360381019061068291906132f8565b612207565b6040516106949190613c8f565b60405180910390f35b3480156106a957600080fd5b506106b261229b565b6040516106bf9190613fec565b60405180910390f35b3480156106d457600080fd5b506106ef60048036038101906106ea9190613581565b6122a1565b005b60007f80ac58cd000000000000000000000000000000000000000000000000000000007bffffffffffffffffffffffffffffffffffffffffffffffffffffffff1916827bffffffffffffffffffffffffffffffffffffffffffffffffffffffff191614806107bc57507f5b5e139f000000000000000000000000000000000000000000000000000000007bffffffffffffffffffffffffffffffffffffffffffffffffffffffff1916827bffffffffffffffffffffffffffffffffffffffffffffffffffffffff1916145b806107cc57506107cb826123a5565b5b9050919050565b6060600080546107e290614402565b80601f016020809104026020016040519081016040528092919081815260200182805461080e90614402565b801561085b5780601f106108305761010080835404028352916020019161085b565b820191906000526020600020905b81548152906001019060200180831161083e57829003601f168201915b5050505050905090565b60006108708261240f565b6108af576040517f08c379a00000000000000000000000000000000000000000000000000000000081526004016108a690613ecc565b60405180910390fd5b6004600083815260200190815260200160002060009054906101000a900473ffffffffffffffffffffffffffffffffffffffff169050919050565b60006108f582610d00565b90508073ffffffffffffffffffffffffffffffffffffffff168373ffffffffffffffffffffffffffffffffffffffff161415610966576040517f08c379a000000000000000000000000000000000000000000000000000000000815260040161095d90613f4c565b60405180910390fd5b8073ffffffffffffffffffffffffffffffffffffffff1661098561247b565b73ffffffffffffffffffffffffffffffffffffffff1614806109b457506109b3816109ae61247b565b612207565b5b6109f3576040517f08c379a00000000000000000000000000000000000000000000000000000000081526004016109ea90613dec565b60405180910390fd5b6109fd8383612483565b505050565b610a13610a0d61247b565b8261253c565b610a52576040517f08c379a0000000000000000000000000000000000000000000000000000000008152600401610a4990613f8c565b60405180910390fd5b610a5d83838361261a565b505050565b610a7d83838360405180602001604052806000815250611472565b505050565b3373ffffffffffffffffffffffffffffffffffffffff16610aa283610d00565b73ffffffffffffffffffffffffffffffffffffffff1614610af8576040517f08c379a0000000000000000000000000000000000000000000000000000000008152600401610aef90613d0c565b60405180910390fd5b600015156007600084815260200190815260200160002060020160009054906101000a900460ff16151514610b62576040517f08c379a0000000000000000000000000000000000000000000000000000000008152600401610b5990613fac565b60405180910390fd5b60016007600084815260200190815260200160002060020160006101000a81548160ff021916908315150217905550806007600084815260200190815260200160002060030160006101000a8154816fffffffffffffffffffffffffffffffff02191690836fffffffffffffffffffffffffffffffff1602179055505050565b600a60009054906101000a900473ffffffffffffffffffffffffffffffffffffffff1673ffffffffffffffffffffffffffffffffffffffff163373ffffffffffffffffffffffffffffffffffffffff1614610c72576040517f08c379a0000000000000000000000000000000000000000000000000000000008152600401610c6990613e8c565b60405180910390fd5b806007600084815260200190815260200160002060030160009054906101000a90046fffffffffffffffffffffffffffffffff16610cb09190614175565b6007600084815260200190815260200160002060030160006101000a8154816fffffffffffffffffffffffffffffffff02191690836fffffffffffffffffffffffffffffffff1602179055505050565b6000806002600084815260200190815260200160002060009054906101000a900473ffffffffffffffffffffffffffffffffffffffff169050600073ffffffffffffffffffffffffffffffffffffffff168173ffffffffffffffffffffffffffffffffffffffff161415610da9576040517f08c379a0000000000000000000000000000000000000000000000000000000008152600401610da090613e4c565b60405180910390fd5b80915050919050565b60008073ffffffffffffffffffffffffffffffffffffffff168273ffffffffffffffffffffffffffffffffffffffff161415610e23576040517f08c379a0000000000000000000000000000000000000000000000000000000008152600401610e1a90613e2c565b60405180910390fd5b600360008373ffffffffffffffffffffffffffffffffffffffff1673ffffffffffffffffffffffffffffffffffffffff168152602001908152602001600020549050919050565b60086020528060005260406000206000915054906101000a900473ffffffffffffffffffffffffffffffffffffffff1681565b600a60009054906101000a900473ffffffffffffffffffffffffffffffffffffffff1681565b606060018054610ed290614402565b80601f0160208091040260200160405190810160405280929190818152602001828054610efe90614402565b8015610f4b5780601f10610f2057610100808354040283529160200191610f4b565b820191906000526020600020905b815481529060010190602001808311610f2e57829003601f168201915b5050505050905090565b610f5e82610d00565b73ffffffffffffffffffffffffffffffffffffffff163373ffffffffffffffffffffffffffffffffffffffff1614610f9557600080fd5b610f9f81836108ea565b806008600084815260200190815260200160002060006101000a81548173ffffffffffffffffffffffffffffffffffffffff021916908373ffffffffffffffffffffffffffffffffffffffff1602179055505050565b600080606061100384610d00565b92506007600085815260200190815260200160002060020160009054906101000a900460ff16915060076000858152602001908152602001600020600101805461104c90614402565b80601f016020809104026020016040519081016040528092919081815260200182805461107890614402565b80156110c55780601f1061109a576101008083540402835291602001916110c5565b820191906000526020600020905b8154815290600101906020018083116110a857829003601f168201915b505050505090509193909250565b6110e56110de61247b565b8383612876565b5050565b600a60009054906101000a900473ffffffffffffffffffffffffffffffffffffffff1673ffffffffffffffffffffffffffffffffffffffff163373ffffffffffffffffffffffffffffffffffffffff1614611179576040517f08c379a000000000000000000000000000000000000000000000000000000000815260040161117090613f2c565b60405180910390fd5b600654600760006006548152602001908152602001600020600001819055508060076000600654815260200190815260200160002060010190805190602001906111c4929190613034565b50600060076000600654815260200190815260200160002060020160006101000a81548160ff021916908315150217905550600060076000600654815260200190815260200160002060030160006101000a8154816fffffffffffffffffffffffffffffffff02191690836fffffffffffffffffffffffffffffffff1602179055508160076000600654815260200190815260200160002060020160016101000a81548173ffffffffffffffffffffffffffffffffffffffff021916908373ffffffffffffffffffffffffffffffffffffffff1602179055507fbe111e194ea43bdf40a48d96e7676fe1ad4f24207b119021b09114a8915202d8826006546040516112d0929190613c44565b60405180910390a16006548273ffffffffffffffffffffffffffffffffffffffff16600073ffffffffffffffffffffffffffffffffffffffff167fddf252ad1be2c89b69c2b068fc378daa952ba7f163c4a11628f55a4df523b3ef60405160405180910390a4611342826006546129e3565b600960008373ffffffffffffffffffffffffffffffffffffffff1673ffffffffffffffffffffffffffffffffffffffff168152602001908152602001600020600081548092919061139290614465565b9190505550600660008154809291906113aa90614465565b91905055505050565b8073ffffffffffffffffffffffffffffffffffffffff166008600084815260200190815260200160002060009054906101000a900473ffffffffffffffffffffffffffffffffffffffff1673ffffffffffffffffffffffffffffffffffffffff16141561146e5760006008600084815260200190815260200160002060006101000a81548173ffffffffffffffffffffffffffffffffffffffff021916908373ffffffffffffffffffffffffffffffffffffffff1602179055505b5050565b61148361147d61247b565b8361253c565b6114c2576040517f08c379a00000000000000000000000000000000000000000000000000000000081526004016114b990613f8c565b60405180910390fd5b6114ce84848484612bb1565b50505050565b606060008060065467ffffffffffffffff81111561151b577f4e487b7100000000000000000000000000000000000000000000000000000000600052604160045260246000fd5b60405190808252806020026020018201604052801561155457816020015b6115416130ba565b8152602001906001900390816115395790505b50905060005b600654811015611782573373ffffffffffffffffffffffffffffffffffffffff1661158482610d00565b73ffffffffffffffffffffffffffffffffffffffff16141561176f576000600760008381526020019081526020016000209050806040518060a0016040529081600082015481526020016001820180546115dd90614402565b80601f016020809104026020016040519081016040528092919081815260200182805461160990614402565b80156116565780601f1061162b57610100808354040283529160200191611656565b820191906000526020600020905b81548152906001019060200180831161163957829003601f168201915b505050505081526020016002820160009054906101000a900460ff161515151581526020016002820160019054906101000a900473ffffffffffffffffffffffffffffffffffffffff1673ffffffffffffffffffffffffffffffffffffffff1673ffffffffffffffffffffffffffffffffffffffff1681526020016003820160009054906101000a90046fffffffffffffffffffffffffffffffff166fffffffffffffffffffffffffffffffff166fffffffffffffffffffffffffffffffff1681525050838581518110611753577f4e487b7100000000000000000000000000000000000000000000000000000000600052603260045260246000fd5b602002602001018190525060018461176b91906141bb565b9350505b808061177a90614465565b91505061155a565b50809250505090565b606060008060065467ffffffffffffffff8111156117d2577f4e487b7100000000000000000000000000000000000000000000000000000000600052604160045260246000fd5b60405190808252806020026020018201604052801561180b57816020015b6117f86130ba565b8152602001906001900390816117f05790505b50905060005b600654811015611a2d57600115156007600083815260200190815260200160002060020160009054906101000a900460ff1615151415611a1a576000600760008381526020019081526020016000209050806040518060a00160405290816000820154815260200160018201805461188890614402565b80601f01602080910402602001604051908101604052809291908181526020018280546118b490614402565b80156119015780601f106118d657610100808354040283529160200191611901565b820191906000526020600020905b8154815290600101906020018083116118e457829003601f168201915b505050505081526020016002820160009054906101000a900460ff161515151581526020016002820160019054906101000a900473ffffffffffffffffffffffffffffffffffffffff1673ffffffffffffffffffffffffffffffffffffffff1673ffffffffffffffffffffffffffffffffffffffff1681526020016003820160009054906101000a90046fffffffffffffffffffffffffffffffff166fffffffffffffffffffffffffffffffff166fffffffffffffffffffffffffffffffff16815250508385815181106119fe577f4e487b7100000000000000000000000000000000000000000000000000000000600052603260045260246000fd5b6020026020010181905250600184611a1691906141bb565b9350505b8080611a2590614465565b915050611811565b50809250505090565b6060611a418261240f565b611a80576040517f08c379a0000000000000000000000000000000000000000000000000000000008152600401611a7790613f0c565b60405180910390fd5b6000611a8a612c0d565b90506000815111611aaa5760405180602001604052806000815250611ad5565b80611ab484612c24565b604051602001611ac5929190613b7b565b6040516020818303038152906040525b915050919050565b611ae68161240f565b611b25576040517f08c379a0000000000000000000000000000000000000000000000000000000008152600401611b1c90613d6c565b60405180910390fd5b3373ffffffffffffffffffffffffffffffffffffffff16611b4582610d00565b73ffffffffffffffffffffffffffffffffffffffff161415611b9c576040517f08c379a0000000000000000000000000000000000000000000000000000000008152600401611b9390613d4c565b60405180910390fd5b600115156007600083815260200190815260200160002060020160009054906101000a900460ff16151514611c06576040517f08c379a0000000000000000000000000000000000000000000000000000000008152600401611bfd90613e0c565b60405180910390fd5b6007600082815260200190815260200160002060030160009054906101000a90046fffffffffffffffffffffffffffffffff166fffffffffffffffffffffffffffffffff16341015611c8d576040517f08c379a0000000000000000000000000000000000000000000000000000000008152600401611c8490613f6c565b60405180910390fd5b611c973382612dd1565b611cd6576040517f08c379a0000000000000000000000000000000000000000000000000000000008152600401611ccd90613e6c565b60405180910390fd5b8173ffffffffffffffffffffffffffffffffffffffff16611cf682610d00565b73ffffffffffffffffffffffffffffffffffffffff1614611d4c576040517f08c379a0000000000000000000000000000000000000000000000000000000008152600401611d4390613fcc565b60405180910390fd5b611d5e81611d5983610865565b6113b3565b600960008373ffffffffffffffffffffffffffffffffffffffff1673ffffffffffffffffffffffffffffffffffffffff1681526020019081526020016000206000815480929190611dae906143d8565b9190505550600960003373ffffffffffffffffffffffffffffffffffffffff1673ffffffffffffffffffffffffffffffffffffffff1681526020019081526020016000206000815480929190611e0390614465565b91905055508173ffffffffffffffffffffffffffffffffffffffff166108fc670de0b6b3a76400006007600085815260200190815260200160002060030160009054906101000a90046fffffffffffffffffffffffffffffffff16611e689190614242565b6fffffffffffffffffffffffffffffffff169081150290604051600060405180830381858888f19350505050158015611ea5573d6000803e3d6000fd5b5060006007600083815260200190815260200160002060020160006101000a81548160ff02191690831515021790555060006007600083815260200190815260200160002060030160006101000a8154816fffffffffffffffffffffffffffffffff02191690836fffffffffffffffffffffffffffffffff160217905550611f2e823383610a02565b336007600083815260200190815260200160002060020160016101000a81548173ffffffffffffffffffffffffffffffffffffffff021916908373ffffffffffffffffffffffffffffffffffffffff160217905550803373ffffffffffffffffffffffffffffffffffffffff168373ffffffffffffffffffffffffffffffffffffffff167fddf252ad1be2c89b69c2b068fc378daa952ba7f163c4a11628f55a4df523b3ef60405160405180910390a45050565b600760205280600052604060002060009150905080600001549080600101805461200b90614402565b80601f016020809104026020016040519081016040528092919081815260200182805461203790614402565b80156120845780601f1061205957610100808354040283529160200191612084565b820191906000526020600020905b81548152906001019060200180831161206757829003601f168201915b5050505050908060020160009054906101000a900460ff16908060020160019054906101000a900473ffffffffffffffffffffffffffffffffffffffff16908060030160009054906101000a90046fffffffffffffffffffffffffffffffff16905085565b600a60009054906101000a900473ffffffffffffffffffffffffffffffffffffffff1673ffffffffffffffffffffffffffffffffffffffff163373ffffffffffffffffffffffffffffffffffffffff1614612179576040517f08c379a000000000000000000000000000000000000000000000000000000000815260040161217090613e8c565b60405180910390fd5b806007600084815260200190815260200160002060030160009054906101000a90046fffffffffffffffffffffffffffffffff166121b7919061428c565b6007600084815260200190815260200160002060030160006101000a8154816fffffffffffffffffffffffffffffffff02191690836fffffffffffffffffffffffffffffffff1602179055505050565b6000600560008473ffffffffffffffffffffffffffffffffffffffff1673ffffffffffffffffffffffffffffffffffffffff16815260200190815260200160002060008373ffffffffffffffffffffffffffffffffffffffff1673ffffffffffffffffffffffffffffffffffffffff16815260200190815260200160002060009054906101000a900460ff16905092915050565b60065481565b6122aa82610d00565b73ffffffffffffffffffffffffffffffffffffffff163373ffffffffffffffffffffffffffffffffffffffff1614612317576040517f08c379a000000000000000000000000000000000000000000000000000000000815260040161230e90613e8c565b60405180910390fd5b806007600084815260200190815260200160002060030160009054906101000a90046fffffffffffffffffffffffffffffffff166123559190614175565b6007600084815260200190815260200160002060030160006101000a8154816fffffffffffffffffffffffffffffffff02191690836fffffffffffffffffffffffffffffffff1602179055505050565b60007f01ffc9a7000000000000000000000000000000000000000000000000000000007bffffffffffffffffffffffffffffffffffffffffffffffffffffffff1916827bffffffffffffffffffffffffffffffffffffffffffffffffffffffff1916149050919050565b60008073ffffffffffffffffffffffffffffffffffffffff166002600084815260200190815260200160002060009054906101000a900473ffffffffffffffffffffffffffffffffffffffff1673ffffffffffffffffffffffffffffffffffffffff1614159050919050565b600033905090565b816004600083815260200190815260200160002060006101000a81548173ffffffffffffffffffffffffffffffffffffffff021916908373ffffffffffffffffffffffffffffffffffffffff160217905550808273ffffffffffffffffffffffffffffffffffffffff166124f683610d00565b73ffffffffffffffffffffffffffffffffffffffff167f8c5be1e5ebec7d5bd14f71427d1e84f3dd0314c0f7b2291e5b200ac8c7c3b92560405160405180910390a45050565b60006125478261240f565b612586576040517f08c379a000000000000000000000000000000000000000000000000000000000815260040161257d90613dcc565b60405180910390fd5b600061259183610d00565b90508073ffffffffffffffffffffffffffffffffffffffff168473ffffffffffffffffffffffffffffffffffffffff16148061260057508373ffffffffffffffffffffffffffffffffffffffff166125e884610865565b73ffffffffffffffffffffffffffffffffffffffff16145b8061261157506126108185612207565b5b91505092915050565b8273ffffffffffffffffffffffffffffffffffffffff1661263a82610d00565b73ffffffffffffffffffffffffffffffffffffffff1614612690576040517f08c379a000000000000000000000000000000000000000000000000000000000815260040161268790613eec565b60405180910390fd5b600073ffffffffffffffffffffffffffffffffffffffff168273ffffffffffffffffffffffffffffffffffffffff161415612700576040517f08c379a00000000000000000000000000000000000000000000000000000000081526004016126f790613d8c565b60405180910390fd5b61270b838383612e85565b612716600082612483565b6001600360008573ffffffffffffffffffffffffffffffffffffffff1673ffffffffffffffffffffffffffffffffffffffff168152602001908152602001600020600082825461276691906142c0565b925050819055506001600360008473ffffffffffffffffffffffffffffffffffffffff1673ffffffffffffffffffffffffffffffffffffffff16815260200190815260200160002060008282546127bd91906141bb565b92505081905550816002600083815260200190815260200160002060006101000a81548173ffffffffffffffffffffffffffffffffffffffff021916908373ffffffffffffffffffffffffffffffffffffffff160217905550808273ffffffffffffffffffffffffffffffffffffffff168473ffffffffffffffffffffffffffffffffffffffff167fddf252ad1be2c89b69c2b068fc378daa952ba7f163c4a11628f55a4df523b3ef60405160405180910390a4505050565b8173ffffffffffffffffffffffffffffffffffffffff168373ffffffffffffffffffffffffffffffffffffffff1614156128e5576040517f08c379a00000000000000000000000000000000000000000000000000000000081526004016128dc90613dac565b60405180910390fd5b80600560008573ffffffffffffffffffffffffffffffffffffffff1673ffffffffffffffffffffffffffffffffffffffff16815260200190815260200160002060008473ffffffffffffffffffffffffffffffffffffffff1673ffffffffffffffffffffffffffffffffffffffff16815260200190815260200160002060006101000a81548160ff0219169083151502179055508173ffffffffffffffffffffffffffffffffffffffff168373ffffffffffffffffffffffffffffffffffffffff167f17307eab39ab6107e8899845ad3d59bd9653f200f220920489ca2b5937696c31836040516129d69190613c8f565b60405180910390a3505050565b600073ffffffffffffffffffffffffffffffffffffffff168273ffffffffffffffffffffffffffffffffffffffff161415612a53576040517f08c379a0000000000000000000000000000000000000000000000000000000008152600401612a4a90613eac565b60405180910390fd5b612a5c8161240f565b15612a9c576040517f08c379a0000000000000000000000000000000000000000000000000000000008152600401612a9390613d2c565b60405180910390fd5b612aa860008383612e85565b6001600360008473ffffffffffffffffffffffffffffffffffffffff1673ffffffffffffffffffffffffffffffffffffffff1681526020019081526020016000206000828254612af891906141bb565b92505081905550816002600083815260200190815260200160002060006101000a81548173ffffffffffffffffffffffffffffffffffffffff021916908373ffffffffffffffffffffffffffffffffffffffff160217905550808273ffffffffffffffffffffffffffffffffffffffff16600073ffffffffffffffffffffffffffffffffffffffff167fddf252ad1be2c89b69c2b068fc378daa952ba7f163c4a11628f55a4df523b3ef60405160405180910390a45050565b612bbc84848461261a565b612bc884848484612e8a565b612c07576040517f08c379a0000000000000000000000000000000000000000000000000000000008152600401612bfe90613cec565b60405180910390fd5b50505050565b606060405180602001604052806000815250905090565b60606000821415612c6c576040518060400160405280600181526020017f30000000000000000000000000000000000000000000000000000000000000008152509050612dcc565b600082905060005b60008214612c9e578080612c8790614465565b915050600a82612c979190614211565b9150612c74565b60008167ffffffffffffffff811115612ce0577f4e487b7100000000000000000000000000000000000000000000000000000000600052604160045260246000fd5b6040519080825280601f01601f191660200182016040528015612d125781602001600182028036833780820191505090505b5090505b60008514612dc557600182612d2b91906142c0565b9150600a85612d3a91906144ae565b6030612d4691906141bb565b60f81b818381518110612d82577f4e487b7100000000000000000000000000000000000000000000000000000000600052603260045260246000fd5b60200101907effffffffffffffffffffffffffffffffffffffffffffffffffffffffffffff1916908160001a905350600a85612dbe9190614211565b9450612d16565b8093505050505b919050565b6000612ddc8261240f565b612e1b576040517f08c379a0000000000000000000000000000000000000000000000000000000008152600401612e1290613ccc565b60405180910390fd5b8273ffffffffffffffffffffffffffffffffffffffff166008600084815260200190815260200160002060009054906101000a900473ffffffffffffffffffffffffffffffffffffffff1673ffffffffffffffffffffffffffffffffffffffff1614905092915050565b505050565b6000612eab8473ffffffffffffffffffffffffffffffffffffffff16613021565b15613014578373ffffffffffffffffffffffffffffffffffffffff1663150b7a02612ed461247b565b8786866040518563ffffffff1660e01b8152600401612ef69493929190613bba565b602060405180830381600087803b158015612f1057600080fd5b505af1925050508015612f4157506040513d601f19601f82011682018060405250810190612f3e91906134f3565b60015b612fc4573d8060008114612f71576040519150601f19603f3d011682016040523d82523d6000602084013e612f76565b606091505b50600081511415612fbc576040517f08c379a0000000000000000000000000000000000000000000000000000000008152600401612fb390613cec565b60405180910390fd5b805181602001fd5b63150b7a0260e01b7bffffffffffffffffffffffffffffffffffffffffffffffffffffffff1916817bffffffffffffffffffffffffffffffffffffffffffffffffffffffff191614915050613019565b600190505b949350505050565b600080823b905060008111915050919050565b82805461304090614402565b90600052602060002090601f01602090048101928261306257600085556130a9565b82601f1061307b57805160ff19168380011785556130a9565b828001600101855582156130a9579182015b828111156130a857825182559160200191906001019061308d565b5b5090506130b69190613113565b5090565b6040518060a001604052806000815260200160608152602001600015158152602001600073ffffffffffffffffffffffffffffffffffffffff16815260200160006fffffffffffffffffffffffffffffffff1681525090565b5b8082111561312c576000816000905550600101613114565b5090565b600061314361313e84614086565b614061565b90508281526020810184848401111561315b57600080fd5b613166848285614396565b509392505050565b600061318161317c846140b7565b614061565b90508281526020810184848401111561319957600080fd5b6131a4848285614396565b509392505050565b6000813590506131bb81614b4f565b92915050565b6000813590506131d081614b66565b92915050565b6000813590506131e581614b7d565b92915050565b6000813590506131fa81614b94565b92915050565b60008151905061320f81614b94565b92915050565b600082601f83011261322657600080fd5b8135613236848260208601613130565b91505092915050565b600082601f83011261325057600080fd5b813561326084826020860161316e565b91505092915050565b60008135905061327881614bab565b92915050565b60008135905061328d81614bc2565b92915050565b6000602082840312156132a557600080fd5b60006132b3848285016131ac565b91505092915050565b600080604083850312156132cf57600080fd5b60006132dd858286016131c1565b92505060206132ee8582860161327e565b9150509250929050565b6000806040838503121561330b57600080fd5b6000613319858286016131ac565b925050602061332a858286016131ac565b9150509250929050565b60008060006060848603121561334957600080fd5b6000613357868287016131ac565b9350506020613368868287016131ac565b92505060406133798682870161327e565b9150509250925092565b6000806000806080858703121561339957600080fd5b60006133a7878288016131ac565b94505060206133b8878288016131ac565b93505060406133c98782880161327e565b925050606085013567ffffffffffffffff8111156133e657600080fd5b6133f287828801613215565b91505092959194509250565b6000806040838503121561341157600080fd5b600061341f858286016131ac565b9250506020613430858286016131d6565b9150509250929050565b6000806040838503121561344d57600080fd5b600061345b858286016131ac565b925050602083013567ffffffffffffffff81111561347857600080fd5b6134848582860161323f565b9150509250929050565b600080604083850312156134a157600080fd5b60006134af858286016131ac565b92505060206134c08582860161327e565b9150509250929050565b6000602082840312156134dc57600080fd5b60006134ea848285016131eb565b91505092915050565b60006020828403121561350557600080fd5b600061351384828501613200565b91505092915050565b60006020828403121561352e57600080fd5b600061353c8482850161327e565b91505092915050565b6000806040838503121561355857600080fd5b60006135668582860161327e565b9250506020613577858286016131ac565b9150509250929050565b6000806040838503121561359457600080fd5b60006135a28582860161327e565b92505060206135b385828601613269565b9150509250929050565b60006135c98383613ac9565b905092915050565b6135da816142f4565b82525050565b6135e9816142f4565b82525050565b60006135fa826140f8565b6136048185614126565b935083602082028501613616856140e8565b8060005b85811015613652578484038952815161363385826135bd565b945061363e83614119565b925060208a0199505060018101905061361a565b50829750879550505050505092915050565b61366d81614318565b82525050565b61367c81614318565b82525050565b600061368d82614103565b6136978185614137565b93506136a78185602086016143a5565b6136b08161459b565b840191505092915050565b60006136c68261410e565b6136d08185614148565b93506136e08185602086016143a5565b6136e98161459b565b840191505092915050565b60006136ff8261410e565b6137098185614159565b93506137198185602086016143a5565b6137228161459b565b840191505092915050565b60006137388261410e565b613742818561416a565b93506137528185602086016143a5565b80840191505092915050565b600061376b601483614159565b9150613776826145ac565b602082019050919050565b600061378e603283614159565b9150613799826145d5565b604082019050919050565b60006137b1601283614159565b91506137bc82614624565b602082019050919050565b60006137d4601c83614159565b91506137df8261464d565b602082019050919050565b60006137f7601483614159565b915061380282614676565b602082019050919050565b600061381a601483614159565b91506138258261469f565b602082019050919050565b600061383d602483614159565b9150613848826146c8565b604082019050919050565b6000613860601983614159565b915061386b82614717565b602082019050919050565b6000613883602c83614159565b915061388e82614740565b604082019050919050565b60006138a6603883614159565b91506138b18261478f565b604082019050919050565b60006138c9601683614159565b91506138d4826147de565b602082019050919050565b60006138ec602a83614159565b91506138f782614807565b604082019050919050565b600061390f602983614159565b915061391a82614856565b604082019050919050565b6000613932601283614159565b915061393d826148a5565b602082019050919050565b6000613955600983614159565b9150613960826148ce565b602082019050919050565b6000613978602083614159565b9150613983826148f7565b602082019050919050565b600061399b602c83614159565b91506139a682614920565b604082019050919050565b60006139be602983614159565b91506139c98261496f565b604082019050919050565b60006139e1602f83614159565b91506139ec826149be565b604082019050919050565b6000613a04601a83614159565b9150613a0f82614a0d565b602082019050919050565b6000613a27602183614159565b9150613a3282614a36565b604082019050919050565b6000613a4a601583614159565b9150613a5582614a85565b602082019050919050565b6000613a6d603183614159565b9150613a7882614aae565b604082019050919050565b6000613a90601783614159565b9150613a9b82614afd565b602082019050919050565b6000613ab3601083614159565b9150613abe82614b26565b602082019050919050565b600060a083016000830151613ae16000860182613b5d565b5060208301518482036020860152613af982826136bb565b9150506040830151613b0e6040860182613664565b506060830151613b2160608601826135d1565b506080830151613b346080860182613b3f565b508091505092915050565b613b4881614350565b82525050565b613b5781614350565b82525050565b613b668161438c565b82525050565b613b758161438c565b82525050565b6000613b87828561372d565b9150613b93828461372d565b91508190509392505050565b6000602082019050613bb460008301846135e0565b92915050565b6000608082019050613bcf60008301876135e0565b613bdc60208301866135e0565b613be96040830185613b6c565b8181036060830152613bfb8184613682565b905095945050505050565b6000606082019050613c1b60008301866135e0565b613c286020830185613673565b8181036040830152613c3a81846136f4565b9050949350505050565b6000604082019050613c5960008301856135e0565b613c666020830184613b6c565b9392505050565b60006020820190508181036000830152613c8781846135ef565b905092915050565b6000602082019050613ca46000830184613673565b92915050565b60006020820190508181036000830152613cc481846136f4565b905092915050565b60006020820190508181036000830152613ce58161375e565b9050919050565b60006020820190508181036000830152613d0581613781565b9050919050565b60006020820190508181036000830152613d25816137a4565b9050919050565b60006020820190508181036000830152613d45816137c7565b9050919050565b60006020820190508181036000830152613d65816137ea565b9050919050565b60006020820190508181036000830152613d858161380d565b9050919050565b60006020820190508181036000830152613da581613830565b9050919050565b60006020820190508181036000830152613dc581613853565b9050919050565b60006020820190508181036000830152613de581613876565b9050919050565b60006020820190508181036000830152613e0581613899565b9050919050565b60006020820190508181036000830152613e25816138bc565b9050919050565b60006020820190508181036000830152613e45816138df565b9050919050565b60006020820190508181036000830152613e6581613902565b9050919050565b60006020820190508181036000830152613e8581613925565b9050919050565b60006020820190508181036000830152613ea581613948565b9050919050565b60006020820190508181036000830152613ec58161396b565b9050919050565b60006020820190508181036000830152613ee58161398e565b9050919050565b60006020820190508181036000830152613f05816139b1565b9050919050565b60006020820190508181036000830152613f25816139d4565b9050919050565b60006020820190508181036000830152613f45816139f7565b9050919050565b60006020820190508181036000830152613f6581613a1a565b9050919050565b60006020820190508181036000830152613f8581613a3d565b9050919050565b60006020820190508181036000830152613fa581613a60565b9050919050565b60006020820190508181036000830152613fc581613a83565b9050919050565b60006020820190508181036000830152613fe581613aa6565b9050919050565b60006020820190506140016000830184613b6c565b92915050565b600060a08201905061401c6000830188613b6c565b818103602083015261402e81876136f4565b905061403d6040830186613673565b61404a60608301856135e0565b6140576080830184613b4e565b9695505050505050565b600061406b61407c565b90506140778282614434565b919050565b6000604051905090565b600067ffffffffffffffff8211156140a1576140a061456c565b5b6140aa8261459b565b9050602081019050919050565b600067ffffffffffffffff8211156140d2576140d161456c565b5b6140db8261459b565b9050602081019050919050565b6000819050602082019050919050565b600081519050919050565b600081519050919050565b600081519050919050565b6000602082019050919050565b600082825260208201905092915050565b600082825260208201905092915050565b600082825260208201905092915050565b600082825260208201905092915050565b600081905092915050565b600061418082614350565b915061418b83614350565b9250826fffffffffffffffffffffffffffffffff038211156141b0576141af6144df565b5b828201905092915050565b60006141c68261438c565b91506141d18361438c565b9250827fffffffffffffffffffffffffffffffffffffffffffffffffffffffffffffffff03821115614206576142056144df565b5b828201905092915050565b600061421c8261438c565b91506142278361438c565b9250826142375761423661450e565b5b828204905092915050565b600061424d82614350565b915061425883614350565b9250816fffffffffffffffffffffffffffffffff0483118215151615614281576142806144df565b5b828202905092915050565b600061429782614350565b91506142a283614350565b9250828210156142b5576142b46144df565b5b828203905092915050565b60006142cb8261438c565b91506142d68361438c565b9250828210156142e9576142e86144df565b5b828203905092915050565b60006142ff8261436c565b9050919050565b60006143118261436c565b9050919050565b60008115159050919050565b60007fffffffff0000000000000000000000000000000000000000000000000000000082169050919050565b60006fffffffffffffffffffffffffffffffff82169050919050565b600073ffffffffffffffffffffffffffffffffffffffff82169050919050565b6000819050919050565b82818337600083830152505050565b60005b838110156143c35780820151818401526020810190506143a8565b838111156143d2576000848401525b50505050565b60006143e38261438c565b915060008214156143f7576143f66144df565b5b600182039050919050565b6000600282049050600182168061441a57607f821691505b6020821081141561442e5761442d61453d565b5b50919050565b61443d8261459b565b810181811067ffffffffffffffff8211171561445c5761445b61456c565b5b80604052505050565b60006144708261438c565b91507fffffffffffffffffffffffffffffffffffffffffffffffffffffffffffffffff8214156144a3576144a26144df565b5b600182019050919050565b60006144b98261438c565b91506144c48361438c565b9250826144d4576144d361450e565b5b828206905092915050565b7f4e487b7100000000000000000000000000000000000000000000000000000000600052601160045260246000fd5b7f4e487b7100000000000000000000000000000000000000000000000000000000600052601260045260246000fd5b7f4e487b7100000000000000000000000000000000000000000000000000000000600052602260045260246000fd5b7f4e487b7100000000000000000000000000000000000000000000000000000000600052604160045260246000fd5b6000601f19601f8301169050919050565b7f4e4f205375636820746f6b656e20457869737473000000000000000000000000600082015250565b7f4552433732313a207472616e7366657220746f206e6f6e20455243373231526560008201527f63656976657220696d706c656d656e7465720000000000000000000000000000602082015250565b7f4e6f74206f776e6572206f662041737365740000000000000000000000000000600082015250565b7f4552433732313a20746f6b656e20616c7265616479206d696e74656400000000600082015250565b7f20417373657420616c7265616479206f776e6564000000000000000000000000600082015250565b7f204173736574206e6f7420417661696c61626c65000000000000000000000000600082015250565b7f4552433732313a207472616e7366657220746f20746865207a65726f2061646460008201527f7265737300000000000000000000000000000000000000000000000000000000602082015250565b7f4552433732313a20617070726f766520746f2063616c6c657200000000000000600082015250565b7f4552433732313a206f70657261746f7220717565727920666f72206e6f6e657860008201527f697374656e7420746f6b656e0000000000000000000000000000000000000000602082015250565b7f4552433732313a20617070726f76652063616c6c6572206973206e6f74206f7760008201527f6e6572206e6f7220617070726f76656420666f7220616c6c0000000000000000602082015250565b7f4e6f7420617669616c62656c6520666f722053616c6500000000000000000000600082015250565b7f4552433732313a2062616c616e636520717565727920666f7220746865207a6560008201527f726f206164647265737300000000000000000000000000000000000000000000602082015250565b7f4552433732313a206f776e657220717565727920666f72206e6f6e657869737460008201527f656e7420746f6b656e0000000000000000000000000000000000000000000000602082015250565b7f4e6f7420417070726f7665642042757965720000000000000000000000000000600082015250565b7f4e6f74614d61796f720000000000000000000000000000000000000000000000600082015250565b7f4552433732313a206d696e7420746f20746865207a65726f2061646472657373600082015250565b7f4552433732313a20617070726f76656420717565727920666f72206e6f6e657860008201527f697374656e7420746f6b656e0000000000000000000000000000000000000000602082015250565b7f4552433732313a207472616e73666572206f6620746f6b656e2074686174206960008201527f73206e6f74206f776e0000000000000000000000000000000000000000000000602082015250565b7f4552433732314d657461646174613a2055524920717565727920666f72206e6f60008201527f6e6578697374656e7420746f6b656e0000000000000000000000000000000000602082015250565b7f4e6f7420417574686f72697a656420746f205265676973746572000000000000600082015250565b7f4552433732313a20617070726f76616c20746f2063757272656e74206f776e6560008201527f7200000000000000000000000000000000000000000000000000000000000000602082015250565b7f56616c7565206c657373207468616e2070726963650000000000000000000000600082015250565b7f4552433732313a207472616e736665722063616c6c6572206973206e6f74206f60008201527f776e6572206e6f7220617070726f766564000000000000000000000000000000602082015250565b7f416c7265616479204c697374656420466f722053616c65000000000000000000600082015250565b7f4e6f7454686561737365744f776e657200000000000000000000000000000000600082015250565b614b58816142f4565b8114614b6357600080fd5b50565b614b6f81614306565b8114614b7a57600080fd5b50565b614b8681614318565b8114614b9157600080fd5b50565b614b9d81614324565b8114614ba857600080fd5b50565b614bb481614350565b8114614bbf57600080fd5b50565b614bcb8161438c565b8114614bd657600080fd5b5056fea2646970667358221220ce6f71a130a78d11aaecd0e11d0aedb1bac52fbc3824441f5b24554d6fa1ae5b64736f6c63430008030033",
  "immutableReferences": {},
  "source": "//SPDX-License-Identifier: Unlicense\r\n\r\npragma solidity ^0.8.0;\r\n\r\nimport \"../client/openzeppelin-contracts/contracts/token/ERC721/ERC721.sol\";\r\ncontract RealEstate is ERC721\r\n{\r\n    \r\n    struct AssetDetails\r\n    {\r\n        \r\n        string detail;\r\n        \r\n        \r\n    }\r\n    \r\n    struct Asset\r\n    {\r\n        uint256 assetID;\r\n        string _type;\r\n        bool avlToBuy;\r\n      address owner;\r\n        uint128 price;\r\n        \r\n        \r\n    }\r\n    \r\n    uint256 public assetCount;\r\n    // Mappings \r\n    mapping(uint256=>Asset) public  assets;\r\n   // mapping(uint256=>address) private assetOwner;\r\n    mapping(uint256=>address) public assetApprovedToSellTo;\r\n    mapping(address=>uint256) private totalAssetsOwned;\r\n    \r\n    event assetRegistered(address onwer, uint256 assetID);\r\n    \r\n    \r\n    address public cityMayor;\r\n    constructor()  ERC721(\"Real Estate Tokensiation\",\"PEST\") public{\r\n        \r\n        assetCount=0;\r\n        cityMayor=msg.sender;\r\n        \r\n    }\r\n    \r\n    // Registartion  Only by City Mayor\r\n    function registerAsset(address owner,string memory _type) public \r\n    {\r\n      require(msg.sender==cityMayor,\"Not Authorized to Register\");\r\n      \r\n       assets[assetCount].assetID=assetCount;\r\n       assets[assetCount]._type=_type;\r\n       assets[assetCount].avlToBuy = false;\r\n       assets[assetCount].price=0;\r\n\r\n   assets[assetCount].owner=owner;\r\n       emit assetRegistered(owner,assetCount);\r\n       emit Transfer(address(0),owner,assetCount);\r\n        _mint(owner,assetCount);\r\n        totalAssetsOwned[owner]++;\r\n       assetCount++;\r\n        \r\n    }\r\n    \r\n    function getAssetDetails(uint256 id) public view returns (address owner,bool canBuy,string memory _type){\r\n      \r\n      owner= ownerOf(id);\r\n      canBuy=assets[id].avlToBuy;\r\n      _type=assets[id]._type;\r\n\r\n    }\r\n      function fetchMyAssets() public view returns (Asset[] memory) {\r\n    \r\n   \r\n    uint currentIndex = 0;\r\n\r\n    Asset[] memory items = new Asset[](assetCount);\r\n    for (uint i = 0; i < assetCount; i++) {\r\n      if (ownerOf(i) == msg.sender ){\r\n        \r\n        Asset storage currentItem = assets[i];\r\n        items[currentIndex] = currentItem;\r\n        currentIndex += 1;\r\n      }\r\n    \r\n    \r\n    }\r\n    return items;\r\n    }\r\n       function fetchAllAssetsForSale() public view returns (Asset[] memory) {\r\n    \r\n   \r\n    uint currentIndex = 0;\r\n\r\n    Asset[] memory items = new Asset[](assetCount);\r\n    for (uint i = 0; i < assetCount; i++) {\r\n      if (assets[i].avlToBuy == true ){\r\n        \r\n        Asset storage currentItem = assets[i];\r\n        items[currentIndex] = currentItem;\r\n        currentIndex += 1;\r\n      }\r\n    \r\n    \r\n    }\r\n    return items;\r\n    }\r\n    function setForSale(uint256 assetID,uint128 price) public {\r\n        require(ownerOf(assetID)==msg.sender,\"Not owner of Asset\");\r\n        require(assets[assetID].avlToBuy==false,\"Already Listed For Sale\");\r\n        assets[assetID].avlToBuy= true;\r\n        assets[assetID].price=price;\r\n        \r\n    }\r\n    \r\n     function renuvate(uint256 assetId,uint128 value) public{\r\n        require(msg.sender==ownerOf(assetId),\"NotaMayor\");\r\n         assets[assetId].price = assets[assetId].price+value;\r\n    }\r\n    \r\n    function appreciate(uint256 assetId,uint128 value) public{\r\n        require(msg.sender==cityMayor,\"NotaMayor\");\r\n         assets[assetId].price = assets[assetId].price+value;\r\n    }\r\n        function depreciate(uint256 assetId,uint128 value) public{\r\n        require(msg.sender==cityMayor,\"NotaMayor\");\r\n         assets[assetId].price = assets[assetId].price-value;\r\n    }\r\n    \r\n    function approveBuyer(uint256 assetId,address buyer) public \r\n\r\n    {\r\n        require(msg.sender==ownerOf(assetId));\r\n        approve(buyer,assetId);\r\n        assetApprovedToSellTo[assetId]=buyer;\r\n        \r\n        \r\n    }\r\n\r\n\r\n\r\n\r\n\r\n\r\n    function clearBuyerApproval(uint256 assetId,address approved) public {\r\n        if (assetApprovedToSellTo[assetId]==approved){\r\n            assetApprovedToSellTo[assetId] = address(0);\r\n        }\r\n    }\r\n    \r\n    function buy(address payable from, uint256 assetId) public payable {\r\n        require(_exists(assetId),\" Asset not Available\");\r\n        require(ownerOf(assetId)!=msg.sender,\" Asset already owned\");\r\n        require(assets[assetId].avlToBuy==true,\"Not avialbele for Sale\");\r\n        require(msg.value>=assets[assetId].price,\"Value less than price\");\r\n        require(isApproved(msg.sender, assetId), \"Not Approved Buyer\");\r\n        require(ownerOf(assetId) == from, \"NotTheassetOwner\");\r\n        clearBuyerApproval(assetId,getApproved(assetId));\r\n        totalAssetsOwned[from]--;\r\n        totalAssetsOwned[msg.sender]++;\r\n        \r\n        from.transfer(assets[assetId].price * 1000000000000000000);\r\n        assets[assetId].avlToBuy = false;\r\n        assets[assetId].price=0;\r\n        transferFrom(from,msg.sender,assetId);\r\n        assets[assetId].owner=msg.sender;\r\n        emit Transfer(from, msg.sender, assetId);\r\n    }\r\n    \r\n    function isApproved(address spender, uint256 assetId) internal view returns (bool) {\r\n        require(_exists(assetId), \"NO Such token Exists\");\r\n    \r\n        return (assetApprovedToSellTo[assetId] == spender);\r\n    }\r\n    \r\n    \r\n    \r\n}",
  "sourcePath": "E:/Blokchain-Gen/BootCamp/blockchain-developer-bootcamp-final-project/contracts/RealEstate.sol",
  "compiler": {
    "name": "solc",
    "version": "0.8.3+commit.8d00100c.Emscripten.clang"
  },
  "schemaVersion": "3.3.4",
  "updatedAt": "2021-11-20T13:58:44.869Z",
  "networkType": "ethereum",
  "devdoc": {
    "kind": "dev",
    "methods": {
      "approve(address,uint256)": {
        "details": "See {IERC721-approve}."
      },
      "balanceOf(address)": {
        "details": "See {IERC721-balanceOf}."
      },
      "getApproved(uint256)": {
        "details": "See {IERC721-getApproved}."
      },
      "isApprovedForAll(address,address)": {
        "details": "See {IERC721-isApprovedForAll}."
      },
      "name()": {
        "details": "See {IERC721Metadata-name}."
      },
      "ownerOf(uint256)": {
        "details": "See {IERC721-ownerOf}."
      },
      "safeTransferFrom(address,address,uint256)": {
        "details": "See {IERC721-safeTransferFrom}."
      },
      "safeTransferFrom(address,address,uint256,bytes)": {
        "details": "See {IERC721-safeTransferFrom}."
      },
      "setApprovalForAll(address,bool)": {
        "details": "See {IERC721-setApprovalForAll}."
      },
      "supportsInterface(bytes4)": {
        "details": "See {IERC165-supportsInterface}."
      },
      "symbol()": {
        "details": "See {IERC721Metadata-symbol}."
      },
      "tokenURI(uint256)": {
        "details": "See {IERC721Metadata-tokenURI}."
      },
      "transferFrom(address,address,uint256)": {
        "details": "See {IERC721-transferFrom}."
      }
    },
    "version": 1
  },
  "userdoc": {
    "kind": "user",
    "methods": {},
    "version": 1
  }
}