{
  "contractName": "RealEstate",
  "abi": [
    {
      "inputs": [],
      "stateMutability": "nonpayable",
      "type": "constructor"
    },
    {
      "anonymous": false,
      "inputs": [
        {
          "indexed": true,
          "internalType": "address",
          "name": "owner",
          "type": "address"
        },
        {
          "indexed": true,
          "internalType": "address",
          "name": "approved",
          "type": "address"
        },
        {
          "indexed": true,
          "internalType": "uint256",
          "name": "tokenId",
          "type": "uint256"
        }
      ],
      "name": "Approval",
      "type": "event"
    },
    {
      "anonymous": false,
      "inputs": [
        {
          "indexed": true,
          "internalType": "address",
          "name": "owner",
          "type": "address"
        },
        {
          "indexed": true,
          "internalType": "address",
          "name": "operator",
          "type": "address"
        },
        {
          "indexed": false,
          "internalType": "bool",
          "name": "approved",
          "type": "bool"
        }
      ],
      "name": "ApprovalForAll",
      "type": "event"
    },
    {
      "anonymous": false,
      "inputs": [
        {
          "indexed": true,
          "internalType": "address",
          "name": "from",
          "type": "address"
        },
        {
          "indexed": true,
          "internalType": "address",
          "name": "to",
          "type": "address"
        },
        {
          "indexed": true,
          "internalType": "uint256",
          "name": "tokenId",
          "type": "uint256"
        }
      ],
      "name": "Transfer",
      "type": "event"
    },
    {
      "anonymous": false,
      "inputs": [
        {
          "indexed": false,
          "internalType": "address",
          "name": "onwer",
          "type": "address"
        },
        {
          "indexed": false,
          "internalType": "uint256",
          "name": "assetID",
          "type": "uint256"
        }
      ],
      "name": "assetRegistered",
      "type": "event"
    },
    {
      "inputs": [
        {
          "internalType": "address",
          "name": "to",
          "type": "address"
        },
        {
          "internalType": "uint256",
          "name": "tokenId",
          "type": "uint256"
        }
      ],
      "name": "approve",
      "outputs": [],
      "stateMutability": "nonpayable",
      "type": "function"
    },
    {
      "inputs": [
        {
          "internalType": "uint256",
          "name": "",
          "type": "uint256"
        }
      ],
      "name": "assetApprovedToSellTo",
      "outputs": [
        {
          "internalType": "address",
          "name": "",
          "type": "address"
        }
      ],
      "stateMutability": "view",
      "type": "function",
      "constant": true
    },
    {
      "inputs": [
        {
          "internalType": "uint256",
          "name": "",
          "type": "uint256"
        }
      ],
      "name": "assets",
      "outputs": [
        {
          "internalType": "uint256",
          "name": "assetID",
          "type": "uint256"
        },
        {
          "internalType": "string",
          "name": "_type",
          "type": "string"
        },
        {
          "internalType": "bool",
          "name": "avlToBuy",
          "type": "bool"
        },
        {
          "internalType": "address",
          "name": "owner",
          "type": "address"
        },
        {
          "internalType": "uint256",
          "name": "price",
          "type": "uint256"
        }
      ],
      "stateMutability": "view",
      "type": "function",
      "constant": true
    },
    {
      "inputs": [
        {
          "internalType": "address",
          "name": "owner",
          "type": "address"
        }
      ],
      "name": "balanceOf",
      "outputs": [
        {
          "internalType": "uint256",
          "name": "",
          "type": "uint256"
        }
      ],
      "stateMutability": "view",
      "type": "function",
      "constant": true
    },
    {
      "inputs": [],
      "name": "cityMayor",
      "outputs": [
        {
          "internalType": "address",
          "name": "",
          "type": "address"
        }
      ],
      "stateMutability": "view",
      "type": "function",
      "constant": true
    },
    {
      "inputs": [
        {
          "internalType": "uint256",
          "name": "tokenId",
          "type": "uint256"
        }
      ],
      "name": "getApproved",
      "outputs": [
        {
          "internalType": "address",
          "name": "",
          "type": "address"
        }
      ],
      "stateMutability": "view",
      "type": "function",
      "constant": true
    },
    {
      "inputs": [
        {
          "internalType": "address",
          "name": "owner",
          "type": "address"
        },
        {
          "internalType": "address",
          "name": "operator",
          "type": "address"
        }
      ],
      "name": "isApprovedForAll",
      "outputs": [
        {
          "internalType": "bool",
          "name": "",
          "type": "bool"
        }
      ],
      "stateMutability": "view",
      "type": "function",
      "constant": true
    },
    {
      "inputs": [],
      "name": "name",
      "outputs": [
        {
          "internalType": "string",
          "name": "",
          "type": "string"
        }
      ],
      "stateMutability": "view",
      "type": "function",
      "constant": true
    },
    {
      "inputs": [
        {
          "internalType": "uint256",
          "name": "tokenId",
          "type": "uint256"
        }
      ],
      "name": "ownerOf",
      "outputs": [
        {
          "internalType": "address",
          "name": "",
          "type": "address"
        }
      ],
      "stateMutability": "view",
      "type": "function",
      "constant": true
    },
    {
      "inputs": [
        {
          "internalType": "address",
          "name": "from",
          "type": "address"
        },
        {
          "internalType": "address",
          "name": "to",
          "type": "address"
        },
        {
          "internalType": "uint256",
          "name": "tokenId",
          "type": "uint256"
        }
      ],
      "name": "safeTransferFrom",
      "outputs": [],
      "stateMutability": "nonpayable",
      "type": "function"
    },
    {
      "inputs": [
        {
          "internalType": "address",
          "name": "from",
          "type": "address"
        },
        {
          "internalType": "address",
          "name": "to",
          "type": "address"
        },
        {
          "internalType": "uint256",
          "name": "tokenId",
          "type": "uint256"
        },
        {
          "internalType": "bytes",
          "name": "_data",
          "type": "bytes"
        }
      ],
      "name": "safeTransferFrom",
      "outputs": [],
      "stateMutability": "nonpayable",
      "type": "function"
    },
    {
      "inputs": [
        {
          "internalType": "address",
          "name": "operator",
          "type": "address"
        },
        {
          "internalType": "bool",
          "name": "approved",
          "type": "bool"
        }
      ],
      "name": "setApprovalForAll",
      "outputs": [],
      "stateMutability": "nonpayable",
      "type": "function"
    },
    {
      "inputs": [
        {
          "internalType": "bytes4",
          "name": "interfaceId",
          "type": "bytes4"
        }
      ],
      "name": "supportsInterface",
      "outputs": [
        {
          "internalType": "bool",
          "name": "",
          "type": "bool"
        }
      ],
      "stateMutability": "view",
      "type": "function",
      "constant": true
    },
    {
      "inputs": [],
      "name": "symbol",
      "outputs": [
        {
          "internalType": "string",
          "name": "",
          "type": "string"
        }
      ],
      "stateMutability": "view",
      "type": "function",
      "constant": true
    },
    {
      "inputs": [
        {
          "internalType": "uint256",
          "name": "tokenId",
          "type": "uint256"
        }
      ],
      "name": "tokenURI",
      "outputs": [
        {
          "internalType": "string",
          "name": "",
          "type": "string"
        }
      ],
      "stateMutability": "view",
      "type": "function",
      "constant": true
    },
    {
      "inputs": [
        {
          "internalType": "address",
          "name": "from",
          "type": "address"
        },
        {
          "internalType": "address",
          "name": "to",
          "type": "address"
        },
        {
          "internalType": "uint256",
          "name": "tokenId",
          "type": "uint256"
        }
      ],
      "name": "transferFrom",
      "outputs": [],
      "stateMutability": "nonpayable",
      "type": "function"
    },
    {
      "inputs": [
        {
          "internalType": "address",
          "name": "owner",
          "type": "address"
        },
        {
          "internalType": "string",
          "name": "_type",
          "type": "string"
        }
      ],
      "name": "registerAsset",
      "outputs": [],
      "stateMutability": "nonpayable",
      "type": "function"
    },
    {
      "inputs": [
        {
          "internalType": "uint256",
          "name": "id",
          "type": "uint256"
        }
      ],
      "name": "getAssetDetails",
      "outputs": [
        {
          "internalType": "address",
          "name": "owner",
          "type": "address"
        },
        {
          "internalType": "bool",
          "name": "canBuy",
          "type": "bool"
        },
        {
          "internalType": "string",
          "name": "_type",
          "type": "string"
        }
      ],
      "stateMutability": "view",
      "type": "function",
      "constant": true
    },
    {
      "inputs": [],
      "name": "fetchMyAssets",
      "outputs": [
        {
          "components": [
            {
              "internalType": "uint256",
              "name": "assetID",
              "type": "uint256"
            },
            {
              "internalType": "string",
              "name": "_type",
              "type": "string"
            },
            {
              "internalType": "bool",
              "name": "avlToBuy",
              "type": "bool"
            },
            {
              "internalType": "address",
              "name": "owner",
              "type": "address"
            },
            {
              "internalType": "uint256",
              "name": "price",
              "type": "uint256"
            }
          ],
          "internalType": "struct RealEstate.Asset[]",
          "name": "",
          "type": "tuple[]"
        }
      ],
      "stateMutability": "view",
      "type": "function",
      "constant": true
    },
    {
      "inputs": [],
      "name": "fetchAllAssetsForSale",
      "outputs": [
        {
          "components": [
            {
              "internalType": "uint256",
              "name": "assetID",
              "type": "uint256"
            },
            {
              "internalType": "string",
              "name": "_type",
              "type": "string"
            },
            {
              "internalType": "bool",
              "name": "avlToBuy",
              "type": "bool"
            },
            {
              "internalType": "address",
              "name": "owner",
              "type": "address"
            },
            {
              "internalType": "uint256",
              "name": "price",
              "type": "uint256"
            }
          ],
          "internalType": "struct RealEstate.Asset[]",
          "name": "",
          "type": "tuple[]"
        }
      ],
      "stateMutability": "view",
      "type": "function",
      "constant": true
    },
    {
      "inputs": [
        {
          "internalType": "uint256",
          "name": "assetID",
          "type": "uint256"
        },
        {
          "internalType": "uint128",
          "name": "price",
          "type": "uint128"
        }
      ],
      "name": "setForSale",
      "outputs": [],
      "stateMutability": "nonpayable",
      "type": "function"
    },
    {
      "inputs": [
        {
          "internalType": "uint256",
          "name": "assetId",
          "type": "uint256"
        },
        {
          "internalType": "uint128",
          "name": "value",
          "type": "uint128"
        }
      ],
      "name": "renuvate",
      "outputs": [],
      "stateMutability": "nonpayable",
      "type": "function"
    },
    {
      "inputs": [
        {
          "internalType": "uint256",
          "name": "assetId",
          "type": "uint256"
        },
        {
          "internalType": "uint128",
          "name": "value",
          "type": "uint128"
        }
      ],
      "name": "appreciate",
      "outputs": [],
      "stateMutability": "nonpayable",
      "type": "function"
    },
    {
      "inputs": [
        {
          "internalType": "uint256",
          "name": "assetId",
          "type": "uint256"
        },
        {
          "internalType": "uint128",
          "name": "value",
          "type": "uint128"
        }
      ],
      "name": "depreciate",
      "outputs": [],
      "stateMutability": "nonpayable",
      "type": "function"
    },
    {
      "inputs": [
        {
          "internalType": "uint256",
          "name": "assetId",
          "type": "uint256"
        },
        {
          "internalType": "address",
          "name": "buyer",
          "type": "address"
        }
      ],
      "name": "approveBuyer",
      "outputs": [],
      "stateMutability": "nonpayable",
      "type": "function"
    },
    {
      "inputs": [
        {
          "internalType": "uint256",
          "name": "assetId",
          "type": "uint256"
        },
        {
          "internalType": "address",
          "name": "approved",
          "type": "address"
        }
      ],
      "name": "clearBuyerApproval",
      "outputs": [],
      "stateMutability": "nonpayable",
      "type": "function"
    },
    {
      "inputs": [
        {
          "internalType": "address payable",
          "name": "from",
          "type": "address"
        },
        {
          "internalType": "uint256",
          "name": "assetId",
          "type": "uint256"
        }
      ],
      "name": "buy",
      "outputs": [],
      "stateMutability": "payable",
      "type": "function",
      "payable": true
    }
  ],
  "bytecode": "0x60806040523480156200001157600080fd5b506040518060400160405280601881526020017f5265616c2045737461746520546f6b656e73696174696f6e00000000000000008152506040518060400160405280600481526020017f5045535400000000000000000000000000000000000000000000000000000000815250816000908051906020019062000096929190620000f9565b508060019080519060200190620000af929190620000f9565b50505033600a60006101000a81548173ffffffffffffffffffffffffffffffffffffffff021916908373ffffffffffffffffffffffffffffffffffffffff1602179055506200020e565b8280546200010790620001a9565b90600052602060002090601f0160209004810192826200012b576000855562000177565b82601f106200014657805160ff191683800117855562000177565b8280016001018555821562000177579182015b828111156200017657825182559160200191906001019062000159565b5b5090506200018691906200018a565b5090565b5b80821115620001a55760008160009055506001016200018b565b5090565b60006002820490506001821680620001c257607f821691505b60208210811415620001d957620001d8620001df565b5b50919050565b7f4e487b7100000000000000000000000000000000000000000000000000000000600052602260045260246000fd5b6147a4806200021e6000396000f3fe60806040526004361061019c5760003560e01c80639d8ede97116100ec578063c120ac2d1161008a578063cf35bdd011610064578063cf35bdd0146105db578063e450fbc21461061c578063e985e9c514610645578063f2c8462e146106825761019c565b8063c120ac2d14610557578063c87b56dd14610582578063cce7ec13146105bf5761019c565b8063b4a5a983116100c6578063b4a5a983146104b1578063b7007ca9146104da578063b88d4fde14610503578063bbf998861461052c5761019c565b80639d8ede9714610420578063a1f24b3d14610449578063a22cb465146104885761019c565b80634440bb5c1161015957806370a082311161013357806370a08231146103505780638151880f1461038d57806394f4b8bf146103ca57806395d89b41146103f55761019c565b80634440bb5c146102c157806344adbebe146102ea5780636352211e146103135761019c565b806301ffc9a7146101a157806306fdde03146101de578063081812fc14610209578063095ea7b31461024657806323b872dd1461026f57806342842e0e14610298575b600080fd5b3480156101ad57600080fd5b506101c860048036038101906101c391906131ad565b6106ab565b6040516101d59190613931565b60405180910390f35b3480156101ea57600080fd5b506101f361078d565b604051610200919061394c565b60405180910390f35b34801561021557600080fd5b50610230600480360381019061022b91906131ff565b61081f565b60405161023d9190613841565b60405180910390f35b34801561025257600080fd5b5061026d60048036038101906102689190613171565b6108a4565b005b34801561027b57600080fd5b5061029660048036038101906102919190613017565b6109bc565b005b3480156102a457600080fd5b506102bf60048036038101906102ba9190613017565b610a1c565b005b3480156102cd57600080fd5b506102e860048036038101906102e39190613264565b610a3c565b005b3480156102f657600080fd5b50610311600480360381019061030c9190613264565b610b7c565b005b34801561031f57600080fd5b5061033a600480360381019061033591906131ff565b610c28565b6040516103479190613841565b60405180910390f35b34801561035c57600080fd5b5061037760048036038101906103729190612f76565b610cda565b6040516103849190613c6e565b60405180910390f35b34801561039957600080fd5b506103b460048036038101906103af91906131ff565b610d92565b6040516103c19190613841565b60405180910390f35b3480156103d657600080fd5b506103df610dc5565b6040516103ec9190613841565b60405180910390f35b34801561040157600080fd5b5061040a610deb565b604051610417919061394c565b60405180910390f35b34801561042c57600080fd5b5061044760048036038101906104429190613228565b610e7d565b005b34801561045557600080fd5b50610470600480360381019061046b91906131ff565b610f1d565b60405161047f939291906138a8565b60405180910390f35b34801561049457600080fd5b506104af60048036038101906104aa91906130e1565b610ffb565b005b3480156104bd57600080fd5b506104d860048036038101906104d3919061311d565b61117c565b005b3480156104e657600080fd5b5061050160048036038101906104fc9190613228565b6113cd565b005b34801561050f57600080fd5b5061052a60048036038101906105259190613066565b61148c565b005b34801561053857600080fd5b506105416114ee565b60405161054e919061390f565b60405180910390f35b34801561056357600080fd5b5061056c611770565b604051610579919061390f565b60405180910390f35b34801561058e57600080fd5b506105a960048036038101906105a491906131ff565b6119e6565b6040516105b6919061394c565b60405180910390f35b6105d960048036038101906105d49190612f9f565b611a8d565b005b3480156105e757600080fd5b5061060260048036038101906105fd91906131ff565b611ef0565b604051610613959493929190613c89565b60405180910390f35b34801561062857600080fd5b50610643600480360381019061063e9190613264565b611fdb565b005b34801561065157600080fd5b5061066c60048036038101906106679190612fdb565b612087565b6040516106799190613931565b60405180910390f35b34801561068e57600080fd5b506106a960048036038101906106a49190613264565b61211b565b005b60007f80ac58cd000000000000000000000000000000000000000000000000000000007bffffffffffffffffffffffffffffffffffffffffffffffffffffffff1916827bffffffffffffffffffffffffffffffffffffffffffffffffffffffff1916148061077657507f5b5e139f000000000000000000000000000000000000000000000000000000007bffffffffffffffffffffffffffffffffffffffffffffffffffffffff1916827bffffffffffffffffffffffffffffffffffffffffffffffffffffffff1916145b806107865750610785826121e3565b5b9050919050565b60606000805461079c90613fc0565b80601f01602080910402602001604051908101604052809291908181526020018280546107c890613fc0565b80156108155780601f106107ea57610100808354040283529160200191610815565b820191906000526020600020905b8154815290600101906020018083116107f857829003601f168201915b5050505050905090565b600061082a8261224d565b610869576040517f08c379a000000000000000000000000000000000000000000000000000000000815260040161086090613b6e565b60405180910390fd5b6004600083815260200190815260200160002060009054906101000a900473ffffffffffffffffffffffffffffffffffffffff169050919050565b60006108af82610c28565b90508073ffffffffffffffffffffffffffffffffffffffff168373ffffffffffffffffffffffffffffffffffffffff161415610920576040517f08c379a000000000000000000000000000000000000000000000000000000000815260040161091790613bce565b60405180910390fd5b8073ffffffffffffffffffffffffffffffffffffffff1661093f6122b9565b73ffffffffffffffffffffffffffffffffffffffff16148061096e575061096d816109686122b9565b612087565b5b6109ad576040517f08c379a00000000000000000000000000000000000000000000000000000000081526004016109a490613a8e565b60405180910390fd5b6109b783836122c1565b505050565b6109cd6109c76122b9565b8261237a565b610a0c576040517f08c379a0000000000000000000000000000000000000000000000000000000008152600401610a0390613c0e565b60405180910390fd5b610a17838383612458565b505050565b610a378383836040518060200160405280600081525061148c565b505050565b3373ffffffffffffffffffffffffffffffffffffffff16610a5c83610c28565b73ffffffffffffffffffffffffffffffffffffffff1614610ab2576040517f08c379a0000000000000000000000000000000000000000000000000000000008152600401610aa9906139ae565b60405180910390fd5b600015156007600084815260200190815260200160002060020160009054906101000a900460ff16151514610b1c576040517f08c379a0000000000000000000000000000000000000000000000000000000008152600401610b1390613c2e565b60405180910390fd5b60016007600084815260200190815260200160002060020160006101000a81548160ff021916908315150217905550806fffffffffffffffffffffffffffffffff1660076000848152602001908152602001600020600301819055505050565b600a60009054906101000a900473ffffffffffffffffffffffffffffffffffffffff1673ffffffffffffffffffffffffffffffffffffffff163373ffffffffffffffffffffffffffffffffffffffff1614610bd657600080fd5b806fffffffffffffffffffffffffffffffff166007600084815260200190815260200160002060030154610c0a9190613df7565b60076000848152602001908152602001600020600301819055505050565b6000806002600084815260200190815260200160002060009054906101000a900473ffffffffffffffffffffffffffffffffffffffff169050600073ffffffffffffffffffffffffffffffffffffffff168173ffffffffffffffffffffffffffffffffffffffff161415610cd1576040517f08c379a0000000000000000000000000000000000000000000000000000000008152600401610cc890613aee565b60405180910390fd5b80915050919050565b60008073ffffffffffffffffffffffffffffffffffffffff168273ffffffffffffffffffffffffffffffffffffffff161415610d4b576040517f08c379a0000000000000000000000000000000000000000000000000000000008152600401610d4290613ace565b60405180910390fd5b600360008373ffffffffffffffffffffffffffffffffffffffff1673ffffffffffffffffffffffffffffffffffffffff168152602001908152602001600020549050919050565b60086020528060005260406000206000915054906101000a900473ffffffffffffffffffffffffffffffffffffffff1681565b600a60009054906101000a900473ffffffffffffffffffffffffffffffffffffffff1681565b606060018054610dfa90613fc0565b80601f0160208091040260200160405190810160405280929190818152602001828054610e2690613fc0565b8015610e735780601f10610e4857610100808354040283529160200191610e73565b820191906000526020600020905b815481529060010190602001808311610e5657829003601f168201915b5050505050905090565b610e8682610c28565b73ffffffffffffffffffffffffffffffffffffffff163373ffffffffffffffffffffffffffffffffffffffff1614610ebd57600080fd5b610ec781836108a4565b806008600084815260200190815260200160002060006101000a81548173ffffffffffffffffffffffffffffffffffffffff021916908373ffffffffffffffffffffffffffffffffffffffff1602179055505050565b6000806060610f2b84610c28565b92506007600085815260200190815260200160002060020160009054906101000a900460ff169150600760008581526020019081526020016000206001018054610f7490613fc0565b80601f0160208091040260200160405190810160405280929190818152602001828054610fa090613fc0565b8015610fed5780601f10610fc257610100808354040283529160200191610fed565b820191906000526020600020905b815481529060010190602001808311610fd057829003601f168201915b505050505090509193909250565b6110036122b9565b73ffffffffffffffffffffffffffffffffffffffff168273ffffffffffffffffffffffffffffffffffffffff161415611071576040517f08c379a000000000000000000000000000000000000000000000000000000000815260040161106890613a4e565b60405180910390fd5b806005600061107e6122b9565b73ffffffffffffffffffffffffffffffffffffffff1673ffffffffffffffffffffffffffffffffffffffff16815260200190815260200160002060008473ffffffffffffffffffffffffffffffffffffffff1673ffffffffffffffffffffffffffffffffffffffff16815260200190815260200160002060006101000a81548160ff0219169083151502179055508173ffffffffffffffffffffffffffffffffffffffff1661112b6122b9565b73ffffffffffffffffffffffffffffffffffffffff167f17307eab39ab6107e8899845ad3d59bd9653f200f220920489ca2b5937696c31836040516111709190613931565b60405180910390a35050565b600a60009054906101000a900473ffffffffffffffffffffffffffffffffffffffff1673ffffffffffffffffffffffffffffffffffffffff163373ffffffffffffffffffffffffffffffffffffffff16146111d657600080fd5b60006111e260066126b4565b905080600760008381526020019081526020016000206000018190555081600760008381526020019081526020016000206001019080519060200190611229929190612d29565b5060006007600083815260200190815260200160002060020160006101000a81548160ff02191690831515021790555060006007600083815260200190815260200160002060030181905550826007600083815260200190815260200160002060020160016101000a81548173ffffffffffffffffffffffffffffffffffffffff021916908373ffffffffffffffffffffffffffffffffffffffff1602179055507fbe111e194ea43bdf40a48d96e7676fe1ad4f24207b119021b09114a8915202d883826040516112fb9291906138e6565b60405180910390a1808373ffffffffffffffffffffffffffffffffffffffff16600073ffffffffffffffffffffffffffffffffffffffff167fddf252ad1be2c89b69c2b068fc378daa952ba7f163c4a11628f55a4df523b3ef60405160405180910390a461136983826126c2565b600960008473ffffffffffffffffffffffffffffffffffffffff1673ffffffffffffffffffffffffffffffffffffffff16815260200190815260200160002060008154809291906113b990614023565b91905055506113c86006612890565b505050565b8073ffffffffffffffffffffffffffffffffffffffff166008600084815260200190815260200160002060009054906101000a900473ffffffffffffffffffffffffffffffffffffffff1673ffffffffffffffffffffffffffffffffffffffff1614156114885760006008600084815260200190815260200160002060006101000a81548173ffffffffffffffffffffffffffffffffffffffff021916908373ffffffffffffffffffffffffffffffffffffffff1602179055505b5050565b61149d6114976122b9565b8361237a565b6114dc576040517f08c379a00000000000000000000000000000000000000000000000000000000081526004016114d390613c0e565b60405180910390fd5b6114e8848484846128a6565b50505050565b60606000806114fd60066126b4565b905060008167ffffffffffffffff811115611541577f4e487b7100000000000000000000000000000000000000000000000000000000600052604160045260246000fd5b60405190808252806020026020018201604052801561157a57816020015b611567612daf565b81526020019060019003908161155f5790505b50905060005b82811015611766573373ffffffffffffffffffffffffffffffffffffffff166115a882610c28565b73ffffffffffffffffffffffffffffffffffffffff161415611753576000600760008381526020019081526020016000209050806040518060a00160405290816000820154815260200160018201805461160190613fc0565b80601f016020809104026020016040519081016040528092919081815260200182805461162d90613fc0565b801561167a5780601f1061164f5761010080835404028352916020019161167a565b820191906000526020600020905b81548152906001019060200180831161165d57829003601f168201915b505050505081526020016002820160009054906101000a900460ff161515151581526020016002820160019054906101000a900473ffffffffffffffffffffffffffffffffffffffff1673ffffffffffffffffffffffffffffffffffffffff1673ffffffffffffffffffffffffffffffffffffffff168152602001600382015481525050838681518110611737577f4e487b7100000000000000000000000000000000000000000000000000000000600052603260045260246000fd5b602002602001018190525060018561174f9190613df7565b9450505b808061175e90614023565b915050611580565b5080935050505090565b606060008061177f60066126b4565b905060008167ffffffffffffffff8111156117c3577f4e487b7100000000000000000000000000000000000000000000000000000000600052604160045260246000fd5b6040519080825280602002602001820160405280156117fc57816020015b6117e9612daf565b8152602001906001900390816117e15790505b50905060005b828110156119dc57600115156007600083815260200190815260200160002060020160009054906101000a900460ff16151514156119c9576000600760008381526020019081526020016000209050806040518060a00160405290816000820154815260200160018201805461187790613fc0565b80601f01602080910402602001604051908101604052809291908181526020018280546118a390613fc0565b80156118f05780601f106118c5576101008083540402835291602001916118f0565b820191906000526020600020905b8154815290600101906020018083116118d357829003601f168201915b505050505081526020016002820160009054906101000a900460ff161515151581526020016002820160019054906101000a900473ffffffffffffffffffffffffffffffffffffffff1673ffffffffffffffffffffffffffffffffffffffff1673ffffffffffffffffffffffffffffffffffffffff1681526020016003820154815250508386815181106119ad577f4e487b7100000000000000000000000000000000000000000000000000000000600052603260045260246000fd5b60200260200101819052506001856119c59190613df7565b9450505b80806119d490614023565b915050611802565b5080935050505090565b60606119f18261224d565b611a30576040517f08c379a0000000000000000000000000000000000000000000000000000000008152600401611a2790613bae565b60405180910390fd5b6000611a3a612902565b90506000815111611a5a5760405180602001604052806000815250611a85565b80611a6484612919565b604051602001611a7592919061381d565b6040516020818303038152906040525b915050919050565b611a968161224d565b611ad5576040517f08c379a0000000000000000000000000000000000000000000000000000000008152600401611acc90613a0e565b60405180910390fd5b3373ffffffffffffffffffffffffffffffffffffffff16611af582610c28565b73ffffffffffffffffffffffffffffffffffffffff161415611b4c576040517f08c379a0000000000000000000000000000000000000000000000000000000008152600401611b43906139ee565b60405180910390fd5b600115156007600083815260200190815260200160002060020160009054906101000a900460ff16151514611bb6576040517f08c379a0000000000000000000000000000000000000000000000000000000008152600401611bad90613aae565b60405180910390fd5b60076000828152602001908152602001600020600301543414611c0e576040517f08c379a0000000000000000000000000000000000000000000000000000000008152600401611c0590613bee565b60405180910390fd5b611c183382612ac6565b611c57576040517f08c379a0000000000000000000000000000000000000000000000000000000008152600401611c4e90613b0e565b60405180910390fd5b8173ffffffffffffffffffffffffffffffffffffffff16611c7782610c28565b73ffffffffffffffffffffffffffffffffffffffff1614611ccd576040517f08c379a0000000000000000000000000000000000000000000000000000000008152600401611cc490613c4e565b60405180910390fd5b611cdf81611cda8361081f565b6113cd565b600960008373ffffffffffffffffffffffffffffffffffffffff1673ffffffffffffffffffffffffffffffffffffffff1681526020019081526020016000206000815480929190611d2f90613f96565b9190505550600960003373ffffffffffffffffffffffffffffffffffffffff1673ffffffffffffffffffffffffffffffffffffffff1681526020019081526020016000206000815480929190611d8490614023565b91905055508173ffffffffffffffffffffffffffffffffffffffff166108fc60076000848152602001908152602001600020600301549081150290604051600060405180830381858888f19350505050158015611de5573d6000803e3d6000fd5b5060006007600083815260200190815260200160002060020160006101000a81548160ff02191690831515021790555060006007600083815260200190815260200160002060030181905550611e3c8233836109bc565b336007600083815260200190815260200160002060020160016101000a81548173ffffffffffffffffffffffffffffffffffffffff021916908373ffffffffffffffffffffffffffffffffffffffff160217905550803373ffffffffffffffffffffffffffffffffffffffff168373ffffffffffffffffffffffffffffffffffffffff167fddf252ad1be2c89b69c2b068fc378daa952ba7f163c4a11628f55a4df523b3ef60405160405180910390a45050565b6007602052806000526040600020600091509050806000015490806001018054611f1990613fc0565b80601f0160208091040260200160405190810160405280929190818152602001828054611f4590613fc0565b8015611f925780601f10611f6757610100808354040283529160200191611f92565b820191906000526020600020905b815481529060010190602001808311611f7557829003601f168201915b5050505050908060020160009054906101000a900460ff16908060020160019054906101000a900473ffffffffffffffffffffffffffffffffffffffff16908060030154905085565b600a60009054906101000a900473ffffffffffffffffffffffffffffffffffffffff1673ffffffffffffffffffffffffffffffffffffffff163373ffffffffffffffffffffffffffffffffffffffff161461203557600080fd5b806fffffffffffffffffffffffffffffffff1660076000848152602001908152602001600020600301546120699190613e7e565b60076000848152602001908152602001600020600301819055505050565b6000600560008473ffffffffffffffffffffffffffffffffffffffff1673ffffffffffffffffffffffffffffffffffffffff16815260200190815260200160002060008373ffffffffffffffffffffffffffffffffffffffff1673ffffffffffffffffffffffffffffffffffffffff16815260200190815260200160002060009054906101000a900460ff16905092915050565b61212482610c28565b73ffffffffffffffffffffffffffffffffffffffff163373ffffffffffffffffffffffffffffffffffffffff1614612191576040517f08c379a000000000000000000000000000000000000000000000000000000000815260040161218890613b2e565b60405180910390fd5b806fffffffffffffffffffffffffffffffff1660076000848152602001908152602001600020600301546121c59190613df7565b60076000848152602001908152602001600020600301819055505050565b60007f01ffc9a7000000000000000000000000000000000000000000000000000000007bffffffffffffffffffffffffffffffffffffffffffffffffffffffff1916827bffffffffffffffffffffffffffffffffffffffffffffffffffffffff1916149050919050565b60008073ffffffffffffffffffffffffffffffffffffffff166002600084815260200190815260200160002060009054906101000a900473ffffffffffffffffffffffffffffffffffffffff1673ffffffffffffffffffffffffffffffffffffffff1614159050919050565b600033905090565b816004600083815260200190815260200160002060006101000a81548173ffffffffffffffffffffffffffffffffffffffff021916908373ffffffffffffffffffffffffffffffffffffffff160217905550808273ffffffffffffffffffffffffffffffffffffffff1661233483610c28565b73ffffffffffffffffffffffffffffffffffffffff167f8c5be1e5ebec7d5bd14f71427d1e84f3dd0314c0f7b2291e5b200ac8c7c3b92560405160405180910390a45050565b60006123858261224d565b6123c4576040517f08c379a00000000000000000000000000000000000000000000000000000000081526004016123bb90613a6e565b60405180910390fd5b60006123cf83610c28565b90508073ffffffffffffffffffffffffffffffffffffffff168473ffffffffffffffffffffffffffffffffffffffff16148061243e57508373ffffffffffffffffffffffffffffffffffffffff166124268461081f565b73ffffffffffffffffffffffffffffffffffffffff16145b8061244f575061244e8185612087565b5b91505092915050565b8273ffffffffffffffffffffffffffffffffffffffff1661247882610c28565b73ffffffffffffffffffffffffffffffffffffffff16146124ce576040517f08c379a00000000000000000000000000000000000000000000000000000000081526004016124c590613b8e565b60405180910390fd5b600073ffffffffffffffffffffffffffffffffffffffff168273ffffffffffffffffffffffffffffffffffffffff16141561253e576040517f08c379a000000000000000000000000000000000000000000000000000000000815260040161253590613a2e565b60405180910390fd5b612549838383612b7a565b6125546000826122c1565b6001600360008573ffffffffffffffffffffffffffffffffffffffff1673ffffffffffffffffffffffffffffffffffffffff16815260200190815260200160002060008282546125a49190613e7e565b925050819055506001600360008473ffffffffffffffffffffffffffffffffffffffff1673ffffffffffffffffffffffffffffffffffffffff16815260200190815260200160002060008282546125fb9190613df7565b92505081905550816002600083815260200190815260200160002060006101000a81548173ffffffffffffffffffffffffffffffffffffffff021916908373ffffffffffffffffffffffffffffffffffffffff160217905550808273ffffffffffffffffffffffffffffffffffffffff168473ffffffffffffffffffffffffffffffffffffffff167fddf252ad1be2c89b69c2b068fc378daa952ba7f163c4a11628f55a4df523b3ef60405160405180910390a4505050565b600081600001549050919050565b600073ffffffffffffffffffffffffffffffffffffffff168273ffffffffffffffffffffffffffffffffffffffff161415612732576040517f08c379a000000000000000000000000000000000000000000000000000000000815260040161272990613b4e565b60405180910390fd5b61273b8161224d565b1561277b576040517f08c379a0000000000000000000000000000000000000000000000000000000008152600401612772906139ce565b60405180910390fd5b61278760008383612b7a565b6001600360008473ffffffffffffffffffffffffffffffffffffffff1673ffffffffffffffffffffffffffffffffffffffff16815260200190815260200160002060008282546127d79190613df7565b92505081905550816002600083815260200190815260200160002060006101000a81548173ffffffffffffffffffffffffffffffffffffffff021916908373ffffffffffffffffffffffffffffffffffffffff160217905550808273ffffffffffffffffffffffffffffffffffffffff16600073ffffffffffffffffffffffffffffffffffffffff167fddf252ad1be2c89b69c2b068fc378daa952ba7f163c4a11628f55a4df523b3ef60405160405180910390a45050565b6001816000016000828254019250508190555050565b6128b1848484612458565b6128bd84848484612b7f565b6128fc576040517f08c379a00000000000000000000000000000000000000000000000000000000081526004016128f39061398e565b60405180910390fd5b50505050565b606060405180602001604052806000815250905090565b60606000821415612961576040518060400160405280600181526020017f30000000000000000000000000000000000000000000000000000000000000008152509050612ac1565b600082905060005b6000821461299357808061297c90614023565b915050600a8261298c9190613e4d565b9150612969565b60008167ffffffffffffffff8111156129d5577f4e487b7100000000000000000000000000000000000000000000000000000000600052604160045260246000fd5b6040519080825280601f01601f191660200182016040528015612a075781602001600182028036833780820191505090505b5090505b60008514612aba57600182612a209190613e7e565b9150600a85612a2f919061406c565b6030612a3b9190613df7565b60f81b818381518110612a77577f4e487b7100000000000000000000000000000000000000000000000000000000600052603260045260246000fd5b60200101907effffffffffffffffffffffffffffffffffffffffffffffffffffffffffffff1916908160001a905350600a85612ab39190613e4d565b9450612a0b565b8093505050505b919050565b6000612ad18261224d565b612b10576040517f08c379a0000000000000000000000000000000000000000000000000000000008152600401612b079061396e565b60405180910390fd5b8273ffffffffffffffffffffffffffffffffffffffff166008600084815260200190815260200160002060009054906101000a900473ffffffffffffffffffffffffffffffffffffffff1673ffffffffffffffffffffffffffffffffffffffff1614905092915050565b505050565b6000612ba08473ffffffffffffffffffffffffffffffffffffffff16612d16565b15612d09578373ffffffffffffffffffffffffffffffffffffffff1663150b7a02612bc96122b9565b8786866040518563ffffffff1660e01b8152600401612beb949392919061385c565b602060405180830381600087803b158015612c0557600080fd5b505af1925050508015612c3657506040513d601f19601f82011682018060405250810190612c3391906131d6565b60015b612cb9573d8060008114612c66576040519150601f19603f3d011682016040523d82523d6000602084013e612c6b565b606091505b50600081511415612cb1576040517f08c379a0000000000000000000000000000000000000000000000000000000008152600401612ca89061398e565b60405180910390fd5b805181602001fd5b63150b7a0260e01b7bffffffffffffffffffffffffffffffffffffffffffffffffffffffff1916817bffffffffffffffffffffffffffffffffffffffffffffffffffffffff191614915050612d0e565b600190505b949350505050565b600080823b905060008111915050919050565b828054612d3590613fc0565b90600052602060002090601f016020900481019282612d575760008555612d9e565b82601f10612d7057805160ff1916838001178555612d9e565b82800160010185558215612d9e579182015b82811115612d9d578251825591602001919060010190612d82565b5b509050612dab9190612df6565b5090565b6040518060a001604052806000815260200160608152602001600015158152602001600073ffffffffffffffffffffffffffffffffffffffff168152602001600081525090565b5b80821115612e0f576000816000905550600101612df7565b5090565b6000612e26612e2184613d08565b613ce3565b905082815260208101848484011115612e3e57600080fd5b612e49848285613f54565b509392505050565b6000612e64612e5f84613d39565b613ce3565b905082815260208101848484011115612e7c57600080fd5b612e87848285613f54565b509392505050565b600081359050612e9e816146e4565b92915050565b600081359050612eb3816146fb565b92915050565b600081359050612ec881614712565b92915050565b600081359050612edd81614729565b92915050565b600081519050612ef281614729565b92915050565b600082601f830112612f0957600080fd5b8135612f19848260208601612e13565b91505092915050565b600082601f830112612f3357600080fd5b8135612f43848260208601612e51565b91505092915050565b600081359050612f5b81614740565b92915050565b600081359050612f7081614757565b92915050565b600060208284031215612f8857600080fd5b6000612f9684828501612e8f565b91505092915050565b60008060408385031215612fb257600080fd5b6000612fc085828601612ea4565b9250506020612fd185828601612f61565b9150509250929050565b60008060408385031215612fee57600080fd5b6000612ffc85828601612e8f565b925050602061300d85828601612e8f565b9150509250929050565b60008060006060848603121561302c57600080fd5b600061303a86828701612e8f565b935050602061304b86828701612e8f565b925050604061305c86828701612f61565b9150509250925092565b6000806000806080858703121561307c57600080fd5b600061308a87828801612e8f565b945050602061309b87828801612e8f565b93505060406130ac87828801612f61565b925050606085013567ffffffffffffffff8111156130c957600080fd5b6130d587828801612ef8565b91505092959194509250565b600080604083850312156130f457600080fd5b600061310285828601612e8f565b925050602061311385828601612eb9565b9150509250929050565b6000806040838503121561313057600080fd5b600061313e85828601612e8f565b925050602083013567ffffffffffffffff81111561315b57600080fd5b61316785828601612f22565b9150509250929050565b6000806040838503121561318457600080fd5b600061319285828601612e8f565b92505060206131a385828601612f61565b9150509250929050565b6000602082840312156131bf57600080fd5b60006131cd84828501612ece565b91505092915050565b6000602082840312156131e857600080fd5b60006131f684828501612ee3565b91505092915050565b60006020828403121561321157600080fd5b600061321f84828501612f61565b91505092915050565b6000806040838503121561323b57600080fd5b600061324985828601612f61565b925050602061325a85828601612e8f565b9150509250929050565b6000806040838503121561327757600080fd5b600061328585828601612f61565b925050602061329685828601612f4c565b9150509250929050565b60006132ac8383613789565b905092915050565b6132bd81613eb2565b82525050565b6132cc81613eb2565b82525050565b60006132dd82613d7a565b6132e78185613da8565b9350836020820285016132f985613d6a565b8060005b85811015613335578484038952815161331685826132a0565b945061332183613d9b565b925060208a019950506001810190506132fd565b50829750879550505050505092915050565b61335081613ed6565b82525050565b61335f81613ed6565b82525050565b600061337082613d85565b61337a8185613db9565b935061338a818560208601613f63565b61339381614159565b840191505092915050565b60006133a982613d90565b6133b38185613dca565b93506133c3818560208601613f63565b6133cc81614159565b840191505092915050565b60006133e282613d90565b6133ec8185613ddb565b93506133fc818560208601613f63565b61340581614159565b840191505092915050565b600061341b82613d90565b6134258185613dec565b9350613435818560208601613f63565b80840191505092915050565b600061344e601483613ddb565b91506134598261416a565b602082019050919050565b6000613471603283613ddb565b915061347c82614193565b604082019050919050565b6000613494601283613ddb565b915061349f826141e2565b602082019050919050565b60006134b7601c83613ddb565b91506134c28261420b565b602082019050919050565b60006134da601483613ddb565b91506134e582614234565b602082019050919050565b60006134fd601483613ddb565b91506135088261425d565b602082019050919050565b6000613520602483613ddb565b915061352b82614286565b604082019050919050565b6000613543601983613ddb565b915061354e826142d5565b602082019050919050565b6000613566602c83613ddb565b9150613571826142fe565b604082019050919050565b6000613589603883613ddb565b91506135948261434d565b604082019050919050565b60006135ac601683613ddb565b91506135b78261439c565b602082019050919050565b60006135cf602a83613ddb565b91506135da826143c5565b604082019050919050565b60006135f2602983613ddb565b91506135fd82614414565b604082019050919050565b6000613615601283613ddb565b915061362082614463565b602082019050919050565b6000613638600983613ddb565b91506136438261448c565b602082019050919050565b600061365b602083613ddb565b9150613666826144b5565b602082019050919050565b600061367e602c83613ddb565b9150613689826144de565b604082019050919050565b60006136a1602983613ddb565b91506136ac8261452d565b604082019050919050565b60006136c4602f83613ddb565b91506136cf8261457c565b604082019050919050565b60006136e7602183613ddb565b91506136f2826145cb565b604082019050919050565b600061370a601583613ddb565b91506137158261461a565b602082019050919050565b600061372d603183613ddb565b915061373882614643565b604082019050919050565b6000613750601783613ddb565b915061375b82614692565b602082019050919050565b6000613773601083613ddb565b915061377e826146bb565b602082019050919050565b600060a0830160008301516137a160008601826137ff565b50602083015184820360208601526137b9828261339e565b91505060408301516137ce6040860182613347565b5060608301516137e160608601826132b4565b5060808301516137f460808601826137ff565b508091505092915050565b61380881613f4a565b82525050565b61381781613f4a565b82525050565b60006138298285613410565b91506138358284613410565b91508190509392505050565b600060208201905061385660008301846132c3565b92915050565b600060808201905061387160008301876132c3565b61387e60208301866132c3565b61388b604083018561380e565b818103606083015261389d8184613365565b905095945050505050565b60006060820190506138bd60008301866132c3565b6138ca6020830185613356565b81810360408301526138dc81846133d7565b9050949350505050565b60006040820190506138fb60008301856132c3565b613908602083018461380e565b9392505050565b6000602082019050818103600083015261392981846132d2565b905092915050565b60006020820190506139466000830184613356565b92915050565b6000602082019050818103600083015261396681846133d7565b905092915050565b6000602082019050818103600083015261398781613441565b9050919050565b600060208201905081810360008301526139a781613464565b9050919050565b600060208201905081810360008301526139c781613487565b9050919050565b600060208201905081810360008301526139e7816134aa565b9050919050565b60006020820190508181036000830152613a07816134cd565b9050919050565b60006020820190508181036000830152613a27816134f0565b9050919050565b60006020820190508181036000830152613a4781613513565b9050919050565b60006020820190508181036000830152613a6781613536565b9050919050565b60006020820190508181036000830152613a8781613559565b9050919050565b60006020820190508181036000830152613aa78161357c565b9050919050565b60006020820190508181036000830152613ac78161359f565b9050919050565b60006020820190508181036000830152613ae7816135c2565b9050919050565b60006020820190508181036000830152613b07816135e5565b9050919050565b60006020820190508181036000830152613b2781613608565b9050919050565b60006020820190508181036000830152613b478161362b565b9050919050565b60006020820190508181036000830152613b678161364e565b9050919050565b60006020820190508181036000830152613b8781613671565b9050919050565b60006020820190508181036000830152613ba781613694565b9050919050565b60006020820190508181036000830152613bc7816136b7565b9050919050565b60006020820190508181036000830152613be7816136da565b9050919050565b60006020820190508181036000830152613c07816136fd565b9050919050565b60006020820190508181036000830152613c2781613720565b9050919050565b60006020820190508181036000830152613c4781613743565b9050919050565b60006020820190508181036000830152613c6781613766565b9050919050565b6000602082019050613c83600083018461380e565b92915050565b600060a082019050613c9e600083018861380e565b8181036020830152613cb081876133d7565b9050613cbf6040830186613356565b613ccc60608301856132c3565b613cd9608083018461380e565b9695505050505050565b6000613ced613cfe565b9050613cf98282613ff2565b919050565b6000604051905090565b600067ffffffffffffffff821115613d2357613d2261412a565b5b613d2c82614159565b9050602081019050919050565b600067ffffffffffffffff821115613d5457613d5361412a565b5b613d5d82614159565b9050602081019050919050565b6000819050602082019050919050565b600081519050919050565b600081519050919050565b600081519050919050565b6000602082019050919050565b600082825260208201905092915050565b600082825260208201905092915050565b600082825260208201905092915050565b600082825260208201905092915050565b600081905092915050565b6000613e0282613f4a565b9150613e0d83613f4a565b9250827fffffffffffffffffffffffffffffffffffffffffffffffffffffffffffffffff03821115613e4257613e4161409d565b5b828201905092915050565b6000613e5882613f4a565b9150613e6383613f4a565b925082613e7357613e726140cc565b5b828204905092915050565b6000613e8982613f4a565b9150613e9483613f4a565b925082821015613ea757613ea661409d565b5b828203905092915050565b6000613ebd82613f2a565b9050919050565b6000613ecf82613f2a565b9050919050565b60008115159050919050565b60007fffffffff0000000000000000000000000000000000000000000000000000000082169050919050565b60006fffffffffffffffffffffffffffffffff82169050919050565b600073ffffffffffffffffffffffffffffffffffffffff82169050919050565b6000819050919050565b82818337600083830152505050565b60005b83811015613f81578082015181840152602081019050613f66565b83811115613f90576000848401525b50505050565b6000613fa182613f4a565b91506000821415613fb557613fb461409d565b5b600182039050919050565b60006002820490506001821680613fd857607f821691505b60208210811415613fec57613feb6140fb565b5b50919050565b613ffb82614159565b810181811067ffffffffffffffff8211171561401a5761401961412a565b5b80604052505050565b600061402e82613f4a565b91507fffffffffffffffffffffffffffffffffffffffffffffffffffffffffffffffff8214156140615761406061409d565b5b600182019050919050565b600061407782613f4a565b915061408283613f4a565b925082614092576140916140cc565b5b828206905092915050565b7f4e487b7100000000000000000000000000000000000000000000000000000000600052601160045260246000fd5b7f4e487b7100000000000000000000000000000000000000000000000000000000600052601260045260246000fd5b7f4e487b7100000000000000000000000000000000000000000000000000000000600052602260045260246000fd5b7f4e487b7100000000000000000000000000000000000000000000000000000000600052604160045260246000fd5b6000601f19601f8301169050919050565b7f4e4f205375636820746f6b656e20457869737473000000000000000000000000600082015250565b7f4552433732313a207472616e7366657220746f206e6f6e20455243373231526560008201527f63656976657220696d706c656d656e7465720000000000000000000000000000602082015250565b7f4e6f74206f776e6572206f662041737365740000000000000000000000000000600082015250565b7f4552433732313a20746f6b656e20616c7265616479206d696e74656400000000600082015250565b7f20417373657420616c7265616479206f776e6564000000000000000000000000600082015250565b7f204173736574206e6f7420417661696c61626c65000000000000000000000000600082015250565b7f4552433732313a207472616e7366657220746f20746865207a65726f2061646460008201527f7265737300000000000000000000000000000000000000000000000000000000602082015250565b7f4552433732313a20617070726f766520746f2063616c6c657200000000000000600082015250565b7f4552433732313a206f70657261746f7220717565727920666f72206e6f6e657860008201527f697374656e7420746f6b656e0000000000000000000000000000000000000000602082015250565b7f4552433732313a20617070726f76652063616c6c6572206973206e6f74206f7760008201527f6e6572206e6f7220617070726f76656420666f7220616c6c0000000000000000602082015250565b7f4e6f7420617669616c62656c6520666f722053616c6500000000000000000000600082015250565b7f4552433732313a2062616c616e636520717565727920666f7220746865207a6560008201527f726f206164647265737300000000000000000000000000000000000000000000602082015250565b7f4552433732313a206f776e657220717565727920666f72206e6f6e657869737460008201527f656e7420746f6b656e0000000000000000000000000000000000000000000000602082015250565b7f4e6f7420417070726f7665642042757965720000000000000000000000000000600082015250565b7f4e6f74614d61796f720000000000000000000000000000000000000000000000600082015250565b7f4552433732313a206d696e7420746f20746865207a65726f2061646472657373600082015250565b7f4552433732313a20617070726f76656420717565727920666f72206e6f6e657860008201527f697374656e7420746f6b656e0000000000000000000000000000000000000000602082015250565b7f4552433732313a207472616e73666572206f6620746f6b656e2074686174206960008201527f73206e6f74206f776e0000000000000000000000000000000000000000000000602082015250565b7f4552433732314d657461646174613a2055524920717565727920666f72206e6f60008201527f6e6578697374656e7420746f6b656e0000000000000000000000000000000000602082015250565b7f4552433732313a20617070726f76616c20746f2063757272656e74206f776e6560008201527f7200000000000000000000000000000000000000000000000000000000000000602082015250565b7f56616c7565206c657373207468616e2070726963650000000000000000000000600082015250565b7f4552433732313a207472616e736665722063616c6c6572206973206e6f74206f60008201527f776e6572206e6f7220617070726f766564000000000000000000000000000000602082015250565b7f416c7265616479204c697374656420466f722053616c65000000000000000000600082015250565b7f4e6f7454686561737365744f776e657200000000000000000000000000000000600082015250565b6146ed81613eb2565b81146146f857600080fd5b50565b61470481613ec4565b811461470f57600080fd5b50565b61471b81613ed6565b811461472657600080fd5b50565b61473281613ee2565b811461473d57600080fd5b50565b61474981613f0e565b811461475457600080fd5b50565b61476081613f4a565b811461476b57600080fd5b5056fea26469706673582212203597adeeaee1c1d563839329830dc06637ffb24e5e839ab5c6cd47eff8737a1064736f6c63430008030033",
  "immutableReferences": {},
  "source": "//SPDX-License-Identifier: Unlicense\r\n\r\npragma solidity 0.8.3;\r\n\r\nimport \"@openzeppelin/contracts/token/ERC721/ERC721.sol\";\r\nimport \"@openzeppelin/contracts/utils/Counters.sol\";\r\n\r\ncontract RealEstate is ERC721 {\r\n    using Counters for Counters.Counter;\r\n    Counters.Counter private _assetId;\r\n\r\n    struct Asset {\r\n        uint256 assetID;\r\n        string _type;\r\n        bool avlToBuy;\r\n        address owner;\r\n        uint256 price;\r\n    }\r\n\r\n    \r\n    // Mappings\r\n    mapping(uint256 => Asset) public assets;\r\n    // mapping(uint256=>address) private assetOwner;\r\n    mapping(uint256 => address) public assetApprovedToSellTo;\r\n    mapping(address => uint256) private totalAssetsOwned;\r\n\r\n    event assetRegistered(address onwer, uint256 assetID);\r\n\r\n    address public cityMayor;\r\n\r\n    constructor() public ERC721(\"Real Estate Tokensiation\", \"PEST\") {\r\n       \r\n        cityMayor = msg.sender;\r\n    }\r\n    modifier onlyMayor()\r\n    {\r\n        require(msg.sender==cityMayor);\r\n        _;\r\n\r\n    }\r\n\r\n    // Registartion  Only by City Mayor\r\n    function registerAsset(address owner, string memory _type) public onlyMayor  {\r\n        \r\n        uint256 assetCount = _assetId.current();\r\n        assets[assetCount].assetID = assetCount;\r\n        assets[assetCount]._type = _type;\r\n        assets[assetCount].avlToBuy = false;\r\n        assets[assetCount].price = 0;\r\n\r\n        assets[assetCount].owner = owner;\r\n        emit assetRegistered(owner, assetCount);\r\n        emit Transfer(address(0), owner, assetCount);\r\n        _mint(owner, assetCount);\r\n        totalAssetsOwned[owner]++;\r\n        _assetId.increment();\r\n    }\r\n\r\n    function getAssetDetails(uint256 id)\r\n        public\r\n        view\r\n        returns (\r\n            address owner,\r\n            bool canBuy,\r\n            string memory _type\r\n        )\r\n    {\r\n        owner = ownerOf(id);\r\n        canBuy = assets[id].avlToBuy;\r\n        _type = assets[id]._type;\r\n    }\r\n\r\n    function fetchMyAssets() public view returns (Asset[] memory) {\r\n        uint256 currentIndex = 0;\r\n        uint256 assetCount = _assetId.current();\r\n        Asset[] memory items = new Asset[](assetCount);\r\n        for (uint256 i = 0; i < assetCount; i++) {\r\n            if (ownerOf(i) == msg.sender) {\r\n                Asset storage currentItem = assets[i];\r\n                items[currentIndex] = currentItem;\r\n                currentIndex += 1;\r\n            }\r\n        }\r\n        return items;\r\n    }\r\n\r\n    function fetchAllAssetsForSale() public view returns (Asset[] memory) {\r\n        uint256 currentIndex = 0;\r\n        uint256 assetCount = _assetId.current();\r\n        Asset[] memory items = new Asset[](assetCount);\r\n        for (uint256 i = 0; i < assetCount; i++) {\r\n            if (assets[i].avlToBuy == true) {\r\n                Asset storage currentItem = assets[i];\r\n                items[currentIndex] = currentItem;\r\n                currentIndex += 1;\r\n            }\r\n        }\r\n        return items;\r\n    }\r\n\r\n    function setForSale(uint256 assetID, uint128 price) public {\r\n        require(ownerOf(assetID) == msg.sender, \"Not owner of Asset\");\r\n        require(assets[assetID].avlToBuy == false, \"Already Listed For Sale\");\r\n        assets[assetID].avlToBuy = true;\r\n        assets[assetID].price = price;\r\n    }\r\n\r\n    function renuvate(uint256 assetId, uint128 value) public {\r\n        require(msg.sender == ownerOf(assetId), \"NotaMayor\");\r\n        assets[assetId].price = assets[assetId].price + value;\r\n    }\r\n\r\n    function appreciate(uint256 assetId, uint128 value) public  onlyMayor {\r\n        \r\n        assets[assetId].price = assets[assetId].price + value;\r\n    }\r\n\r\n    function depreciate(uint256 assetId, uint128 value) public onlyMayor  {\r\n        \r\n        assets[assetId].price = assets[assetId].price - value;\r\n    }\r\n\r\n    function approveBuyer(uint256 assetId, address buyer) public {\r\n        require(msg.sender == ownerOf(assetId));\r\n        approve(buyer, assetId);\r\n        assetApprovedToSellTo[assetId] = buyer;\r\n    }\r\n\r\n    function clearBuyerApproval(uint256 assetId, address approved) public {\r\n        if (assetApprovedToSellTo[assetId] == approved) {\r\n            assetApprovedToSellTo[assetId] = address(0);\r\n        }\r\n    }\r\n\r\n    function buy(address payable from, uint256 assetId) public payable {\r\n        require(_exists(assetId), \" Asset not Available\");\r\n        require(ownerOf(assetId) != msg.sender, \" Asset already owned\");\r\n        require(assets[assetId].avlToBuy == true, \"Not avialbele for Sale\");\r\n        require(msg.value == (assets[assetId].price), \"Value less than price\");\r\n        require(isApproved(msg.sender, assetId), \"Not Approved Buyer\");\r\n        require(ownerOf(assetId) == from, \"NotTheassetOwner\");\r\n        clearBuyerApproval(assetId, getApproved(assetId));\r\n        totalAssetsOwned[from]--;\r\n        totalAssetsOwned[msg.sender]++;\r\n        from.transfer(assets[assetId].price);\r\n        assets[assetId].avlToBuy = false;\r\n        assets[assetId].price = 0;\r\n        transferFrom(from, msg.sender, assetId);\r\n        assets[assetId].owner = msg.sender;\r\n        emit Transfer(from, msg.sender, assetId);\r\n    }\r\n\r\n    function isApproved(address spender, uint256 assetId)\r\n        internal\r\n        view\r\n        returns (bool)\r\n    {\r\n        require(_exists(assetId), \"NO Such token Exists\");\r\n\r\n        return (assetApprovedToSellTo[assetId] == spender);\r\n    }\r\n}\r\n",
  "sourcePath": "E:/Blokchain-Gen/BootCamp/blockchain-developer-bootcamp-final-project/contracts/RealEstate.sol",
  "compiler": {
    "name": "solc",
    "version": "0.8.3+commit.8d00100c.Emscripten.clang"
  },
  "schemaVersion": "3.3.4",
  "updatedAt": "2021-11-22T15:49:04.707Z",
  "networkType": "ethereum",
  "devdoc": {
    "kind": "dev",
    "methods": {
      "approve(address,uint256)": {
        "details": "See {IERC721-approve}."
      },
      "balanceOf(address)": {
        "details": "See {IERC721-balanceOf}."
      },
      "getApproved(uint256)": {
        "details": "See {IERC721-getApproved}."
      },
      "isApprovedForAll(address,address)": {
        "details": "See {IERC721-isApprovedForAll}."
      },
      "name()": {
        "details": "See {IERC721Metadata-name}."
      },
      "ownerOf(uint256)": {
        "details": "See {IERC721-ownerOf}."
      },
      "safeTransferFrom(address,address,uint256)": {
        "details": "See {IERC721-safeTransferFrom}."
      },
      "safeTransferFrom(address,address,uint256,bytes)": {
        "details": "See {IERC721-safeTransferFrom}."
      },
      "setApprovalForAll(address,bool)": {
        "details": "See {IERC721-setApprovalForAll}."
      },
      "supportsInterface(bytes4)": {
        "details": "See {IERC165-supportsInterface}."
      },
      "symbol()": {
        "details": "See {IERC721Metadata-symbol}."
      },
      "tokenURI(uint256)": {
        "details": "See {IERC721Metadata-tokenURI}."
      },
      "transferFrom(address,address,uint256)": {
        "details": "See {IERC721-transferFrom}."
      }
    },
    "version": 1
  },
  "userdoc": {
    "kind": "user",
    "methods": {},
    "version": 1
  }
}